:020000042001D9
:100000009711FF5F9381811197320000938202491B
:100010007390523093020000638402007350107C8E
:100020001701FFDF130101FE9700FFDF938080FDC2
:10003000638300008290732540F1814501460D20C5
:100040009700FFDF938000FC63830000829097029B
:1000500000009382C2007390523003230000F5BF6A
:1000600006849711FF5F9381610B1741FF5F1301B6
:1000700061EF8142130300406385A2001A9185025B
:10008000E5BF137101FF93020000631B550897A29F
:100090000000938262731703FF5F1303A3F69713A5
:1000A000FF5F9383638F638C6200635A730003A5C1
:1000B000020091022320A3001103E34A73FE97A2DA
:1000C0000000938262701703FF5F1303A3F397038B
:1000D000FF5F938323F3638C6200635A730003A56D
:1000E000020091022320A3001103E34A73FE1713B9
:1000F000FF5F1303638A9743FF5F938323A66357CE
:100100007300232003001103E34D73FE11C2029616
:10011000179500001305C5AEEF80D02AEF8090310F
:10012000EF30A067F327103037070100130787026D
:10013000F98F89CBF32700300967D98F7390073087
:1001400073503000054597A50000938565DC17A620
:100150000000130626DC3120EF80D027A2808280A9
:100160008280411106C2F32240F11303000063852F
:10017000620073005010F5BFEF809007924041017C
:0201800082807B
:100200001D7186CEA2CC80102326A4FA2324B4FA32
:100210002322C4FA2320D4FA232C04FC832784FD50
:10022000232EF4FC8327C4FD2324F4FE832784FEBD
:100230002326F4FE89A30327C4FE914763ECE7500D
:100240008327C4FE13972700B7970120938747376A
:10025000BA979C4382878327C4FA03C70700930792
:1002600050026304F7028327C4FA83C707003E875E
:10027000930704FA832644FABE853A85829683273B
:10028000C4FD8507232EF4FCD5A18327C4FE850772
:100290002326F4FE8327C4FA85072326F4FA83274E
:1002A000C4FA03C7070093075002631EF7028327AF
:1002B000C4FA83C707003E87930704FA832644FAEB
:1002C000BE853A8582968327C4FD8507232EF4FCDC
:1002D000232C04FC832784FD2324F4FE832784FE3F
:1002E0002326F4FE61A18327C4FA03C707009307FE
:1002F000D0026318F702832784FE858B81CF232CDD
:1003000004FC832784FD2324F4FE832784FE232614
:10031000F4FEA9A9832784FE93E717002324F4FEA3
:10032000B1A18327C4FE85072326F4FE8327C4FAE0
:1003300003C7070093070003631DF700832784FEAC
:1003400093E707042324F4FE8327C4FA85072326B2
:10035000F4FA8327C4FA03C707009307F00263FB8C
:10036000E7028327C4FA03C707009307900363E3F8
:10037000E702032784FDBA878A07BA9786073E8774
:100380008327C4FA83C70700BA97938707FD232CF6
:10039000F4FCE9AE8327C4FE85072326F4FE8327F9
:1003A000C4FA03C70700930760046319F7008327A3
:1003B00084FE93E707082324F4FE4DAE8327C4FA96
:1003C00003C707009307E0046301F73A8327C4FAE1
:1003D00003C707009307C0066319F700832784FE4D
:1003E00093E787002324F4FE51A68327C4FA03C7AA
:1003F0000700930780066319F700832784FE93E7BD
:1004000007012324F4FE9DA68327C4FE8507232627
:10041000F4FE9307C4FBBD07232AF4FC832744FDA5
:10042000238007008327C4FA83C70700938787FACE
:1004300013070002636FF73013972700B797012067
:1004400093878738BA979C438287832784FE93E7F4
:1004500027002324F4FEC1472322F4FE31A883277A
:1004600084FE93E747002324F4FEA9472322F4FEE9
:1004700021A0A1472322F4FE832784FEA18B99CBE0
:10048000832784FA138747002324E4FA9C43232814
:10049000F4FCA5A0832784FEC18B8DCB832784FE2B
:1004A000918B99CB832784FA138747002324E4FA9E
:1004B0009C432328F4FC91A0832784FA13874700E8
:1004C0002324E4FA9C432328F4FC05A8832784FE14
:1004D000918B99CB832784FA138747002324E4FA6E
:1004E0009C432328F4FC11A8832784FA1387470030
:1004F0002324E4FA9C432328F4FC832784FE918B75
:100500008DC3832704FD63DE0700832784FE93E702
:1005100007022324F4FE832704FDB307F0402328B9
:10052000F4FC032704FD832744FEB377F702232658
:10053000F4FC832744FDFD17232AF4FC0327C4FCA5
:10054000A54763EFE7008327C4FC93F7F70F938772
:10055000070313F7F70F832744FD2380E70035A82F
:10056000832784FE898B91CF8327C4FC93F7F70FF1
:100570009387770313F7F70F832744FD2380E70062
:1005800029A88327C4FC93F7F70F9387770513F700
:10059000F70F832744FD2380E700032704FD83270B
:1005A00044FEB357F7022328F4FC832704FDB5FB70
:1005B000A1A8832784FE93F7F7FB2324F4FE832767
:1005C00044FDFD17232AF4FC832784FA1387470090
:1005D0002324E4FA9C4313F7F70F832744FD238079
:1005E000E70085472320F4FEBDA0832784FE93F710
:1005F000F7FB2324F4FE832784FA13874700232480
:10060000E4FA9C43232AF4FC032544FDEF80501DAB
:100610002320A4FE832784FE93F7070291C7832734
:1006200004FE85072320F4FE832784FE13F70706C4
:10063000930700066310F702930704FA032744FAAE
:10064000BE851305D00202978327C4FD8507232E9C
:10065000F4FC11A00100832784FE858BB9E325A853
:10066000832784FE93F7070481C79307000319A02B
:1006700093070002130704FA832644FABA853E85DD
:1006800082968327C4FD8507232EF4FC832784FDEF
:10069000FD17232CF4FC032784FD832704FEE3E1EC
:1006A000E7FC832784FE13F7070693070002631510
:1006B000F704930704FA032744FABE851305D00212
:1006C00002978327C4FD8507232EF4FC35A08327DA
:1006D00044FD13871700232AE4FC83C707003E87E5
:1006E000930704FA832644FABE853A8582968327C7
:1006F000C4FD8507232EF4FC832744FD83C7070030
:10070000F9F7032784FD832704FE6375F700232C84
:1007100004FC25A8032784FD832704FEB307F740C4
:10072000232CF4FC1DA0930704FA032744FABE858A
:100730001305000202978327C4FD8507232EF4FCCE
:10074000832784FDFD17232CF4FC832784FDE1FF20
:1007500011A00100232C04FC832784FD2324F4FE34
:10076000832784FE2326F4FE11A001008327C4FA08
:1007700085072326F4FA8327C4FA83C70700E39C7E
:1007800007AA8327C4FD3E85F64066442561828022
:10079000797122D60018232EA4FC232CB4FC8327C5
:1007A00084FD9C432326F4FE8327C4FE1387170091
:1007B0002326E4FE0327C4FD1377F70F2380E70009
:1007C000832784FD0327C4FE98C381473E853254A6
:1007D00045618280797106D622D40018232EA4FCAC
:1007E000232CB4FC232AC4FC8326C4FDB7070120B4
:1007F00013860779832544FD032584FD11342326C0
:10080000A4FE8327C4FE0327C4FDBA9723800700F4
:100810008327C4FE3E85B2502254456182805D71BB
:1008200006D622D40018232EA4FC232CB4FC10C41A
:1008300054C418C85CC8232C0401232E1401930748
:100840000402A1172324F4FE832784FE3E86832519
:1008500084FD0325C4FDBD3F2326A4FE8327C4FEDB
:100860003E85B250225461618280011122CE001077
:100870002326A4FE0327C4FEB70700809387C70082
:100880006317F700B727F4009387074025A80327CD
:10089000C4FEB7070080938707026317F700B7A766
:1008A0004A049387072039A80327C4FEB7070080AE
:1008B000938747036317F700B757E80193870780CB
:1008C00011A081473E85724405618280011106CEE8
:1008D00022CC00102326A4FE0325C4FE7937AA8764
:1008E0003E85F240624405618280011106CE22CC31
:1008F00000102326A4FE2324B4FE0325C4FEF937EA
:10090000AA873E85F240624405618280011122CEB1
:1009100000102326A4FE0327C4FEB7170080938788
:1009200047926315F700B707000211A081473E8583
:10093000724405618280011122CE00102326A4FE9C
:100940000327C4FEB7170080938747926314F7000C
:10095000894711A081473E8572440561828001115B
:1009600022CE00102326A4FE2324B4FE832784FE77
:1009700091E7B70700809387870421A8032784FEA7
:1009800085476317F700B70700809387870411A096
:1009900081473E85724405618280011122CE00109C
:1009A0002326A4FE2324B4FE832784FE99E38D47E7
:1009B00009A8032784FE85476314F7009D4711A00B
:1009C00081473E857244056182805D7186C6A2C4FE
:1009D000CAC2CEC052DE56DC5ADA5ED862D666D4BF
:1009E0008008232EA4FA8327C4FB3E8505372326DF
:1009F000A4FC0327C4FCB167F117BA979C432324D6
:100A0000F4FC0327C4FCB167E117BA979C43232287
:100A1000F4FC0327C4FCB167F117BA979C43032782
:100A200084FCE318F7FC832784FC3E8C814C9319EB
:100A30000C000149832744FC3E8A814A336B4901FB
:100A4000B3EB5901DA875E883E85C285B6402644FD
:100A500016498649725AE25A525BC25B325CA25C0A
:100A600061618280797106D622D44AD24ED00018B4
:100A7000232EA4FC232CB4FC2328C4FC232AD4FC5E
:100A80008327C4FD2326F4FE8327C4FE3E85BD3D97
:100A90002324A4FE832784FD8E073E87832784FEBC
:100AA0003E9791679107BA973E87FD571CC38327EE
:100AB00084FD8E073E87832784FE3E979167BA9711
:100AC0003E87832704FD1CC3832744FD13D90700F9
:100AD0008149832784FD8E073E87832784FE3E97C6
:100AE00091679107BA974A8798C381473E85B2506C
:100AF00022541259825945618280011106CE22CCBE
:100B00000010232604FEF32740F12326F4FE0325DC
:100B1000C4FEEF2050152324A4FE032584FEEF20FD
:100B20003012AA873E85F2406244056182803971A5
:100B300006DE22DC80002326A4FC0325C4FCE53B62
:100B40002324A4FE8327C4FC2322F4FE832744FE2F
:100B5000DC43A9EF232604FE81A08325C4FE0325E0
:100B6000C4FCF53B2320A4FE8325C4FE0325C4FC5E
:100B70002D35232EA4FC832704FE9C43DC438326CF
:100B8000C4FC01468325C4FD032504FE8297832708
:100B9000C4FE85072326F4FE0327C4FE832784FEB4
:100BA000E34DF7FA832744FE0547D8C30100F2500E
:100BB000625421618280397106DE22DC80002326A6
:100BC000A4FC2324B4FC2322C4FC2320D4FCFD5722
:100BD0002326F4FE232404FE0D372320A4FE032540
:100BE000C4FC913B232EA4FC232204FE91A0832568
:100BF00044FE0325C4FC5533232CA4FC832544FE6A
:100C00000325C4FCA93B2324A4FE032704FE832759
:100C100084FE6318F700032784FC832784FD6300A8
:100C2000F702232404FE832744FE85072322F4FED3
:100C3000032744FE8327C4FDE34BF7FA11A001000C
:100C4000832784FE85C3832784FE9C43DC4383265D
:100C500004FC032644FC832584FC032584FE829740
:100C60002326A4FE8327C4FE3E85F25062542161F0
:100C70008280397106DE22DC80002326A4FC232436
:100C8000B4FCFD572322F4FE832784FCC9C7232626
:100C900004FEA5352320A4FE0325C4FC6939232EB8
:100CA000A4FC232404FE91A0832584FE0325C4FC18
:100CB000ED31232CA4FC832584FE0325C4FC45319F
:100CC0002326A4FE032704FE8327C4FE6318F7002F
:100CD000032784FC832784FD6300F702232604FE98
:100CE000832784FE85072324F4FE032784FE8327BD
:100CF000C4FDE34BF7FA11A001008327C4FE81CFA6
:100D00008327C4FE9C439C47832584FC0325C4FEA3
:100D100082972322A4FE01003E85F2506254216195
:100D20008280397106DE22DC80002326A4FC232485
:100D3000B4FCFD572322F4FE832784FCC9C7232675
:100D400004FE653B2320A4FE0325C4FCED36232EC0
:100D5000A4FC232404FE91A0832584FE0325C4FC67
:100D60002D39232CA4FC832584FE0325C4FCC53E19
:100D70002326A4FE032704FE8327C4FE6318F7007E
:100D8000032784FC832784FD6300F702232604FEE7
:100D9000832784FE85072324F4FE032784FE83270C
:100DA000C4FDE34BF7FA11A001008327C4FE81CFF5
:100DB0008327C4FE9C43DC47832584FC0325C4FEB3
:100DC00082972322A4FE01003E85F25062542161E5
:100DD0008280797106D622D40018232EA4FC232CFD
:100DE000B4FC232AC4FCFD572326F4FE8327C4FD4C
:100DF0002324F4FE0325C4FD113E2322A4FE032771
:100E000084FD89476308F704032784FD894763C885
:100E1000E700032784FD8547630EF700E9A8032751
:100E200084FD8D47630CF704032784FD9147630815
:100E3000F708D1A0832744FDC5CB032584FE713676
:100E4000AA872E88032744FD1CC3232207012326DB
:100E500004FE59A8832744FDD1CB832744FD9C433E
:100E60002320F4FE832704FE8A073E87832744FE5F
:100E7000BA9723A00700232604FE8DA8832744FDEC
:100E8000A5CB832744FD9C432320F4FE832704FE47
:100E90008A073E87832744FEBA973E8785471CC34F
:100EA0000F008004832704FE8A073E87832744FEC1
:100EB000BA979C432326F4FE232604FE15A8232676
:100EC00004FE832744FD9DC7832744FD9C432320C4
:100ED000F4FE832704FE8A073E87832744FEBA97E1
:100EE0009C432326F4FE39A0010031A0010021A07B
:100EF000010011A001008327C4FE3E85B250225498
:100F000045618280011122CE00102326A4FE032712
:100F1000C4FE938741816314F700814711A0FD57F8
:100F20003E85724405618280011122CE0010232685
:100F3000A4FE0327C4FE938741816317F700B747D8
:100F40000F009387072411A081473E8572440561F5
:100F50008280011122CE00102326A4FE0327C4FEA6
:100F6000938741816317F700B70700809387870451
:100F700011A081473E85724405618280011122CE15
:100F800000102326A4FE8327C4FE634CF000B7178D
:100F900000800327C4FE0A0793878791BA979C4372
:100FA00011A081473E85724405618280011122CEE5
:100FB0000010F32740F12326F4FE8327C4FE3E856C
:100FC000724405618280011122CE0010A147F3A76F
:100FD00007302326F4FE010072440561828001116E
:100FE00022CE0010A147F3B707302326F4FE0100FC
:100FF000724405618280011122CE0010A147F3A73F
:1010000047302326F4FE01007244056182800111FD
:1010100022CE0010A147F3B747302326F4FE01008B
:10102000724405618280011122CE001093070008EE
:10103000F3A747302326F4FE010072440561828045
:10104000011122CE001093070008F3B74730232682
:10105000F4FE0100724405618280011122CE00106D
:10106000856793870780F3A747302326F4FE0100A6
:10107000724405618280011122CE0010856793873A
:101080000780F3B747302326F4FE01007244056160
:101090008280797122D60018232EA4FC8327C4FDF8
:1010A0000547B317F7002326F4FE8327C4FEF3A7F2
:1010B00047302324F4FE0100325445618280797167
:1010C00022D60018232EA4FC8327C4FD0547B3179E
:1010D000F7002326F4FE8327C4FEF3B7473023240A
:1010E000F4FE0100325445618280011106CE22CC0B
:1010F00000102326A4FE2324B4FE13054006EF208F
:101100008061011106CE22CC00102326A4FE2324E8
:10111000B4FE1305800CEF200060797106D622D44E
:101120000018232EA4FC232CB4FC49352A87B717BA
:1011300000800A0793878791BA979C432326F4FE81
:10114000F32720342324F4FE8327C4FE95C7032508
:10115000C4FE01352322A4FE832784FE93F7F73FC4
:10116000032744FE9387070E8A07BA979C47832577
:10117000C4FD0325C4FE82970100B250225445618C
:101180008280797106D622D40018232EA4FC232C49
:10119000B4FC293DAA873E85D5332326A4FE03252A
:1011A000C4FEEF00C07E2320A4FE2322B4FE8327CA
:1011B00004FE032844FEA9450146B386B7003685E0
:1011C0003335F5003307C800B307E5003E87B6871F
:1011D0003A88BE8542860325C4FEEF003002010036
:1011E000B2502254456182800000000000000000DF
:1011F00000000000000000000000000000000000EF
:10120000197186DE96DC9ADA9ED8A2D6AAD4AED21E
:10121000B2D0B6CEBACCBECAC2C8C6C6F2C4F6C236
:10122000FAC07EDE000159332A87B71700800A070B
:1012300093878791BA979C432326F4FAF3272034A7
:101240002324F4FAF32710342322F4FAF32730345A
:101250002320F4FAF3275030232EF4F88327C4FA1E
:10126000F9C30325C4FAF531232CA4F8832784FAA3
:1012700093F7F73F232AF4F8832784FA63D7070804
:10128000032744F9BD4763D7E7008327C4F993F7E1
:10129000F7039DEF832684F9032744F9BA8786076D
:1012A000BA978E07B69783A787092326F4F8832673
:1012B00084F9032744F9BA878607BA978E07B69749
:1012C00083A707098325C4F8032544F98297A1A8B9
:1012D0008327C4F913F7F70389476316F704F32745
:1012E00070302328F4F8832784F983A7C70D2326B9
:1012F000F4F8832704F92324F4F8832784F883255A
:10130000C4F8032544F9829739A8032784F9832771
:1013100044F99387070E8A07BA979C47832544F9B7
:101320000325C4FA8297F650E6525653C6533654F4
:10133000265596550656F6466647D6474648B64859
:10134000264E964E064FF25F096173002030000072
:10135000000000000000000000000000000000008D
:10136000000000000000000000000000000000007D
:10137000000000000000797122D60018232EA4FC82
:10138000232CB4FCF32750302326F4FE8327C4FE1D
:1013900093F707FC2326F4FE832784FD2324F4FE21
:1013A0000327C4FD8547630AF7048327C4FDA9CF3B
:1013B0000327C4FD89476308F7000327C4FD8D4751
:1013C0006300F70281A8832784FE93E727007390C8
:1013D00077308327C4FE93E72700739057301DA80A
:1013E000832784FE93E73700739077308327C4FE0A
:1013F00093E737007390573031A8832784FE93E733
:1014000017007390573039A0832784FEF19B7390A7
:10141000573001000100325445618280011122CE13
:1014200000102326A4FE8327C4FEF5177147636DC1
:10143000F70013972700B79701209387C742BA9701
:101440009C438287854719A0010081473E857244ED
:1014500005618280797106D622D40018232EA4FC5F
:10146000232CB4FC232AC4FC232604FE8327C4FDBA
:1014700099E3FD57A5A8032784FDFD4763E6E7062A
:10148000832784FD13972700B79701209387074A86
:10149000BA979C438287832744FD99C32D36A9A020
:1014A0003D3E99A0832744FD99C3B13635A88536C2
:1014B00025A8832744FD99C3BD363DA051362DA0F4
:1014C000832744FD99C3513E05A0753631A8832773
:1014D00044FD91C7832784FD3E85653E29A083276F
:1014E00084FD3E85E93E01008327C4FE3E85B2505F
:1014F000225445618280797122D60018232EA4FCE3
:10150000232CB4FC232AC4FC8327C4FD2326F4FE29
:10151000032784FDAD4763C2E702832744FD91CFD3
:101520000327C4FE832784FD9387070E8A07BA9793
:10153000032744FD98C7814711A0FD573E853254CB
:1015400045618280397106DE22DC80002326A4FCFE
:101550008327C4FC2322F4FE832744FEDC43639DDF
:101560000710FD5773B04730FD5773B04734F3276A
:1015700010302320F4FE032704FE8967F98F99E7D2
:10158000032704FEB7070400F98F99C7FD5773B00E
:101590003730FD5773B02730032704FEB707040028
:1015A000F98F81C7FD5773B00718232604FEB9A031
:1015B000832644FE0327C4FEBA878607BA978E07A0
:1015C000B69723A80708832644FE0327C4FEBA87DC
:1015D0008607BA978E07B69723AA0708832644FE84
:1015E0000327C4FEBA878607BA978E07B69723AC3F
:1015F00007088327C4FE85072326F4FE0327C4FEBD
:10160000FD47E3D7E7FA232404FE1DA0032744FE89
:10161000832784FE9387070E8A07BA97371701201E
:101620001307A70E98C7832784FE85072324F4FE9B
:10163000032784FEAD47E3DBE7FCB7170120938562
:10164000072001450D3BF3271030232EF4FC032720
:10165000C4FDC16793878702F98F99CBF3270030C8
:10166000232EF4FC0327C4FD8967D98F73900730BC
:10167000832744FE0547D8C30100F250625421611C
:101680008280797106D622D40018232EA4FC232C44
:10169000B4FC232AC4FC2328D4FC232604FE83277D
:1016A000C4FD2324F4FE032584FD8D3BAA8799E322
:1016B000D55739A2832744FD85CF832684FE03278F
:1016C00084FDBA878607BA978E07B697032744FD2D
:1016D00023A8E708832684FE032784FDBA878607AC
:1016E000BA978E07B697032704FD23ACE708F9A045
:1016F000832784FDF51771476362F70C1397270062
:10170000B797012093870752BA979C438287832615
:1017100084FE032784FDBA878607BA978E07B6979B
:10172000371701201307A71123A8E708832684FE93
:10173000032784FDBA878607BA978E07B6970327D3
:1017400004FD23AAE7089DA8832684FE032784FDC1
:10175000BA878607BA978E07B697371701201307FF
:10176000271823A8E708832684FE032784FDBA8769
:101770008607BA978E07B697032704FD23AAE708C2
:1017800035A8832684FE032784FDBA878607BA9787
:101790008E07B697371701201307271023A8E708ED
:1017A000832684FE032784FDBA878607BA978E07AF
:1017B000B697032704FD23AAE70801008327C4FE88
:1017C0003E85B250225445618280011106CE22CC62
:1017D00000102326A4FE2324B4FE832784FE05469E
:1017E000BE850325C4FEBD31AA873E85F240624412
:1017F00005618280011106CE22CC00102326A4FEB2
:101800002324B4FE832784FE0146BE850325C4FE3F
:101810009131AA873E85F2406244056182807971E8
:1018200006D622D40018232EA4FC232CB4FC232A91
:10183000C4FC8327C4FD2326F4FE832784FD9DEB8F
:10184000832744FD91EBB7170120938507200325DB
:1018500044FD1536814705A0032744FD8547631BDA
:10186000F7008327C4FEA107BE85032544FD21366A
:10187000814711A0FD573E85B250225445618280B8
:10188000797106D622D40018232EA4FC232CB4FC94
:101890008327C4FD2326F4FE832784FD89EBB71735
:1018A0000120938507200145F934814711A0FD5798
:1018B0003E85B250225445618280011122CE001033
:1018C0002326A4FE2324B4FE2322C4FE81473E85A2
:1018D000724405618280397122DE80002326A4FCD7
:1018E00001438143232464FE232674FE732500B83C
:1018F0002322A4FE732500B02320A4FE732500B884
:10190000232EA4FC832844FE0325C4FD6395A8026E
:10191000032544FEAA850146139805008147032646
:1019200004FEB286014733E6D7002324C4FEB36722
:10193000E8002326F4FE832784FE0328C4FE3E85A8
:10194000C285725421618280797106D622D44AD22E
:101950004ED00018232EA4FC8327C4FD81E7014943
:10196000814921A80325C4FDEFF00FDC2326A4FE46
:101970008327C4FE3E89FD87BE89CA874E883E857F
:10198000C285B25022541259825945618280397100
:1019900006DE22DC80002326A4FC81470148232C9C
:1019A000F4FC232E04FD0325C4FCEFF08FDA23267C
:1019B000A4FE8327C4FC2324F4FE8327C4FE8DC722
:1019C0008327C4FE83A7C7132322F4FE832744FE84
:1019D00081CF832744FE9C43984F930784FD3E8626
:1019E0008545032544FE0297832784FD0328C4FD13
:1019F0003E85C285F250625421618280797106D69B
:101A000022D426D20018232EA4FC2328B4FC232A97
:101A1000C4FCFD572326F4FE0325C4FDEFF06FD36D
:101A20002324A4FE8327C4FD2322F4FE832784FEFF
:101A30008DCF832784FE83A7C7132320F4FE83273B
:101A400004FE85C7832704FE9C43C44F0325C4FDC1
:101A5000EFF04FCBAA87032604FD832644FDBE8505
:101A6000032504FE82942326A4FE8327C4FE3E851C
:101A7000B2502254925445618280011122CE00104E
:101A80002326A4FEB7170080938747923E857244B1
:101A900005618280011122CE00102326A4FE9D47FD
:101AA0003E85724405618280011122CE00102326FA
:101AB000A4FEB7170080938747923E857244056164
:101AC0008280011122CE00102326A4FE8D473E8580
:101AD000724405618280797106D622D40018232EC3
:101AE000A4FC232CB4FCFD572326F4FE0325C4FDDF
:101AF000EFF02FC62324A4FE8327C4FD2322F4FE87
:101B0000832784FE9DC7832784FE83A7C70D2320D8
:101B1000F4FE832704FE91CF832704FE9C43984F55
:101B2000930784FD3E868D45032504FE02972326F8
:101B3000A4FE8327C4FE3E85B250225445618280B4
:101B4000797106D622D40018232EA4FC232CB4FCD1
:101B5000FD572326F4FE0325C4FDEFF08FBF232499
:101B6000A4FE8327C4FD2322F4FE832784FE9DC7A1
:101B7000832784FE83A7C70D2320F4FE832704FE5A
:101B800091CF832704FE9C43984F930784FD3E86A4
:101B90008945032504FE02972326A4FE8327C4FE5D
:101BA0003E85B250225445618280797106D622D496
:101BB0000018232EA4FC232CB4FC232604FE0325AA
:101BC000C4FDEFF00FB92324A4FE8327C4FD232214
:101BD000F4FE832784FE9DC7832784FE83A7C70D59
:101BE0002320F4FE832704FE91CF832704FE9C4329
:101BF000984F930784FD3E869145032504FE029786
:101C00002326A4FE8327C4FE3E85B250225445619C
:101C10008280011106CE22CC00102326A4FE0325CB
:101C2000C4FEEFF00FB3AA873E85F240624405611F
:101C30008280797106D622D40018232EA4FC232C8E
:101C4000B4FC232AC4FC0325C4FDEFF08FB0232687
:101C5000A4FE8327C4FE99CB032644FD832584FD7F
:101C60000325C4FEEFF03F89AA8711A0FD573E85EA
:101C7000B250225445618280011122CE00102326E9
:101C8000A4FE2324B4FE832784FE83D707008D8B14
:101C900099C3914711A089473E85724405618280AE
:101CA000797122D60018232EA4FCF32710342326A2
:101CB000F4FE8327C4FE3E853254456182800111C3
:101CC00022CE00102326A4FE2324B4FE832784FE04
:101CD0007390173481473E857244056182800111FB
:101CE00022CE00102326A4FE0327C4FEB7070080DF
:101CF000938707406315F700B707000C11A08147D1
:101D00003E85724405618280011122CE0010232697
:101D1000A4FE0327C4FEB70700809387074063141F
:101D2000F700ED4711A081473E857244056182802E
:101D3000011122CE00102326A4FE0327C4FEB707FC
:101D40000080938707406314F7009D4711A08147E7
:101D50003E85724405618280011122CE0010232647
:101D6000A4FE2324B4FE832784FE91E7B7070080F6
:101D70009387870411A8832784FE91E7B707008023
:101D80009387870411A081473E8572440561828054
:101D9000011122CE00102326A4FE2324B4FE8327A3
:101DA00084FE99E3AD4739A0832784FE99E3AD47CC
:101DB00011A081473E85724405618280797106D603
:101DC00022D40018232EA4FC0325C4FD093F23269A
:101DD000A4FE0327C4FEB70720009107BA979C43CF
:101DE0003E85B250225445618280797106D622D454
:101DF0000018232EA4FC232CB4FC0325C4FDC535F8
:101E00002326A4FE0327C4FEB70720009107BA9734
:101E10003E87832784FD1CC30100B25022544561D4
:101E20008280797106D622D40018232EA4FC232C9C
:101E3000B4FC0325C4FD65352326A4FE0327C4FE98
:101E4000B7072000BA973E87832784FD1CC3010093
:101E5000B250225445618280797106D622D400188E
:101E6000232EA4FC232CB4FC232AC4FC0325C4FD8C
:101E7000BD352326A4FE0325C4FD5D3D2324A4FE19
:101E8000832784FE95C3832784FE032744FD637D57
:101E9000F700832784FD8A073E878327C4FEBA970D
:101EA0003E87832744FD1CC30100B2502254456184
:101EB0008280797106D622D40018232EA4FC232C0C
:101EC000B4FC232AC4FCEFF06F8E2326A4FE032566
:101ED000C4FD31352324A4FE832784FD95878A071A
:101EE0003E87832784FE3E978967BA979C432322C7
:101EF000F4FE832744FD81CF832784FDFD8B0547B6
:101F0000B317F7003E87832744FED98F29A883277C
:101F100084FDFD8B0547B317F70093C7F7FF3E8796
:101F2000832744FEF98F032784FD15870A07BA86A5
:101F3000032784FEBA96096736971CC30100B25086
:101F4000225445618280011106CE22CC0010232646
:101F5000A4FE2324B4FE1305C012EF10C07B7971D8
:101F600006D622D40018232EA4FC232CB4FC8327ED
:101F700084FD2326F4FE0325C4FE89352324A4FE14
:101F80000325C4FE51332322A4FE832744FE0327E6
:101F900084FE6372F7040327C4FE832784FE8A0746
:101FA000BA979C478DCB0327C4FE832784FE8A07FC
:101FB000BA9703A88700032684FE8326C4FE03275E
:101FC00084FEBA878607BA978E07B69783A78708D5
:101FD000BE8532850298832584FE0325C4FE3135F3
:101FE0000100B250225445618280397106DE22DC44
:101FF00080002326A4FC8327C4FC2322F4FE83272D
:1020000044FEDC43639C0710232604FE01A2032543
:10201000C4FCDD392320A4FE8325C4FE0325C4FCB3
:10202000253B232EA4FC8325C4FE0325C4FC8D334D
:10203000232CA4FC8327C4FD9C439C430325C4FD9F
:102040008297232404FE85A00146832584FE032570
:1020500044FE85350146832584FE032544FEED3B81
:10206000032744FE832784FE8A07BA9723A4070028
:10207000832644FE032784FEBA878607BA978E0715
:10208000B69723A20708832644FE032784FEBA8757
:102090008607BA978E07B69723A40708832784FE7E
:1020A00085072324F4FE032784FE832704FEE34DE3
:1020B000F7F88145032544FEAD338327C4FD9C43D7
:1020C000DC43832644FE0146832584FD0325C4FDAD
:1020D00082978327C4FD9C43D843832644FEB727B9
:1020E00001201386E7F5832584FD0325C4FD0297AF
:1020F0008327C4FD9C439C47832584FD0325C4FDA1
:1021000082978327C4FE85072326F4FE8327C4FE17
:10211000E35FF0EE832744FE0547D8C30100F25089
:10212000625421618280797106D622D40018232E50
:10213000A4FC232CB4FC232AC4FC2328D4FC83272E
:10214000C4FD2326F4FE0325C4FD7D3E2A87832794
:1021500084FD63C4E700FD5741A0832744FD95CF6C
:102160000946832584FD0325C4FEFD310327C4FEF3
:10217000832784FD8A07BA97032744FD98C78326DF
:10218000C4FE032784FDBA878607BA978E07B697E1
:10219000032704FD23A4E7083DA80546832584FD05
:1021A0000325C4FE55390327C4FE832784FD8A070F
:1021B000BA9737270120130767F498C78326C4FE10
:1021C000032784FDBA878607BA978E07B697032739
:1021D00004FD23A2E70881473E85B25022544561A1
:1021E0008280797106D622D40018232EA4FC232CD9
:1021F000B4FC8327C4FD2326F4FE0325C4FD293641
:102200002A87832784FD63C4E700FD5701A805469C
:10221000832584FD0325C4FE693981473E85B2507C
:10222000225445618280797106D622D40018232E6B
:10223000A4FC232CB4FC8327C4FD2326F4FE032531
:10224000C4FDD9342A87832784FD63C4E700FD5782
:1022500001A80146832584FD0325C4FE99398147E1
:102260003E85B250225445618280011122CE001079
:102270002326A4FEB7070080938707023E85724499
:1022800005618280011122CE00102326A4FE9387CF
:1022900041933E85724405618280011122CE001077
:1022A0002326A4FE81473E85724405618280411148
:1022B00022C60008938701843E8532444101828012
:1022C000397106DE22DC80002326A4FC0325C4FC31
:1022D000693F2326A4FE0325C4FCC1372324A4FEA2
:1022E0000325C4FC45372322A4FED1372320A4FEB6
:1022F000832704FE9C43832584FE032544FE8297A6
:10230000232EA4FC0325C4FEEF102005AA873E87D8
:102310008327C4FD93F7F7038507B357F7023E857C
:10232000F250625421618280011106CE22CC00104D
:102330002326A4FE2324B4FE0325C4FE5137AA8716
:102340003E85F240624405618280011122CE001078
:102350002326A4FEB70700809387C7003E857244FA
:1023600005618280011122CE00102326A4FE9387EE
:1023700041933E85724405618280011122CE001096
:102380002326A4FE91473E85724405618280411157
:1023900022C60008938701843E8532444101828031
:1023A000397106DE22DC80002326A4FC0325C4FC50
:1023B000693F2326A4FE0325C4FCC1372324A4FEC1
:1023C0000325C4FC45372322A4FED1372320A4FED5
:1023D000832704FE9C43832584FE032544FE8297C5
:1023E000232EA4FC0325C4FEEF003077AA873E8588
:1023F000F250625421618280011106CE22CC00107D
:102400002326A4FE2324B4FE0325C4FE513FAA873D
:102410003E85F240624405618280011122CE0010A7
:102420002326A4FEB7070080938707703E85724479
:1024300005618280011122CE00102326A4FEB70779
:102440000080938747713E85724405618280011147
:1024500022CE00102326A4FE938741933E8572442A
:1024600005618280011122CE00102326A4FEB1470F
:102470003E85724405618280411122C6000893871F
:1024800041933E85324441018280411122C60008B9
:10249000A1473E85324441018280411122C6000895
:1024A000B727F400938707403E853244410182807C
:1024B000411122C60008B78700103E853244410111
:1024C0008280411122C60008938701843E853244F0
:1024D00041018280011122CE00102326A4FE232474
:1024E000B4FE832784FE98478327C4FE63E9E70090
:1024F000832784FED8478327C4FE6374F700FD5703
:1025000029A8832784FE98438327C4FE3307F70254
:10251000832784FEDC43B357F7023E85724405618E
:102520008280011106CE22CC0010853F2326A4FE16
:102530008327C4FE91C7B7070080138587723120B7
:102540000100F240624405618280397106DE22DCBE
:1025500080002326A4FC8327C4FC3E85E13D23267E
:10256000A4FE253F2324A4FE0D372322A4FE893791
:102570002320A4FE032704FE832744FEBA97232EBC
:10258000F4FC8327C4FCDC4389CB8327C4FCD843F9
:102590008327C4FC9C473E8502978327C4FD98434C
:1025A000C167F98F91EB8327C4FD9843C177FD176D
:1025B0007D8F8327C4FD98C38327C4FE91CB8327D7
:1025C000C4FD9843B70702005D8F8327C4FD98C3FD
:1025D0008327C4FC9C43D8438327C4FC832584FE03
:1025E0003E8502978327C4FCDC4789CB8327C4FC44
:1025F000D8478327C4FC9C4B3E8502970100F250CC
:102600006254216182801D7186CEA2CC8010232667
:10261000A4FA0325C4FA393D2326A4FE0325C4FAEF
:10262000ED3B2324A4FE0325C4FA85352322A4FE12
:102630000325C4FA91352320A4FE0325C4FA1D35D1
:10264000232EA4FC0325C4FA1935232CA4FC953DA4
:10265000232AA4FC832744FD9C43832544FE0325B1
:1026600004FE82972328A4FC832744FD9C438325F2
:10267000C4FD032584FD82972326A4FC032704FDC3
:10268000C1677D8FC1676378F700032584FEEF0083
:10269000D04CAA87E1A8032704FDB70702007D8F6D
:1026A000B70702006365F7008327C4FE19A08327DC
:1026B00084FE3E85EF00704A2324A4FC032704FD1A
:1026C000B70704007D8FB70704006365F700832711
:1026D00084FC69A8832704FD9D8B85072322F4FCD5
:1026E000832704FD93F7073F9183850786072320FF
:1026F000F4FC032704FD8567938707C07D8F93074C
:10270000F03F63E4E700FD5795A0032704FD8567CC
:10271000938707C0F98FA9830547B317F700232EC6
:10272000F4FA032784FC832744FC3347F70283270A
:1027300004FC3307F7028327C4FBB347F702232CBB
:10274000F4FA8327C4FC13F707109307F00F63F51F
:10275000E700832784FB19A8032784FB8327C4FC95
:1027600093F7F70385078607B357F7023E85F640D0
:10277000664425618280397106DE22DC80002326D2
:10278000A4FC2324B4FCFD572326F4FEB7070080E5
:1027900093C7F7FF2324F4FE930730042322F4FEAB
:1027A000A5A0832744FE13975700B797012093876E
:1027B0004761BA97BE850325C4FC293B2320A4FEAC
:1027C000032704FEFD57630CF702032704FE83274B
:1027D00084FC1D8F9357F7413D8FB307F740232E9D
:1027E000F4FC0327C4FD832784FE635AF700832784
:1027F00044FE2326F4FE8327C4FD2324F4FE83270E
:1028000044FEFD172322F4FE832744FEE3DB07F892
:102810008327C4FE3E85F2506254216182800111FB
:1028200022CE00102326A4FE2324B4FE2322C4FEBD
:102830008327C4FE9C4313F787FF8327C4FE98C3F6
:102840008327C4FE9843832744FE9C4B9D8B5D8F5A
:102850008327C4FE98C38327C4FE9C4313F7F7C0A5
:102860008327C4FE98C38327C4FE9843832744FE6E
:10287000DC4B920793F7073F5D8F8327C4FE98C315
:102880008327C4FE9843FD779387F73F7D8F832787
:10289000C4FE98C38327C4FE9843832744FE9C4FFD
:1028A0009396A7008567938707C0F58F5D8F832771
:1028B000C4FE98C3832744FEDC4F63DB07028327F3
:1028C00084FE9C4313E70710832784FE98C3832765
:1028D00084FE9C4313F707FC832784FE98C3832759
:1028E00084FE9C4313E71700832784FE98C32DA81A
:1028F000832784FE9C4313F7F7EF832784FE98C356
:10290000832784FE9C4313F707FC832784FE98C328
:10291000832784FE9843832744FEDC4F93F7F70315
:102920005D8F832784FE98C38327C4FE9843B7072F
:10293000FCFFFD177D8F8327C4FE98C3010083270A
:10294000C4FE9C43E3DD07FE010072440561828002
:102950005D7186C6A2C48008232EA4FA232CB4FA83
:102960000325C4FBEFF01FAD2326A4FE0325C4FB03
:10297000EFF0BFAA2324A4FE0325C4FB393623228B
:10298000A4FE0325C4FBEFF0FFAD2320A4FE0D360B
:10299000232EA4FC0327C4FD832744FEBA97232CCF
:1029A000F4FC0327C4FD832704FEBA97232AF4FC12
:1029B000832784FD9843C167F98F91CB832784FDDA
:1029C0009843C177FD177D8F832784FD98C38327A4
:1029D00084FD9843B7070200F98F81C78327C4FE9F
:1029E00019A0832784FE3E85EF0030172328A4FC1E
:1029F000032704FDBA878607BA9713D7F7410D8BD3
:102A0000BA9789873E87832784FB63CBE702032736
:102A100004FDBA878A07BA9713D7F7410D8BBA9787
:102A200089873E87832784FB634CF700832784FDD7
:102A30009843B70704005D8F832784FD98C3B1A036
:102A4000832584FB032504FD3D332326A4FC0327B3
:102A5000C4FCFD576302F7028327C4FC1397570099
:102A6000B797012093874761BA973E86832544FD37
:102A7000032584FD6D3311A8832784FD9843B70790
:102A800004005D8F832784FD98C3832784FD9843CA
:102A9000C1675D8F832784FD98C30325C4FBA536DA
:102AA000AA873E85B640264461618280011106CE28
:102AB00022CC0010EFF07F9E2326A4FE8325C4FEC7
:102AC000B707008013858772EF00900B0100F2407A
:102AD000624405618280411122C60008B787001058
:102AE0003E85324441018280797106D622D4001895
:102AF000232EA4FC232CB4FCF93FAA872326F4FE42
:102B0000032784FD8327C4FEBA979C433E85B250B9
:102B1000225445618280797106D622D40018232E72
:102B2000A4FC232CB4FC232AC4FC7537AA872326D3
:102B3000F4FE032784FD8327C4FEBA973E878327CC
:102B400044FD1CC33E85B250225445618280011170
:102B500022CE00102326A4FE0327C4FE9387C18142
:102B60006315F7009387818125A00327C4FE93870F
:102B700001826315F7009387818119A80327C4FE9A
:102B8000938741826315F7009387818111A0814764
:102B90003E85724405618280011122CE00102326F9
:102BA000A4FE0327C4FE9387C1816314F700D947AD
:102BB00015A00327C4FE938701826314F700CD4755
:102BC00011A80327C4FE938741826314F700D547F9
:102BD00011A081473E85724405618280011122CE99
:102BE00000102326A4FE0327C4FE9387C181631728
:102BF000F700B7A70120938707EA1DA80327C4FEA3
:102C0000938701826317F700B7A70120938787EAAC
:102C100005A00327C4FE938741826317F700B7A777
:102C20000120938747EB29A0B7A701209387C7EB23
:102C30003E85724405618280011106CE22CC0010CF
:102C40002326A4FE2324B4FE0325C4FE413FAA8705
:102C5000832584FE3E85EF60A025AA8799E38547FA
:102C600011A081473E85F2406244056182807971FE
:102C700006D622D40018232EA4FC0325C4FD293F28
:102C80002326A4FE0325C4FDD9352324A4FE8327CF
:102C900084FE89CF8325C4FE032584FEEF00B000A7
:102CA0008325C4FE032584FEEF00F0030100B2502B
:102CB000225445618280797106D622D40018232ED1
:102CC000A4FC0325C4FDC93D2326A4FE0325C4FDA1
:102CD000BD3D2324A4FE832784FE81CB05468325A6
:102CE000C4FE032584FEEF0010040100B2502254FC
:102CF00045618280797106D622D40018232EA4FC67
:102D00000325C4FD513D2326A4FE0325C4FD8135C2
:102D10002324A4FE832784FE81CB01468325C4FEA1
:102D2000032584FEEF0030000100B25022544561BB
:102D30008280797106D622D40018232EA4FC0325A4
:102D4000C4FD993D2326A4FE0325C4FD0935232493
:102D5000A4FE832784FE99C78325C4FE032584FE31
:102D6000EF00F0020100B25022544561828001114F
:102D700022CE00102326A4FE0327C4FE9387818160
:102D80006315F700B727011011A081473E857244F3
:102D900005618280797106D622D40018232EA4FC06
:102DA000232CB4FC0325C4FDD937AA872326F4FEBF
:102DB0008327C4FE91079C43032784FD1347F7FF35
:102DC000BA860327C4FE1107F58F1CC381473E85D1
:102DD000B250225445618280797106D622D40018FF
:102DE000232EA4FC0325C4FD5937AA872326F4FE0D
:102DF0008327C4FEB1079C433E85B25022544561EF
:102E00008280797106D622D40018232EA4FC232CAC
:102E1000B4FC0325C4FDA13FAA872326F4FE832723
:102E2000C4FEA1079843832784FD8326C4FEA10620
:102E3000D98F9CC281473E85B25022544561828021
:102E4000797106D622D40018232EA4FC232CB4FCBE
:102E50000325C4FD293FAA872326F4FE8327C4FE49
:102E6000B1079843832784FD8326C4FEB106D98F1A
:102E70009CC281473E85B25022544561828079715F
:102E800006D622D40018232EA4FC232CB4FC032540
:102E9000C4FDF13DAA872326F4FE8327C4FEB107B3
:102EA0009C43032784FD1347F7FFBA860327C4FE1C
:102EB0003107F58F1CC381473E85B25022544561CE
:102EC0008280797106D622D40018232EA4FC232CEC
:102ED000B4FC0325C4FD613DAA872326F4FE8327A5
:102EE000C4FEB1079843832784FD8326C4FEB10640
:102EF000B98F9CC281473E85B25022544561828081
:102F0000797106D622D40018232EA4FC232CB4FCFD
:102F1000232AC4FC0325C4FD993DAA872326F4FE79
:102F20008327C4FE9387C7039C43032784FD13476D
:102F3000F7FFBA860327C4FE1307C703F58F1CC328
:102F40008327C4FE938787039843832744FD832602
:102F5000C4FE93868603D98F9CC281473E85B250BA
:102F6000225445618280011122CE00102326A4FE46
:102F70000327C4FE938781826315F700B7370110DA
:102F800011A081473E85724405618280011122CEE5
:102F900000102326A4FE0327C4FE938781826317B3
:102FA000F700B70700809387074011A081473E854F
:102FB000724405618280011122CE00102326A4FEF6
:102FC00095473E85724405618280011122CE001032
:102FD0002326A4FEB7070080938787723E8572443C
:102FE00005618280011122CE00102326A4FE938762
:102FF00081813E85724405618280011122CE0010DC
:103000002326A4FEB70703003E8572440561828033
:10301000011122CE00102326A4FEB70703003E852F
:10302000724405618280011106CE22CC0010232655
:10303000A4FE0325C4FE993FAA873E85F240624460
:1030400005618280011106CE22CC00102326A4FE49
:103050000325C4FE8D37AA87938707023E85F24079
:10306000624405618280797106D622D40018232E2D
:10307000A4FCAE87A30DF4FC0325C4FDED35AA879F
:103080002326F4FE01008327C4FE9C43E3CD07FE04
:103090008327C4FE0347B4FD98C381473E85B250E1
:1030A000225445618280797106D622D40018232EDD
:1030B000A4FC232CB4FCB70700802326F4FE0325D0
:1030C000C4FD5535AA872324F4FE39A0832784FE46
:1030D00091079C432326F4FE8327C4FEE3C807FE22
:1030E0008327C4FE13F7F70F832784FD2380E700AF
:1030F00081473E85B250225445618280797122D643
:103100000018232EA4FC8327C4FD2326F4FE832766
:10311000C4FEDC433E85325445618280797106D617
:1031200022D40018232EA4FC232CB4FC8327C4FD36
:103130002326F4FE0325C4FD3D35AA872324F4FE8F
:103140000325C4FD59352322A4FE032784FD8327CC
:10315000C4FED8C3832744FEB1CB832744FE9C43DF
:103160009C43032544FE82972320A4FE032704FEEC
:10317000832784FDB347F7021387F7FF832784FE75
:10318000E10798C3832784FEA1079C43032784FE9D
:10319000210793E717001CC3832784FEB1079C43D4
:1031A000032784FE310793E717001CC381473E8540
:1031B000B250225445618280397106DE22DC8000E3
:1031C0002326A4FC8327C4FC2326F4FE0325C4FC89
:1031D000593BAA872324F4FE0325C4FCFD33232294
:1031E000A4FE832784FEA1079843832784FEA107BA
:1031F000BE86B707F9FFFD17F98F9CC2832784FEAF
:10320000A1079843832784FEA107BE86C167D98F93
:103210009CC20100832784FED1079C43858BFDDB84
:10322000832784FEA1079C43898B99C3A54711A0DE
:10323000A9472320F4FE832744FE9C439C43032597
:1032400044FE8297232EA4FC032704FE8327C4FD9B
:10325000B307F7023E878327C4FEDC43B357F70268
:10326000232CF4FC232A04FC39A00100832744FD0D
:103270008507232AF4FC832744FD032784FDE3C646
:10328000E7FE0100F250625421618280797106D616
:1032900022D40018232EA4FC8327C4FD2326F4FE89
:1032A0000327C4FE8327C4FEDC43BE853A857D29FF
:1032B0000100B250225445618280397106DE22DC61
:1032C00080002326A4FC2324B4FC8327C4FC2326EB
:1032D000F4FE0325C4FCD5392324A4FE0325C4FC35
:1032E00011332322A4FE832784FE9DC30326C4FC3E
:1032F000B73701209385871B032584FEE52003262D
:10330000C4FCB73701209385C728032584FE11220A
:103310008327C4FE832584FC3E858929832744FEB8
:1033200085CB0325C4FCD139AA872320F4FE0325CD
:10333000C4FCF939AA87232EF4FC832744FE9C435E
:103340009C4F0326C4FD832504FE032544FE82977B
:103350000100F250625421618280011106CE22CC1C
:1033600000102326A4FE8327C4FE9C439C43032510
:10337000C4FE8297AA873E85F2406244056182803E
:10338000797106D622D40018232EA4FC232CB4FC79
:103390008327C4FDDC4389CB8327C4FDD84383271F
:1033A000C4FD9C473E8502978327C4FD9C43DC43B4
:1033B000832584FD0325C4FD82972326A4FE83274D
:1033C000C4FDDC4789CB8327C4FDD8478327C4FDD0
:1033D0009C4B3E8502978327C4FE3E85B250225403
:1033E00045618280011122CE00102326A4FE2324F1
:1033F000B4FE2322C4FE8327C4FE032784FED8C361
:103400008327C4FE032744FE98C701007244056168
:103410008280011122CE00102326A4FE2324B4FEB4
:103420002322C4FE8327C4FE032784FED8C7832734
:10343000C4FE032744FE98CB0100724405618280DC
:10344000011106CE22CC00102326A4FE8327C4FE41
:103450009C43DC570325C4FE8297AA873E85F24031
:10346000624405618280011122CE00102326A4FE51
:103470008327C4FE634CF000B71700800327C4FE07
:103480000A0793878791BA979C4311A081473E858D
:103490007244056182800000F322203473231034CB
:1034A000F3233034D5BF011106CE22CC00102326E1
:1034B000A4FE2324B4FE8327C4FE99E3854739A8DC
:1034C0008327C4FE9C439443832784FE0547B31798
:1034D000F700BE850325C4FE8296AA873E85F2408A
:1034E000624405618280011106CE22CC00102326A1
:1034F000A4FE2324B4FE8327C4FE99E3854739A89C
:103500008327C4FE9C439447832784FE0547B31753
:10351000F700BE850325C4FE8296AA873E85F24049
:10352000624405618280011106CE22CC0010232660
:10353000A4FE2324B4FE2322C4FE8327C4FE99E301
:10354000854789A0832744FE85E38327C4FE9C43E7
:10355000944B832784FE0547B317F700BE850325E8
:10356000C4FE8296AA8739A88327C4FE9C43D44709
:10357000832784FE0547B317F700BE850325C4FEE5
:103580008296AA873E85F2406244056182800111DD
:1035900006CE22CC00102326A4FE2324B4FE8327CB
:1035A000C4FE99E3854739A88327C4FE9C43D44BC6
:1035B000832784FE0547B317F700BE850325C4FEA5
:1035C0008296AA873E85F24062440561828001119D
:1035D00006CE22CC00102326A4FE8327C4FE9C43E3
:1035E0009C430325C4FE8297F240624405618280B9
:1035F000011106CE22CC00102326A4FE8327C4FE90
:103600009C43DC430325C4FE82970100F2406244E0
:1036100005618280011106CE22CC00102326A4FE73
:103620008327C4FE9C439C470325C4FE8297010068
:10363000F240624405618280011106CE22CC001066
:103640002326A4FE8327C4FE9C43DC470325C4FE37
:1036500082970100F240624405618280011106CE2A
:1036600022CC00102326A4FE8327C4FE9C439C4B3F
:103670000325C4FE82970100F24062440561828006
:10368000757106C722C50009232EA4F6232CB4F6B3
:103690008327C4F781C7832784F799E38147BDA0B7
:1036A000930744F88325C4F73E85EF5050129307E3
:1036B00044F8832584F73E85EF50807D232604FE61
:1036C00081A0B7070080138707008327C4FE8A07FD
:1036D000BA979C432324F4FE832784FE9C4398439B
:1036E000930744F8BE85032584FE0297AA8781C705
:1036F000832784FE21A88327C4FE85072326F4FEA2
:103700000327C4FE8947E3DEE7FA81473E85BA40D6
:103710002A4449618280011122CE00102326A4FE92
:103720000100FDBF411106C622C40008F167938560
:1037300007201385818231200100B24022444101DB
:103740008280011106CE22CC00102326A4FE232461
:10375000B4FE8327C4FE9C439C43832584FE03253B
:10376000C4FE8297F240624405618280011106CE58
:1037700022CC00102326A4FE2324B4FE8327C4FEFB
:103780009C439C4B832584FE0325C4FE8297AA8715
:103790003E85F240624405618280411122C60008E4
:1037A0000100324441018280011106CE22CC00107A
:1037B0002326A4FE0325C4FEB93F011106CE22CC68
:1037C0000010232604FE938781841307900423802E
:1037D000E700B7A70120138507F2EF404029B7A7FC
:1037E00001201385C7F8EF408028B7A70120138573
:1037F00087FAEF40C027B7A70120138587FDEF4068
:103800000027B7A7012013854704EF404026EF00AB
:10381000F0360545EF502002B7A701201385070BAE
:10382000EF40E024B7A701201385C70CEF40202408
:10383000EF00B0410545EF50800A0145EF40B07FF1
:10384000B7A701201385070FEF0030431305007D54
:10385000EF201033B7A7012013858711EF00F04147
:10386000A9A8B7A701201386C71393050010B7179F
:1038700000801385C7A4EF40F04093050010B717F0
:1038800000801385C7A4EF00B0482324A4FE83273B
:1038900084FE6351F00213060010938541A3B7170D
:1038A00000801385C7A44D262326A4FE138541A3BB
:1038B000EF00B03C0545EF20B02C8327C4FED5D3E4
:1038C0008327C4FE6355F0021305007DEF20502BC3
:1038D00013062008B7A7012093854714138541A339
:1038E000EFC0FFF3138541A3EF00303919A88327F8
:1038F000C4FE63D80700B7A7012013850717EF00A0
:10390000D0370325C4FEEF0070200100F24062446E
:1039100005618280011106CE22CC00102326A4FE70
:103920002324B4FEEF20F051AA873E87B71700800A
:1039300083A787993E97B717008023ACE798B717FE
:10394000008083A787993E85F240624405618280AA
:10395000411122C60008B717008003A7879989671D
:10396000938797FB3307F7029D679387B7EF3E97DF
:10397000B7170200938787D33377F702B717008012
:1039800023ACE798B717008083A787993E85324418
:1039900041018280797106D622D40018232EA4FC1E
:1039A00041468325C4FD138541B3EF50406783270B
:1039B000C4FD23800700938741B32326F4FE03252B
:1039C000C4FEEF50E061AA872324F4FE032784FE9F
:1039D00085476311F7268327C4FE83C707009387B3
:1039E00007FD370700801307C7738A07BA979C4300
:1039F000BE850325C4FDEF50A04999A4032784FE8A
:103A0000894763DDE7088327C4FE03C707009307E0
:103A10000003630FF7068327C4FE83C7070093875D
:103A200007FD370700801307C7738A07BA979C43BF
:103A3000BE850325C4FDEF50A0450325C4FDEF500E
:103A4000205AAA873E878327C4FDBA97130700022E
:103A50002380E700A3800700832784FEF5171387E0
:103A600001858A07BA979C43BE850325C4FDEF50A4
:103A700020420325C4FDEF50A056AA873E87832726
:103A8000C4FDBA97130700022380E700A380070054
:103A9000832784FEFD172324F4FE41AA8327C4FE56
:103AA00003C70700930710036310F7068327C4FEBC
:103AB00083C70700938707FD0327C4FE0507034755
:103AC0000700BA97938707FD2322F4FEB70700800B
:103AD00013874776832744FE8A07BA979C43BE859F
:103AE0000325C4FDEF50C03A0325C4FDEF50404FFD
:103AF000AA873E878327C4FDBA9713070002238055
:103B0000E700A38007002DAA8327C4FE03C7070090
:103B1000930720036315F7068327C4FE850703C7B1
:103B2000070093070003631CF7040325C4FDEF504F
:103B3000204BAA873E878327C4FDBA9737A7012069
:103B4000130707248348070003481700034527008D
:103B50008345370003464700834657000347670005
:103B600023801701A38007012381A700A381B70049
:103B70002382C700A382D7002383E700D1A0832735
:103B8000C4FE83C70700938707FD2320F4FE832725
:103B900004FE95CFB707008013870779832704FEBB
:103BA0008A07BA979C43BE850325C4FDEF50402E7B
:103BB0000325C4FDEF50C042AA873E878327C4FD7A
:103BC000BA97130700022380E700A380070083272A
:103BD000C4FE85072326F4FE8327C4FE03C707001F
:103BE000930700036303F7048327C4FE83C707001A
:103BF000938707FD370700801307C7738A07BA97B3
:103C00009C43BE850325C4FDEF5080280325C4FDD9
:103C1000EF50003DAA873E878327C4FDBA9713075C
:103C200000022380E700A38007008327C4FE8507E6
:103C30002326F4FE8327C4FE83C70700E39007DC36
:103C4000B2502254456182801D7186CEA2CC801074
:103C50002326A4FA2324B4FA2322C4FAB717008037
:103C600083C7079A63980712B7A70120938547294E
:103C70000325C4FAEF50C023AA8781CFB7A701203C
:103C80009385C7290325C4FAEF508022AA8763963B
:103C9000070EB717008083C7079A850713F7F70F3A
:103CA000B71700802380E79A832544FA032584FA16
:103CB000EFF05FC6AA873E87B717008023A2E79A76
:103CC000EFF01FC9AA873E87B717008023AEE79899
:103CD000B717008083A7479A130704FC2946BA85C3
:103CE0003E85EF502000930704FCBE85B707008097
:103CF0001385877BEF50C019B70700801385877B3A
:103D0000EF50002EAA873E87B70700809387877BF6
:103D1000BA97130730042380E700A3800700B71782
:103D2000008083A7479A858B8DC7B70700801385CE
:103D3000877BEF50E02AAA873E87B70700809387EA
:103D4000877BBA971307B0022380E700A3800700A0
:103D5000F1A8B70700801385877BEF506028AA87FA
:103D60003E87B70700809387877BBA971307D002F7
:103D70002380E700A380070055A8832744FA3E86E6
:103D8000B7A701209385472A032584FAEF502029FD
:103D9000814785AB0325C4FAEF4070632A8783A768
:103DA000C1856305F702B71700802380079A0327B0
:103DB00084FAB7A701209387472BBE86BD473E866E
:103DC000B6853A85EF405072FD5725ABEF2070075E
:103DD000AA873E8783A781851D8F8967938707718F
:103DE00063FBE702B71700802380079A032784FA52
:103DF000B7A701209387472CBE86E1473E86B6854C
:103E00003A85EF40706E37D79A3B130707A023AC73
:103E1000E1848147FDA1B717008083C7079A850712
:103E200013F7F70FB71700802380E79AB7170080C2
:103E300003C7079AA54763F3E714832784FA37A7D4
:103E400001201307C72D834E0700034E17000343BD
:103E50002700834837000348470003455700834540
:103E60006700034677008346870003479700238057
:103E7000D701A380C70123816700A3811701238293
:103E80000701A382A7002383B700A383C70023846D
:103E9000D700A384E700EFF0BFABAA873E87930764
:103EA00004FB2946BE853A85EF40D063930704FBA7
:103EB000BE85B70700801385877BEF40707DB7070D
:103EC00000801385877BEF50A011AA873E87B70734
:103ED00000809387877BBA97130710042380E7003D
:103EE000A3800700B717008083A7479A858B8DC7EB
:103EF000B70700801385877BEF50800EAA873E8727
:103F0000B70700809387877BBA971307D002238077
:103F1000E700A380070025A0B70700801385877BF3
:103F2000EF50000CAA873E87B70700809387877BF6
:103F3000BA971307B0022380E700A3800700B707F2
:103F400000801385877BEF50A009AA873E87B707BB
:103F500000809387877BBA9735472380E7002947FE
:103F6000A380E70023810700B70700809385877B44
:103F7000032584FAEF40D071854761A6EFF05F9D7D
:103F80002A879307803EB377F7022326F4FEEFF0EB
:103F90003F9C2A879307803EB377F7022324F4FEE1
:103FA0000327C4FE832784FE635EF7008327C4FED5
:103FB0002322F4FE832784FE2326F4FE832744FE77
:103FC0002324F4FEEFF0DF982A879307803EB3772F
:103FD000F7022320F4FE130600048145138541B443
:103FE000EF409060130600048145138541B8EF400F
:103FF000B05F130600048145138541BCEF40D05EDD
:104000002946938541B40325C4FEEF40B04D2946AF
:10401000938541B8032584FEEF40D04C2946938513
:1040200041BC032504FEEF40F04BB717008003A707
:10403000C7999357F741F9833E970D8BB307F74024
:1040400005476381E70405476344F70089CBD5A89A
:1040500009476382E7060D47638DE708DDA09307F4
:1040600004FD37776D001307375798C30327C4FE45
:10407000832784FE3E97832704FE3367F70223AE2F
:10408000E184E9A8930704FD37776F6413070727D6
:1040900098C33767740013075737D8C30327C4FE84
:1040A000832784FE3307F702832704FE3367F70272
:1040B00023AEE18465A0930704FD37A70120130711
:1040C000872E1043544390C3D4C383568700239450
:1040D000D7000347A7002385E7000327C4FE8327F3
:1040E00084FE1D8F832704FE3367F70223AEE1842D
:1040F000B5A0930704FD37A701201307472F0C43F2
:10410000504314478CC3D0C394C78356C70023962B
:10411000D7000347E7002387E7000327C4FE832770
:10412000C4FE3307F702832684FE832784FEB38709
:10413000F6023E97832704FE3367F70223AEE1843D
:1041400031A8832744FA3E86B7A7012093854730DC
:10415000032584FAEF40B06C814765A2138541B412
:10416000EFF05F83138541B8EFF0DF82138541BC28
:10417000EFF05F82032784FAB7A701209387073205
:10418000BE86B5473E86B6853A85EF40F035930743
:1041900004FDBE85032584FAEF40904F032584FA81
:1041A000EF401064AA873E87832784FABA9737A71F
:1041B0000120130707330345070083451700034613
:1041C000270083463700034747002380A700A380CA
:1041D000B7002381C700A381D7002382E70093851E
:1041E00041B4032584FAEF40B04A032584FAEF4036
:1041F000305FAA873E87832784FABA9737A70120C2
:10420000130787330345070083451700034627003C
:1042100083463700034747002380A700A380B700E9
:104220002381C700A381D7002382E700938541B88B
:10423000032584FAEF40D045032584FAEF40505A15
:10424000AA873E87832784FABA9737A701201307E6
:10425000073403430700834817000348270003453A
:1042600037008345470003465700834667000347EE
:10427000770023806700A380170123810701A381B2
:10428000A7002382B700A382C7002383D700A3839C
:10429000E700938541BC032584FAEF40703F032576
:1042A00084FAEF40F053AA873E87832784FABA97AF
:1042B00037A70120834587349306873403C6160049
:1042C0009306873483C626001307873403473700D5
:1042D0002380B700A380C7002381D700A381E70014
:1042E000B717008083A7C79913D71740B717008067
:1042F00023AEE798EF20E034AA873E8723ACE18421
:1043000081473E85F640664425618280797106D6F4
:1043100022D40018232EA4FC232604FE0327C4FD68
:104320008547630CF7000945EF40E0500545EF4035
:10433000005B0145EF40A05A05A88327C4FE858B8A
:1043400099EB0945EF40A0590545EF40C04E0145A6
:10435000EF40E05811A80945EF4060580545EF408F
:1043600000580145EF40204D1305803EEF204001ED
:104370008327C4FE85072326F4FE4DB7011106CE20
:1043800022CC0010014693052003B7A70120138516
:10439000873CEF30B075014693052003B7A7012095
:1043A0001385873DEF309074014693052003B7A72E
:1043B00001201385C73FEF3070730146930520033A
:1043C000B7A7012013858740EF305072014693054F
:1043D0002003B7A7012013854742EF303071014613
:1043E00093052003B7A7012013858743EF30107092
:1043F0008145B7A7012013858744EF40A002B7A7E6
:10440000012013850746EF30307E232604FE25A0C9
:104410000545EF4040421305401FEF1070760545FB
:10442000EF40E04B1305401FEF1090758327C4FE4B
:1044300085072326F4FE0327C4FE9D47E3DAE7FC45
:104440000100F240624405618280411106C622C427
:104450000008B7A7012013860746930500021385BD
:1044600041C0EF402002B7A701201385074A312041
:104470000100B240224441018280797106D622D4E3
:104480000018232EA4FC938741C22326F4FE930533
:1044900000200325C4FDEF40D03AAA872324F4FE70
:1044A0000325C4FDEF30A05C13060002B7A701206E
:1044B0009385474C0325C4FEEF4070361306000277
:1044C000B7A701209385474D0325C4FEEF40401454
:1044D0002326A4FE29468325C4FE032584FEEF403F
:1044E000700013060002B7A701209385874D0325AE
:1044F000C4FEEF40E0112326A4FE8325C4FD1385EE
:1045000041C2EF3030720100B250225445618280C6
:10451000797106D622D40018232EA4FC232CB4FCD7
:10452000232404FE232604FE232204FE832784FD85
:10453000BE85B7A701201385C74DEF409030AA87ED
:104540002326F4FE0326C4FEB7A701209385C74D9A
:104550000325C4FDEF406014AA8799C38147E9A0F1
:104560008327C4FE2324F4FE832784FE0327C4FD8F
:10457000BA9703C70700930750046319F7008147F0
:1045800065A08327C4FE85072326F4FE8327C4FE87
:104590000327C4FDBA9703C707009307A003E312DC
:1045A000F7FE8327C4FE0327C4FDBA9723800700C4
:1045B000832784FE0327C4FDBA973E85EF40206120
:1045C000AA87FD172322F4FE8327C4FE8507232430
:1045D000F4FE032784FD832744FE63C6E700832798
:1045E00084FDFD1719A0832744FE2322F4FE032730
:1045F00084FE832744FEBA972326F4FE832784FE95
:104600000327C4FDBA97032744FE3A86BE850325D7
:10461000C4FDEF40C078832744FE0327C4FDBA974A
:1046200023800700832744FE3E85B2502254456113
:104630008280797106D622D40018232EA4FC23226E
:1046400004FEEF103061B717008083A7079B91E34A
:10465000BD2CB717008003A7479C8327C4FDF98FA3
:10466000639D07168327C4FD9DC7C1470327C4FD6B
:10467000BA97232EF4FC8327C4FDBD8B89CF8327F3
:10468000C4FDC19BC107232EF4FC8327C4FDBD8B51
:1046900099C3EF4020458327C4FD63800714B717F3
:1046A000008083A7479B0327C4FD63E8E712B71781
:1046B00000809387879A2324F4FEB717008093879E
:1046C000879A9C432326F4FE11A88327C4FE232443
:1046D000F4FE8327C4FE9C432326F4FE8327C4FEF6
:1046E000DC430327C4FD63F6E7008327C4FE9C4335
:1046F000E9FFB717008083A7079B0327C4FE630E5B
:10470000F70C832784FE9843C147BA972322F4FE0F
:104710008327C4FE9843832784FE98C38327C4FE5F
:10472000D8438327C4FD1D8FC147860763F0E70484
:104730000327C4FE8327C4FDBA972320F4FE8327F2
:1047400004FEBD8B99C3EF40E0398327C4FED843F4
:104750008327C4FD1D8F832704FED8C38327C4FE8F
:104760000327C4FDD8C3032504FE9D2CB717008082
:1047700003A7479B8327C4FEDC431D8FB717008028
:1047800023AAE79AB717008003A7479BB7170080B3
:1047900083A7879B637AF700B717008003A7479B1F
:1047A000B717008023ACE79A8327C4FED843B71716
:1047B000008083A7479C5D8F8327C4FED8C38327CF
:1047C000C4FE23A00700B717008083A7C79B1387E9
:1047D0001700B717008023AEE79AEF10D049832760
:1047E00044FE99E3EF40002E832744FEBD8B99C31E
:1047F000EF40402F832744FE3E85B250225445614E
:104800008280797106D622D40018232EA4FC832737
:10481000C4FD2326F4FE8327C4FDCDC7C147B307DB
:10482000F0400327C4FEBA972326F4FE8327C4FE74
:104830002324F4FE832784FED843B717008083A780
:10484000479CF98F99E3EF40E029832784FE9C433E
:1048500099C3EF402029832784FED843B7170080EF
:1048600083A7479CF98FB9CF832784FE9C43B9EB7C
:10487000832784FED843B717008083A7479C93C73C
:10488000F7FF7D8F832784FED8C3EF10B03C8327CA
:1048900084FED843B717008083A7479B3E97B7177E
:1048A000008023AAE79A032584FE1D2AB7170080FB
:1048B00083A7079C13871700B717008023A0E79CE6
:1048C000EF10703B0100B25022544561828001110B
:1048D00022CE00108D67938747A92324F4FEB717D3
:1048E00000809387C7D52326F4FE8327C4FEBD8BA3
:1048F0009DC78327C4FEBD072326F4FE8327C4FE7D
:10490000C19B2326F4FE032784FE8327C4FE1D8F4C
:10491000B71700809387C7D5BA972324F4FE83275F
:10492000C4FE2322F4FEB71700809387879A0327DB
:1049300044FE98C3B71700809387879A23A2070085
:10494000832744FE032784FEBA972326F4FEC1473B
:104950000327C4FEB307F7402326F4FE8327C4FED3
:10496000C19B2326F4FE0327C4FEB717008023A8AB
:10497000E79AB717008083A7079B23A20700B71702
:10498000008083A7079B23A00700832744FE2320E2
:10499000F4FE832704FE0327C4FE1D8F832704FE35
:1049A000D8C3B717008003A7079B832704FE98C3CB
:1049B000832704FED843B717008023ACE79A8327E8
:1049C00004FED843B717008023AAE79AB7170080E0
:1049D0003707008023A2E79C0100724405618280B2
:1049E000797122D60018232EA4FCB7170080938774
:1049F000879A2326F4FE31A08327C4FE9C432326F6
:104A0000F4FE8327C4FE9C430327C4FDE3E6E7FED0
:104A10008327C4FE2324F4FE8327C4FEDC4303273C
:104A200084FEBA970327C4FD6310F7028327C4FEF0
:104A3000D8438327C4FDDC433E978327C4FED8C3F5
:104A40008327C4FE232EF4FC8327C4FD2324F4FE15
:104A50008327C4FDDC43032784FE3E978327C4FEDF
:104A60009C436316F7048327C4FE9843B71700805E
:104A700083A7079B6305F7028327C4FDD8438327D9
:104A8000C4FE9C43DC433E978327C4FDD8C38327E1
:104A9000C4FE9C4398438327C4FD98C339A8B71725
:104AA000008003A7079B8327C4FD98C339A08327F1
:104AB000C4FE98438327C4FD98C30327C4FE8327FD
:104AC000C4FD6307F7008327C4FE0327C4FD98C312
:104AD0000100325445618280797122D6001837C5B1
:104AE000000271152326A4FE37C500026115232498
:104AF000A4FE232E04FC732540F1232EA4FCB7480A
:104B000000020325C4FD0E05AA983715008023284E
:104B1000159D0325C4FE08412322A4FE032584FE1F
:104B200008412320A4FE0325C4FE0841832844FE37
:104B3000E391A8FE032544FE2A8F814F371500809C
:104B40002324E59D2326F59D37150080032F859CA2
:104B5000832FC59C931E0F00014E37150080232420
:104B6000C59D2326D59D032504FEAA870148371538
:104B70000080032E859C832EC59C33E3C701B3635D
:104B8000D801B717008023A4679C23A6779C9307BE
:104B90000002BE850146B717008003A3879C83A34C
:104BA000C79CB38765003E853335B5003308760072
:104BB000330605013288371600802324F69C23260D
:104BC000069DB717008003A6079DB717008003A8AE
:104BD000C79C83A7879C1CC223220601930700025F
:104BE000BE860147B717008083A5879C03A6C79C94
:104BF000B387B6003E853335D5003308C700330789
:104C000005013A88371700802324F79C2326079D47
:104C10000100325445618280011106CE22CC001081
:104C2000232604FEF32750302326F4FE8327C4FEF8
:104C30008D8B99C3EF30106B83A70186BD8B99C311
:104C4000EF30506AEFF05FE985679387078873A0BC
:104C500047307D2481473E85F24062440561828071
:104C60000000000000000000000000000000000044
:104C70000000000000000000000000000000000034
:104C80000000000000000000000000000000000024
:104C90000000000000000000000000000000000014
:104CA0000000000000000000000000000000000004
:104CB00000000000000000000000000000000000F4
:104CC00000000000000000000000000000000000E4
:104CD00000000000000000000000000000000000D4
:104CE00000000000000000000000000000000000C4
:104CF00000000000000000000000000000000000B4
:104D0000130181F806C216C41AC61EC822CA26CCD0
:104D10002ACE2ED032D236D43AD63ED842DA46DC2B
:104D20004ADECEC0D2C2D6C4DAC6DEC8E2CAE6CCFB
:104D3000EACEEED0F2D2F6D4FAD6FED8F322003084
:104D400096DA97C2FE5F83A222C923A022007325B0
:104D50002034F32510341356F50135C62EC09302C6
:104D60001000FE02138372006317650497C2FE5F92
:104D700083A242C603A34186FD5E83230300032E64
:104D8000430023A0D20123A2C20123A0720083A268
:104D90008186B38E720033BF7E00B30FEE012320F5
:104DA000D3012322F30103A10186EF10700B21C16F
:104DB000EF1010272DA811036318650203A10186C7
:104DC000EF30B0562DA091052EC0AD4263175500AF
:104DD00003A10186EF10D02419A8F32220347323F5
:104DE0001034F3230030D5BFF3222034F5BF17C3AE
:104DF000FE5F032363BE03210300824273901234DB
:104E0000D652739002309240A2423243C24352447F
:104E1000E244724582551256A2563257C257525832
:104E2000E25872598649164AA64A364BC64B564C2A
:104E3000E64C764D865D165EA65E365FC65F130154
:104E400081077300203013000000130000001300DE
:104E50000000130000001300000013000000130006
:104E600000001300000013000000130000001300F6
:104E700000001300000013000000130000001300E6
:104E800000001300000013000000130000001300D6
:104E900000001300000013000000130000001300C6
:104EA00000001300000013000000130000001300B6
:104EB00000001300000013000000130000001300A6
:104EC0000000130000001300000013000000130096
:104ED0000000130000001300000013000000130086
:104EE0000000130000001300000013000000130076
:104EF0000000130000001300000013000000010078
:104F000097020000938202E07390523017C1FE5F57
:104F1000032181AC02418240D652A102739002303B
:104F2000A2423243C2435244E24472458255125671
:104F3000A2563257C2575258E25872598649164AF9
:104F4000A64A364BC64B564CE64C764D865D165EF1
:104F5000A65E365FC65F13018107828013000000E2
:104F600013000000130000001300000013000000F5
:104F700013000000130000001300000013000000E5
:104F800013000000130000001300000013000000D5
:104F900013000000130000001300000013000000C5
:104FA00013000000130000001300000013000000B5
:104FB00013000000130000001300000013000000A5
:104FC0001300000013000000130000001300000095
:104FD0001300000013000000130000001300000085
:104FE0001300000013000000130000001300000075
:104FF0001300000013000000130000001300000065
:10500000F3220030130380181203B3E2620071151B
:1050100023205500130585FA10C121152320050012
:105020009302000063870200711523200500FD1222
:10503000D5BF71150CC18280000000000000000087
:105040000000000000000000000000000000000060
:10505000011122CE00102326A4FE8327C4FE13874D
:1050600087008327C4FED8C38327C4FE7D5798C713
:105070008327C4FE138787008327C4FED8C78327EE
:10508000C4FE138787008327C4FE98CB8327C4FE02
:1050900023A007000100724405618280011122CE25
:1050A00000102326A4FE8327C4FE23A807000100C6
:1050B000724405618280797122D60018232EA4FCE7
:1050C000232CB4FC8327C4FDDC432326F4FE832772
:1050D00084FD0327C4FED8C38327C4FE98478327D3
:1050E00084FD98C78327C4FE9C47032784FDD8C34B
:1050F0008327C4FE032784FD98C7832784FD0327E5
:10510000C4FD98CB8327C4FD9C43138717008327D6
:10511000C4FD98C30100325445618280797122D662
:105120000018232EA4FC232CB4FC832784FD9C436D
:105130002324F4FE032784FEFD576318F70083271A
:10514000C4FD9C4B2326F4FE25A08327C4FDA107A4
:105150002326F4FE31A08327C4FEDC432326F4FE7D
:105160008327C4FEDC439C43032784FEE375F7FEDC
:105170008327C4FED843832784FDD8C3832784FDB7
:10518000DC43032784FD98C7832784FD0327C4FEDF
:1051900098C78327C4FE032784FDD8C3832784FDD3
:1051A0000327C4FD98CB8327C4FD9C4313871700B6
:1051B0008327C4FD98C30100325445618280797110
:1051C00022D60018232EA4FC8327C4FD9C4B232643
:1051D000F4FE8327C4FDDC430327C4FD184798C7AA
:1051E0008327C4FD9C470327C4FD5843D8C38327A6
:1051F000C4FEDC430327C4FD6318F7008327C4FD06
:1052000098478327C4FED8C38327C4FD23A807007B
:105210008327C4FE9C431387F7FF8327C4FE98C3EC
:105220008327C4FE9C433E85325445618280797158
:1052300006D622D40018232EA4FC232CB4FC8327EA
:10524000C4FD2326F4FE8327C4FE99E3EF309009C2
:10525000EF10F0718327C4FE98438327C4FED45F08
:105260008327C4FEBC43B387F6023E978327C4FE60
:1052700098C78327C4FE23AC07028327C4FE984344
:105280008327C4FED8C38327C4FE98438327C4FE64
:10529000DC5F9386F7FF8327C4FEBC43B387F60227
:1052A0003E978327C4FED8C78327C4FE7D57238239
:1052B000E7048327C4FE7D57A382E704832784FD88
:1052C00085E38327C4FE9C4B8DCB8327C4FEC10797
:1052D0003E85EF106071AA878DC37300000031A86E
:1052E0008327C4FEC1073E85EFF09FD68327C4FE07
:1052F000938747023E85EFF0BFD5EF10706A854770
:105300003E85B250225445618280797106D622D4FE
:105310000018232EA4FC232CB4FCB287A30BF4FCAE
:105320008327C4FD99E3EF30E07B832784FD81E789
:10533000232604FE09A80327C4FD832784FDB307A1
:10534000F7022326F4FE8327C4FE938787043E8555
:10535000EFF02FAE2324A4FE832784FE9DC783276E
:1053600084FE2322F4FE832744FE938787042322AE
:10537000F4FE834774FD032784FEBE86032644FEA5
:10538000832584FD0325C4FD0128832784FE3E85F3
:10539000B250225445618280797106D622D4001819
:1053A0002326A4FE2324B4FE2322C4FEB687232E84
:1053B000E4FCA301F4FE832784FE99E78327C4FD60
:1053C0000327C4FD98C331A08327C4FD032744FEEF
:1053D00098C38327C4FD0327C4FED8DF8327C4FDF9
:1053E000032784FEB8C385450325C4FDEFF03FE4E1
:1053F0000100B250225445618280011106CE22CCB8
:1054000000102326A4FE8327C4FE9DC38327C4FE69
:1054100023A407008327C4FE23A007008327C4FE1C
:1054200023A607008146014681450325C4FEB92015
:105430000100F240624405618280797106D622D46F
:105440000018AA87A30FF4FC85472326F4FE232423
:1054500004FE8347F4FD3E86832584FE0325C4FEB7
:10546000EFF0BFEA2322A4FE032544FE7937832709
:1054700044FE3E85B250225445618280397106DE79
:1054800022DC80002326A4FC2324B4FC2322C4FCB9
:105490002320D4FC232604FE8327C4FC2324F4FE0B
:1054A000832784FE99E3EF30E063832784FC89E758
:1054B000832784FEBC4399E3854711A0814799E384
:1054C000EF304062032704FC89476318F700832705
:1054D00084FED85F85476314F700854711A0814794
:1054E00099E3EF302060EF109009AA8781E78327C6
:1054F00044FC99E3854711A0814799E3EF30805E32
:10550000EF10F046832784FE985F832784FEDC5FDC
:105510006367F700032704FC89476315F704032634
:1055200004FC832584FC032584FEEF0060752322A0
:10553000A4FE832784FEDC5389CF832784FE9387D0
:1055400047023E85EF10404AAA8789CB73000000CE
:1055500031A0832744FE99C373000000EF1050442C
:105560008547D1A8832744FC89E7EF107043814722
:10557000D9A08327C4FE89EB9307C4FD3E85EF10B5
:10558000005485472326F4FEEF109041EF00906C05
:10559000EF10F03D832784FE83C7470413978701EC
:1055A0006187FD576316F700832784FE2382070473
:1055B000832784FE83C75704139787016187FD57AC
:1055C0006316F700832784FEA3820704EF10503D83
:1055D000130744FC9307C4FDBA853E85EF100051C4
:1055E000AA87B9E3032584FEEF007012AA8795C746
:1055F000832784FEC107032744FCBA853E85EF104C
:105600004035032584FEEF00F000EF00D066AA8746
:10561000E39807EE73000000E5B5032584FEEF0074
:10562000607FEF005065E9BD032584FEEF00807EBA
:10563000EF00706481473E85F250625421618280A0
:10564000797106D622D40018232EA4FC232CB4FC96
:10565000232AC4FC2328D4FC8327C4FD2324F4FE7E
:10566000832784FE99E3EF30E047832784FD89E7B1
:10567000832784FEBC4399E3854711A0814799E3C2
:10568000EF304046032704FD89476318F70083275E
:1056900084FED85F85476314F700854711A08147D2
:1056A00099E3EF302044232204FE832784FE985F91
:1056B000832784FEDC5F6367F700032704FD8947C7
:1056C0006319F706832784FE83C75704A301F4FEFA
:1056D000032604FD832584FD032584FE552303074B
:1056E00034FEFD576317F702832784FEDC5395CF02
:1056F000832784FE938747023E85EF10E02EAA871A
:105700008DC7832744FD95C3832744FD054798C370
:1057100029A8834734FE850793F7F70F139787016E
:105720006187832784FEA382E70485472326F4FE4E
:1057300019A0232604FE8327C4FE3E85B2502254BE
:1057400045618280397106DE22DC80002326A4FCBC
:105750002324B4FC2322C4FC232604FE8327C4FC98
:105760002324F4FE832784FE99E3EF30A0378327B8
:1057700084FC89E7832784FEBC4399E3854711A015
:10578000814799E3EF300036EF10605FAA8781E729
:10579000832744FC99E3854711A0814799E3EF30C3
:1057A0006034EF10D01C832784FE9C5F2322F4FE1C
:1057B000832744FE9DCF832584FC032584FEF523A7
:1057C000832744FE1387F7FF832784FE98DF832710
:1057D00084FE9C4B99CB832784FEC1073E85EF1046
:1057E000A020AA8799C373000000EF10701B8547A3
:1057F000E9A8832744FC89E7EF10901A8147F1A0BC
:105800008327C4FE89EB9307C4FD3E85EF10202B50
:1058100085472326F4FEEF10B018EF00B043EF10D9
:105820001015832784FE83C7470413978701618778
:10583000FD576316F700832784FE2382070483271E
:1058400084FE83C75704139787016187FD5763164A
:10585000F700832784FEA3820704EF107014130758
:1058600044FC9307C4FDBA853E85EF102028AA8723
:10587000A9E3032584FE8D25AA8795C7832784FE87
:1058800093874702032744FCBA853E85EF10600CDE
:10589000032584FE4123EF00103EAA87E39307F01F
:1058A00073000000FDBD032584FEAD23EF00B03C76
:1058B000CDBD032584FEB92BEF00F03B032584FE0C
:1058C000212DAA87E38F07EC81473E85F250625471
:1058D00021618280397106DE22DC80002326A4FC4F
:1058E0002324B4FC232604FE8327C4FC2322F4FED5
:1058F000232404FE832744FE99E3EF30A01E832770
:1059000044FEBC4399C3EF30E01DEF104047AA8727
:1059100081E7832784FC99E3854711A0814799E3B8
:10592000EF30401CEF10B004832744FE9C5F23201F
:10593000F4FE832704FEA1C7832704FE1387F7FF25
:10594000832744FE98DF832744FE9C4399E7EF10AA
:1059500050092A87832744FE98C7832744FE9C4B1F
:1059600099CB832744FEC1073E85EF10E007AA8745
:1059700099C373000000EF10B002854735A283275A
:1059800084FC91EB832784FE99C3EF30A015EF10C0
:105990003001814711AA8327C4FE89EB930744FD98
:1059A0003E85EF10C01185472326F4FEEF10407F9F
:1059B000EF00502AEF10A07B832744FE83C74704E3
:1059C000139787016187FD576316F700832744FE0D
:1059D00023820704832744FE83C757041397870154
:1059E0006187FD576316F700832744FEA3820704EF
:1059F000EF10007B130784FC930744FDBA853E85B6
:105A0000EF10C00EAA87ADE3032544FEF121AA875B
:105A1000B1C7832744FE9C4389EFEF10407583276D
:105A200044FE9C473E85EF1020392324A4FEEF104E
:105A30002077832744FE93874702032784FCBA8597
:105A40003E85EF001071032544FEE926EF00B022E9
:105A5000AA87E39907EC73000000E9B5032544FE2B
:105A6000552EEF0050217DBD032544FE6526EF0035
:105A70009020032544FE8D21AA87E38507EA83272A
:105A800084FE95C3EF10A06E032544FE7D2A232ECD
:105A9000A4FC832744FE9C478325C4FD3E85EF106C
:105AA0000058EF10E06F81473E85F250625421614B
:105AB0008280397106DE22DC80002326A4FC2324A8
:105AC000B4FC2322C4FC232604FE8327C4FC232425
:105AD000F4FE832784FE99E3EF30C000832784FC23
:105AE00089E7832784FEBC4399E3854711A081475A
:105AF00099E3EF20307FEF108028AA8781E7832782
:105B000044FC99E3854711A0814799E3EF20907DFC
:105B1000EF10E065832784FE9C5F2322F4FE832739
:105B200044FEB9C3832784FEDC472320F4FE83258B
:105B300084FC032584FE952C832784FE032704FE22
:105B4000D8C7832784FEDC5381CF832784FE9387C5
