:020000042001D9
:100000009711FF5F938181289702000093828205F8
:100010007390523093020000638402007350107C8E
:100020001701FFDF130101FE9700FFDF938080FDC2
:10003000638300008290732540F1814501461528B5
:100040009700FFDF938000FC63830000829097029B
:1000500000009382C2007390523003230000F5BF6A
:10006000F322203473231034F3233034D5BF82803D
:10007000828006849711FF5F938141211731FF5FD2
:100080001301C18F8142130300406385A2001A91BE
:100090008502E5BF137101FF93020000631B550841
:1000A00097620000938202CD1703FF5F130383F56D
:1000B00093830185638C6200635A730003A5020079
:1000C00091022320A3001103E34A73FE976200000C
:1000D000938242CA1703FFE71303C3F29703FFE7B4
:1000E000938343F2638C6200635A730003A502009A
:1000F00091022320A3001103E34A73FE0F100000B6
:100100001713FF5F1303839D9723FF5F93830347B9
:1001100063577300232003001103E34D73FE11C2E4
:10012000029617350000130565ADEF20D028EF20AB
:1001300030303D3FF32710303707010013078702A7
:10014000F98F89CBF32700300967D98F7390073077
:10015000735030000545975500009385A51A175632
:1001600000001306661A3120EF205026A2808280FC
:100170008280411106C2F32240F11303000063851F
:10018000620073005010F5BFA528924041018280A3
:1002000079713705680006D622D44AD04ECE26D260
:1002100052CC56CA5AC85EC662C466C26AC0E524D9
:1002200037052000D92CEF00607571651305052096
:1002300037343101CD24130504D0EF00C0723705E7
:100240002000D1245165130505882D26375501203E
:10025000130585F7492E130504D0EF00C07037054C
:100260002000612C37550120130545F8EF10A04FF1
:10027000375501201305C5FEEF10E04E375501201C
:1002800013054500EF10204E3755012013050503D7
:10029000EF10604D3755012013058509EF10A04C74
:1002A0003755012013054510EF10E04B375501205D
:1002B000130545120D2E130504D0EF00C06A370553
:1002C000200091243755012013054513292E371995
:1002D000008085651305894EC921130504D0EF0000
:1002E000806837052000112C37550120130585152E
:1002F000DD2C130504D0EF00006737052000212412
:100300003755012013054517F92C130504D0EF00CC
:10031000806537052000C52A37550120130545188B
:10032000D924130504D0EF00006437052000F12222
:10033000130504D0EF00206337052000E9221305E0
:1003400004D0EF00406237052000452A130504D091
:10035000EF006061370520007D22130504D0EF0017
:10036000806037052000512A375501201305C51933
:10037000EF10603F375501201305851BEF10A03E9D
:10038000130404D0B759012085651305894E312126
:10039000AA842285C92B9385C9D92685EF10A07020
:1003A00065D537052000852237050800B9223714A6
:1003B0000080B75401208565930610041386C4EBB2
:1003C00093850580130584AEEF10E03D130584AEE0
:1003D000192CB75501209385C51D130584AEEF1068
:1003E0008061130584AEB7393101376A6202E52AAC
:1003F000938909D0375C0120375B0120B75C01206D
:10040000B75B0120375D0120130A0AA04E85A12B9E
:1004100085651305894E512693054CD2AA8AEF10A3
:10042000A04B01E552858123D5B703C70A00930786
:100430003004E309F7FE93050B225685EF10006A9E
:1004400093050B220145EF106069AA85AA8A1385DE
:100450004C22EF10001F5685EF002078FD576319DE
:10046000F502856593850580B1461386C4EB1305B7
:1004700084AEEF104033130584AEB52293050D23EF
:10048000130584AEEF102057130584AEA92ABDBF13
:100490008547E31DF5F6856A1386C4EB93850A80CC
:1004A00093061002130584AEEF10E02F130584AEFF
:1004B0001D2A9306200813860B2493850A801305B2
:1004C00084AEEF10402EC9B7F165371500809385D3
:1004D0000520130585A46F2010143705008013052F
:1004E00005096F30B05FB725F400370500809385AC
:1004F0000540130505096F402069372701101C4787
:100500005D8D08C78280B727011098471345F5FF16
:10051000798D88C78280411122C426C206C6B727BA
:10052000011023AE0702985FB706030037340110AD
:10053000558F98DF2324040023260400AA840D216C
:10054000335595028547B24092447D1508CC1CC4B2
:100550005CC4224441018280374702109307F00FA8
:100560006847E3EFA7FE1375F50F82800965130551
:100570000571D5AE411122C4372401101C5C06C69A
:1005800026C24AC093F7F7BF1CDC5C403749021013
:10059000AA8493E707405CC023200906B707080038
:1005A0002320F904FD57232AF900232C0900894749
:1005B0002328F90075268604B354950213054006D6
:1005C000FD1423209900452613054006232E04021E
:1005D000592E1C5CB240924493E787231CDC2244D2
:1005E000024941018280B75501203971130600107C
:1005F000938585DA26DA06DE22DC4AD84ED652D436
:1006000056D25AD05ECEAA84EF10E04411E903C757
:10061000D4009307A0026305F7002685EF1060025F
:100620002685EF10603E37140080032784AD89478C
:100630002A8A130484AD6314F70023200400B755FD
:1006400001209385C5DA2685EF100029631D05106A
:1006500085471CC03755012089470147814601461F
:100660008945130545DC3EC60149EF00907DB74939
:100670000210130BF00F914A83A78904E36EFBFE6F
:100680007C00CA9783C70700050923A4F904E9354C
:10069000E31459FFE13D37190080832789A8884773
:1006A000EF005025372701101C4393F70740EDDF7B
:1006B00093567A00A306D100916793F6F60F13764E
:1006C000FA07938707109395760037550120231773
:1006D000F100014793071004B2951305C5DF230607
:1006E000C1008149EF00F075B74A0210930BF00F7B
:1006F000114B83A78A04E3EEFBFE7C00CE9783C7F1
:100700000700850923A4FA04813DE39469FFB93DFC
:10071000832789A88847EF00F01D372701101C4365
:1007200093F70740EDDF8149B74A0210130BF00F32
:1007300063183A05253D1C4081EF832789A8884727
:10074000EF00501B372701101C4393F70740EDDFE4
:10075000F2506254D2544259B259225A925A025B10
:10076000F24B21618280B75501209385C5DB268538
:10077000EF108016E31005EE89471CC00D4AD9BD65
:1007800003A78A04E36EEBFE3387340103470700B7
:10079000850923A4EA04C93361BF397122DC4AD830
:1007A0004ED652D456D25AD05ECE62CC06DE26DA6F
:1007B00066CA6AC82A84AE8923140100A305010011
:1007C000054BB75B012037490210371A0080375CB0
:1007D0000120B75A0120014781460146854513850E
:1007E000CBD25AC68144EF00D065130DF00F914C67
:1007F00083278904E36EFDFE7C00A69783C707006C
:1008000085042324F904893BE39494FF85338327EB
:100810008AA88847EF00100E372701101C4393F772
:100820000740EDDF8144130DF00F914C83278904BD
:10083000E36EFDFE2324090405333C00A6972380C4
:10084000A7008504E39494FF0347B10093072004B5
:100850006306F704B72701109C4393F70740A5FFF1
:10086000B7540120938504D22285EF10E006630679
:10087000050EB7550120938545D92285EF10A0229A
:100880004DE1B75501209385C5D92285EF10A021F0
:1008900049E937540120130444D261A083449100F4
:1008A000834781009E04BE94D13113062004A6859F
:1008B00013058CD6EF00F05883278AA88847EF00ED
:1008C0007003372701101C4393F70740EDDF814C7D
:1008D000130DF00F63849C0063943C0763FC3403A6
:1008E000B3079400238007008D4763F59702814783
:1008F0003546930500022945F9143307F400834671
:1009000007006384C6006394A6002300B700850730
:10091000E3E597FEA13993858AD82285EF10A018C8
:1009200015D92285F2506254D2544259B259225AF2
:10093000925A025BF24B624CD24C424D2161828052
:1009400003278904E36EEDFE232409043131B30744
:1009500094012380A700850CB5BF138404D2D1B7BE
:1009600037D512138280411102C6B24763E4A70053
:1009700041018280B24785073EC6C5BF4111B70716
:10098000020022C406C637840010938717671CC470
:100990001305803EC93F1C441C444167B240D98FB7
:1009A0001CC42244410182803787B8EDAA95FD57C7
:1009B000130707326395A50013C5F7FF82808346AE
:1009C0000500B58FA14613D61700858BB307F040FD
:1009D000F98FFD16B18FE5FA0505E9BF011126CAA9
:1009E00052C4B71400802E8AB7550120938545E67E
:1009F00022CC2A84138584AE06CE4AC84EC6EF00A8
:100A0000907F0D67938784AE13072703239DE7002C
:100A1000138584AE1309000393092003238637014D
:100A2000A38C2701238E27017D3E3795980013055F
:100A30000568153F528681452285EF00D01CD2857E
:100A40002285A13B8344D400F54763F8970603470A
:100A5000A4019307A00201456319F7040347740238
:100A60006315270583478402639137058347940202
:100A7000639DE7020347A4026319F7021305D4003C
:100A8000A6851D372694014793060002B357E5005B
:100A90000346D40093F7F7039387E702631FF6003A
:100AA00021070504E314D7FE0545F2406244D24411
:100AB0004249B249224A056182800145FDB70111D0
:100AC00022CCB755012037140080938545E64EC6E9
:100AD000AA89130584AE06CE26CA4AC852C4EF00BE
:100AE0009071930484AE930710032386F4008D67FE
:100AF0001307000393872703130584AE239DF40097
:100B0000A38CE400238EE400F93C13060004930553
:100B10001004130584AEEF00100F9307C003238069
:100B2000F4000149130AB0034E85EF00F06D79150A
:100B30006374A90063154907130584AE9305C003C8
:100B4000A5359377F5039387E702238EF402935735
:100B5000850093F7F7039387E702A38EF402935778
:100B6000050193F7F70361819387E7021375F50396
:100B7000238FF4021305E5028567A38FA4029387F0
:100B8000D7A0130584AE62442390F40423810404A7
:100B9000F240D2444249B249224A0561A9B405094A
:100BA000B387290103C7F7FFB38724012380E70038
:100BB000A5BF411122C4B755012037140080130589
:100BC00084AE938585E806C6EF00F062130584AE17
:100BD0002244B24041016FF01FA15D71A2C413060F
:100BE000100456DA8145AA8A1385010686C6A6C274
:100BF000CAC04EDE52DC5AD85ED662D466D26AD003
:100C00006ECEEF005000B75501209385C5EA1385DD
:100C10000106EF00505E13850106EF00F05E371A03
:100C20000080375C0120056DAA861306CCEB930586
:100C30000D8013058AAEEF00103713058AAEEFF072
:100C40009F9A13850106EFF01F9A37050800EFF011
:100C50009F8B9305002013850106493393050004FB
:100C60002A8B5685EF00B05D2A89B79C9800913792
:100C700013850C68CD391947A28993840106D28B5C
:100C80006345270FB7550120938505ED13850106B0
:100C9000EF00705637353101130505D0E9313705BE
:100CA0000800EFF09F859D47B367F902014A0144B0
:100CB000B75C0120375D0120B75D01203309F940A1
:100CC000B7570120938747E33E8C63472A1937358E
:100CD0003101130505D0413937050800EFF0BF8217
:100CE00011E06D4413060020018E33858400B75552
:100CF00001207104938585F5A294EF0010522380A2
:100D00000400B7343101138504D0B1393705080028
:100D1000EFF0AFFEB75701208565A2861386C7EBBB
:100D20009385058013858BAEEF00F02713858BAE7E
:100D3000EFF07F8B13850106EFF0FF8A138504D057
:100D40001D3137050800EFF00FFC138504D0213961
:100D500037050800EFF06FFAA93D37050800EFF0FE
:100D6000CFF913850106A13BC1A805476302EB0635
:100D7000130610048145138501067125130600042E
:100D8000D68513850106EF005049E14763CB270163
:100D90001305E9FF6D463306264193052004269589
:100DA0009D2593070003A38CF4008D67938627038A
:100DB000938707E31307A002239DD400239EF4002A
:100DC000138501062386E400238FE400CD39D9B5CD
:100DD00013850106EF005043938D0106B75501209E
:100DE000938505EF6E95EF00104113850106EF0026
:100DF000B041AA861306CCEB93050D8013058AAE8D
:100E0000EF00701A13058AAEEFF0EFFD13850106AF
:100E1000EFF06FFD13850C68B93637050800EFF069
:100E2000CFED13058AAEEFF00FFC13850106EFF04E
:100E30008FFB13850C68053EB64026445A859644C0
:100E40000649F259625AD25A425BB25B225C925C0A
:100E5000025DF24D61618280B3874A0183C607005B
:100E6000B54733858400A296CA96B3864641B3E659
:100E7000F602AD4763E4D70A93972600E2979C43B6
:100E80008287B7550120938505F1EF00D0368D4656
:100E90009D47B367FA02C1EB33878400834707009D
:100EA00093F7F7FD2300F700369461A8B7550120AA
:100EB000938545F1EF0030349146D9BFB7550120F5
:100EC0009385C5F1D9B7B7550120938505F236C68C
:100ED000EF007032B2466DBFB7550120938545F2E1
:100EE0006DB7B7550120938585F245B7B7550120F9
:100EF0009385C5F259BF93850DF341BF93054DF31B
:100F000069B793858CF37DB7B7570120938507F4B4
:100F100055B7B7570120938587F469BFB7570120AC
:100F2000938507F541BF1947E390E7F8FD1636941E
:100F3000B387840035472380E70029470904A3804D
:100F4000E700050A59B383D7C500011122CC26CA90
:100F500006CE4AC84EC613F78700AA842E8465E7DA
:100F6000D8416347E000B8416344E0000145C1A0B7
:100F700058546DDF03A904009396370123A00400A1
:100F800063DE060668488357C400918B99C75C40AE
:100F90001D8D5C5899C33C401D8D5C540C502A86B5
:100FA000814626858297FD570357C400631DF500CF
:100FB0009440F54763E4D708B70740208507B3D7C7
:100FC000D700858BA5CF1C48232204001CC0931793
:100FD000370163D80700FD576314F5009C4091E387
:100FE00068C84C5823A02401D1D1930744046384DA
:100FF000F50026856D29232A04028DBF0C508546F5
:10100000014626850297FD57E31FF5F69C40A5DFB4
:1010100075476385E70059476395E70023A02401DE
:10102000B1B78357C40093E707042316F400F240D6
:101030006244D2444249B249056182801367070481
:101040002316E400EDB783A90501E38109F203A9A2
:1010500005008D8B23A0350133093941014791E308
:10106000D84918C4E35420F11C540C50CA864E864B
:1010700026858297634AA0008357C4007D5593E775
:1010800007042316F40065B7AA993309A940D9BF0C
:101090009C49B9CF011122CC06CE2A8411C51C4D22
:1010A00081E72EC62D22B245974700009387C71DC2
:1010B000639BF5004C408397C50095C72285624429
:1010C000F240056149B5974700009387E71D639497
:1010D000F5000C44CDB7974700009387E718E39CD1
:1010E000F5FC4C44C9BFF240624401450561828071
:1010F00001458280AA8519E99707FF5F9387479981
:101100008843970500009385E5F8F1A29707FF5FF4
:101110009387C7978843ADBF411122C406C62A846E
:101120002316B5002317C500232005002322050040
:10113000232405002322050623280500232A050071
:10114000232C0500214681451305C5056D2C970705
:1011500000009387E76C5CD0970700009387676F68
:101160001CD4970700009387A7735CD497070000EF
:101170009387677600D01CD8B24022444101828018
:1011800097050000938505F1B9A2411126C2130607
:1011900080069384F5FFB384C4024AC02E8922C41A
:1011A00006C693854407652E2A8419C923200500A5
:1011B00023222501310508C4138684068145A12414
:1011C0002285B240224492440249410182801C4D52
:1011D000BDE3411106C622C497070000938787FA32
:1011E0001CD59707FF5F9387A78A9C432324050498
:1011F00023260504232805046314F50085471CCD28
:101200002A841D2848C02285052808C422852D204F
:1012100048C4484001469145013708440546A54564
:10122000E53D48440946C945C53D85471CCCB2400B
:10123000224441018280828041119707FF5F93879A
:10124000278526C284434AC006C69C4C22C42A89EC
:1012500099E32685AD3F938484048044DC40FD17E8
:1012600063D607009C40B1CF8440C5BF0317C400BC
:1012700031E7C177850723220406232004002322B7
:101280000400232404005CC423280400232A04004F
:10129000232C0400214681451305C405AD22232AD1
:1012A0000402232C0402232404042326040422859C
:1012B000B2402244924402494101828013048406D0
:1012C00079BF91454A85D13588C02A8451FDB147FF
:1012D0002320F900E9BF797122D44AD052CC56CAF2
:1012E0005AC85EC606D626D24ECE2A8AAE8A1304C5
:1012F00085040149054BFD5B09ECB25022544A8537
:1013000092540259F249624AD24A424BB24B456169
:101310008280044483294400FD1963D409000040FD
:10132000E1BF83D7C400637BFB008397E40063873E
:101330007701A6855285829A3369A9009384840631
:10134000E1BF97F7FE5F93876774AA85884301AC76
:10135000B3C7A5008D8B3307C50081E78D4763EECA
:10136000C700AA876370E50A83C60500850785055F
:10137000A38FD7FEE3EAE7FE828093763500AA8743
:1013800091CA83C6050085078505A38FD7FE93F60E
:101390003700FDB79376C7FF138606FE63F0C706D6
:1013A00083A3050083A2450083AF850003AFC5007A
:1013B00083AE050103AE450103A3850183A8C501E2
:1013C0009385450223A0770003A8C5FF23A25700F9
:1013D00023A4F70123A6E70123A8D70123AAC70165
:1013E00023AC670023AE17019387470223AE07FFA4
:1013F00075B790419107910523AEC7FEE3EBD7FE89
:10140000E3E4E7F682803D432A876373C302937760
:10141000F700BDEFADE5937606FF3D8ABA960CC3A3
:101420004CC30CC74CC74107E36BD7FE11E2828067
:10143000B306C3408A069702000096966780A6000E
:101440002307B700A306B7002306B700A305B7001C
:101450002305B700A304B7002304B700A303B70014
:101460002303B700A302B7002302B700A301B7000C
:101470002301B700A300B7002300B700828093F5D3
:10148000F50F93968500D58D93960501D58D61B79F
:10149000939627009702000096968682E78086FA48
:1014A0009680C1171D8F3E96E374C3F8A5B7DDC5BE
:1014B00083A7C5FF411122C406C626C21384C5FFF7
:1014C00063D307003E94AA84EF00D02B97F7FE5F0A
:1014D000938707619C4391EF2322040097F7FE5FF7
:1014E00023A087602244B2402685924441016F00C8
:1014F0009029637EF40014403307D4006396E7001C
:101500009843DC43369718C05CC0C9BFBA87D8433C
:1015100019C3E37DE4FE94433386D700631F86003E
:101520001040B29694C33386D700E31DC7FA104328
:101530005843B29694C3D8C375B76375C400B14716
:101540009CC04DB71040B306C4006316D7001443C7
:101550005843B29614C058C0C0C369B78280011105
:1015600026CA93843500F19806CE22CC4AC84EC6CE
:10157000A104B14763F9F404B14463E8B4042A89CF
:10158000EF00502097F7FE5F9387875598433A8482
:1015900039E497F7FE5F9387E7549C4381EB8145DD
:1015A0004A85C92A97F7FE5F23AEA752A6854A85CA
:1015B000D122FD59631B3507B1472320F9004A8525
:1015C000EF00701C29A0E3DA04FAB1471CC1014501
:1015D000F2406244D2444249B249056182801C40D3
:1015E000858F63C10704AD4663F6F6001CC03E94C8
:1015F00004C001A85C406315870217F7FE5F232132
:10160000F74E4A85EF0030181305B40093074400E5
:1016100061993307F5404DDF3A94898F1CC04DBF67
:101620005CC3C5B722874040A5B713043500719845
:10163000E30085FCB305A4404A852D2AE31A35FB57
:10164000A5BF39713EDA2ED232D436D63AD842DC32
:1016500046DE97F7FE5F9387674322CC804326CA16
:1016600006CEAA8411C41C4C81E72285EFF03FB658
:101670000C4454102686228536C6EF100009F2402D
:101680006244D24421618280011126CA4AC806CE32
:1016900022CC4EC652C4AA842E8909C51C4D99E39A
:1016A000EFF0FFB29C4C804481E72685EFF03FB21B
:1016B00097470000938747BD631CF402C0408357DF
:1016C000C400A18BB1C71C48A1C7FD59294A1C44BD
:1016D00083450900FD17B1E91CC463DE07062286B5
:1016E000A9452685D929FD576308F502294535A066
:1016F00097470000938747BB6314F4008044C1B749
:1017000097470000938747B6E31BF4FAC04445BFF0
:10171000A28526854D2355D97D55F2406244D24499
:101720004249B249224A056182801CC4050963D737
:101730000700184C63CBE700638945011C40138701
:10174000170018C02380B70059B722862685B52117
:10175000E31F35F7D1B71C401387170018C029477E
:101760002380E70061B797F7FE5F93872732AA854A
:10177000884319BF411122C42A842E859717FF5F21
:1017800023AC07DE06C6EF10A03CFD576319F50039
:101790009717FF5F938747DE9C4391C31CC0B240FD
:1017A00022444101828035713ECBA6DA36C73AC960
:1017B00042CD46CF97F7FE5F9387472D86DEA2DCAA
:1017C000CAD8844363DC05009307B0089CC07D55EC
:1017D000F6506654D65446590D6182809307802096
:1017E000231AF1002AC42ACC814799C19387F5FFB7
:1017F0007D592E8474012C0026853EC83ECE231BC5
:10180000210136C2EF003007635525019307B00868
:101810009CC05DDCA247238007005DBF411122C44C
:101820002E848395E50006C6EF1040186349050035
:101830007C48AA977CC8B2402244410182808357E9
:10184000C4007D777D17F98F2316F400EDB783D799
:10185000C500011122CC26CA4AC84EC606CE93F74F
:101860000710AA842E843289B68991C78395E50032
:101870008946014661238357C4007D777D17F98F20
:101880002316F4008315E4006244F240CE864A86B3
:10189000B24942492685D2440561DDA6411122C4E0
:1018A0002E848395E50006C6912BFD570357C4008F
:1018B000631BF500FD77FD17F98F2316F400B24086
:1018C0002244410182808567D98F2316F40068C8BD
:1018D000FDB78395E500D5A93367B500FD530D8BA2
:1018E00079E7B7877F7F9387F7F710419441B37209
:1018F000F6003363F600BE92B3E262006397720CA7
:101900006318D6065041D441B372F6003363F60033
:10191000BE92B3E262006398720A631BD60410455C
:101920009445B372F6003363F600BE92B3E26200F0
:101930006391720A631ED6025045D445B372F60015
:101940003363F600BE92B3E26200639A72086311D9
:10195000D60210499449B372F6003363F600BE9282
:10196000B3E26200639372085105D105E30FD6F626
:101970001317060193970601631CF700135706011E
:1019800093D706013305F7409375F50F91E98280EF
:101990004183C1833305F7409375F50F91E1828050
:1019A0001377F70F93F7F70F3305F740828003465D
:1019B000050083C60500050585056313D60065FA95
:1019C0003305D640828011059105E312D6FE01450C
:1019D00082802105A105E31CD6FC014582803105EA
:1019E000B105E316D6FC014582804105C105E3102F
:1019F000D6FC01458280AA8703C7050085078505B7
:101A0000A38FE7FE75FB8280AA87850703C7F7FFD0
:101A10006DFF3385A7407D158280AA8709CA850599
:101A200003C7F5FF85077D16A38FE7FE65FB3E968E
:101A30006393C70082808507A38F07FED5BFAA9551
:101A4000AA876385B70003C7070001E73385A7406E
:101A500082808507FDB741114AC02E8926C2B28512
:101A6000AA844A8522C406C63284D13FAA86636FFF
:101A70008500B307A90083C7070089CB01442285ED
:101A8000B24022449244024941018280A2854A86A2
:101A9000268555292A847DD13306954081452685A2
:101AA000712169FDE9BF03C7050005E78280631165
:101AB000F7028547B386F50083C6060091E282806F
:101AC0003306F500034606006314D6008507DDB72C
:101AD000050583470500E1FF01458280011197F765
:101AE000FE5F9387A7FA22CC804326CA06CE3C4CE1
:101AF000AA84B1EF130500052EC6EFF09F84B2450E
:101B000028CC2320050023220500232405002326BA
:101B1000050023280500232A0500232C0500232483
:101B200005022326050223280502232A0502232C69
:101B30000502232E05022320050423220504232465
:101B4000050423260504230E050023220502304C3C
:101B50006244F2402685D2448546056109A009E524
:101B6000084219E182803E859307150003C8F7FFFC
:101B70002E8705078348F7FF639808006310080263
:101B80002320060001458280E31518FFE9FE1CC2F0
:101B9000230005008280814739A889E6850703C8AC
:101BA000F7FF2E8705078346F7FFE318D8FEE30407
:101BB00008FEA38F07FE1CC28280011122CC26CA18
:101BC0004AC806CE4EC6AA842E89328409C51C4D49
:101BD00099E3EFF0CFDF973700009387E76A631B45
:101BE000F406C0401C4C1CC48357C400A18BD9C34D
:101BF0001C48C9C31C4808409379F90F1379F90FA1
:101C00001D8D5C486347F500A2852685EFF04FC81F
:101C100035E51C440505FD171CC41C40138717003F
:101C200018C0238037015C486389A7008357C4002C
:101C3000858B89CBA9476317F900A2852685EFF02C
:101C40002FC50DEDF24062444A85D2444249B24963
:101C50000561828097370000938707656314F4005D
:101C6000804449B79737000093870760E31CF4F678
:101C7000C0448DBFA28526853D282DDD7D59D9B76D
:101C8000411122C42A842E85B28536869717FF5FBC
:101C900023A4078E06C6EF00706EFD576319F5008A
:101CA0009717FF5F9387478D9C4391C31CC0B24039
:101CB000224441018280411197F7FE5F938707DD3F
:101CC00026C2844322C44AC006C62A892E8491C4EF
:101CD0009C4C81E72685EFF08FCF973700009387E4
:101CE000A75A631CF402C0400317C40093170701EE
:101CF000C18393F68700BDEE93F607019DEEA547DD
:101D00002320F900136707042316E4007D55B24031
:101D10002244924402494101828097370000938710
:101D2000A7586314F4008044C1B797370000938725
:101D3000A753E31BF4FAC04445BF918B95C74C5899
:101D400091C9930744046385F5004A85EFF02FF6A7
:101D5000232A04028357C4002322040093F7B7FD0B
:101D60002316F4001C481CC08357C40093E7870067
:101D70002316F4001C4881EF8357C400130700208A
:101D800093F707286385E700A2854A8501228357D8
:101D9000C40013F7170005C75C4823240400B307E9
:101DA000F0401CCC1C480145BDF38317C40013F759
:101DB000070831DF93E707042316F40081BF898BFE
:101DC000014791E3584818C4F1BF411122C42A8445
:101DD0002E859707FF5F23A1077A06C6EF00D05133
:101DE000FD576319F5009707FF5F9387E7789C43DA
:101DF00091C31CC0B240224441018280411122C4DF
:101E00002A842E85B28536869707FF5F23A607763C
:101E100006C6EF007051FD576319F5009707FF5F85
:101E2000938787759C4391C31CC0B24022444101F3
:101E300082801971A6DAAE848395E500A2DC86DE85
:101E4000328463DC050083D7C40023A0060093F727
:101E5000070885E7930700401DA0300836C6EF004D
:101E60003038B246E34105FE7247BD67F98F797796
:101E7000BA9793B717009CC2F1BF930700041CC028
:101E8000F6506654D65401450961828083D7C50057
:101E9000011122CC06CE26CA4AC8898B2E8489CF4E
:101EA000930774041CC01CC885475CC8F240624498
:101EB000D24442490561828074003000AA84953F73
:101EC000A2452A892685EFF08FE901ED8317C4002A
:101ED00013F7072061FFF19B93E727002316F40017
:101EE000C1B797F7FFFF9387E7299CD48357C400B6
:101EF00008C008C893E707082316F400A2475CC887
:101F0000B24791CF8315E4002685EF00903001C9D8
:101F10008357C400F19B93E717002316F4008357FF
:101F2000C4003369F9002316240149B793F5F50F6E
:101F30002A966314C5000145828083470500E38D1E
:101F4000B7FE0505FDB781CA83480600958DAA95A1
:101F500063F4A5000145828083470500639217035F
:101F60009387F6FF91E382803308F5003307F6008C
:101F700003480800034707006314E800FD17DDB7B6
:101F80000505F9B78280828001114AC803A985003E
:101F900022CC52C45AC006CE26CA4EC656C22E8481
:101FA000328B368A63EE260983D7C50013F70748BC
:101FB00051C704408C495848AA8AB389B4408D441B
:101FC000B384E4020947B3C4E402138716004E97B2
:101FD00063F3E400BA8493F70740D9C3A685568516
:101FE000EFF0EFD72A890DE5B14723A0FA00835718
:101FF000C4007D5593E707042316F400F2406244C1
:10200000D2444249B249224A924A024B0561828037
:102010000C484E86EFF0CFB38357C40093F7F7B761
:1020200093E707082316F4002328240144C84E9997
:10203000B38434412320240104C4528963732A01E8
:10204000528908404A86DA85EF00B01F1C440145DA
:10205000B38727411CC41C403E992320240179BF2B
:1020600026865685EF0090222A895DFD0C4856850C
:10207000EFF0EFC395BF83D7C500717126D34AD166
:102080004ECF06D722D552CD56CB5AC95EC762C5B0
:1020900066C393F70708AA892E89B284B9C39C49FD
:1020A000A9E39305000436C6EFF06FCB2320A90007
:1020B0002328A900B24615E1B14723A0F9007D55B8
:1020C000BA502A549A540A59FA496A4ADA4A4A4B87
:1020D000BA4B2A4C9A4C4D61828093070004232A04
:1020E000F90093070002A30CF1029307000302DA40
:1020F000230DF10236CE930B5002973A0000938ADB
:10210000AA1C054C294B26848347040099C3639B72
:102110007709B30C9440638D0C00E6862686CA8549
:102120004E859D35FD576301F51AD256E69636DA8F
:1021300083470400638A0718FD579304140002D0F4
:1021400002D63ED202D4A301010682DC83C504007C
:1021500015465685E13B13841400825731E513F789
:10216000070109C713070002A301E10613F787005F
:1021700009C71307B002A301E10683C604001307D1
:10218000A002638BE602B2572684814625460347A8
:10219000040093051400130707FD6374E6068DC65B
:1021A0003ED61DA005048DB7330555413315AC004F
:1021B000C98F3ED0A28459BF724793064700184387
:1021C00036CE634907023AD6034704009307E0027C
:1021D000631FF704034714009307A002631BF70271
:1021E000F2470904138747009C433ACE63C10702B4
:1021F0003ED235A83307E04093E727003AD63ED0D9
:10220000E1B7B387670385462E84BA9749B7FD5770
:10221000C5B7050402D2814681472546034704001D
:1022200093051400130707FD6376E606F1F2834574
:1022300004000D461735000013058509C53911CD79
:10224000973700009387C7081D8D93070004B39745
:10225000A700025505045D8D2AD083450400194668
:10226000173500001305050793041400230CB10271
:10227000753925C597E7FEDF9387C7D895E70257DD
:10228000F2471377071009CF91073ECED257D29766
:102290003EDA95BDB387670385462E84BA97BDBFE6
:1022A0009D07E19BA107D5B77808970600009386A4
:1022B000E6CD4A860C104E8597000000E70000002E
:1022C000FD572A8AE314F5FC8357C9007D5593F71F
:1022D0000704E39707DE5255E5B378089706000038
:1022E0009386C6CA4A860C104E85012AD1BF7971E1
:1022F00056CA9C49BA8A984522D426D24ECE52CC90
:1023000006D64AD05AC85EC6AA892E84B284368AB6
:1023100063D3E700BA879CC00347340419C3850719
:102320009CC01C4093F7070281C79C4089079CC052
:102330000329040013796900631A0900130B94013F
:10234000FD5B5C449840998F634CF9041C408346C4
:10235000340493F70702B336D000A5EB1306340418
:10236000D2854E85829AFD576303F5041C401146C1
:102370009840998B544481446397C700B384E640E6
:1023800063D3040081441C4418486354F700998FB8
:10239000BE94014969047D5B63982405014509A841
:1023A00085465A86D2854E85829A631E75017D5573
:1023B000B250225492540259F249624AD24A424BD4
:1023C000B24B456182800509ADBF3307D4001306C7
:1023D0000003A301C7040347540493871600A29780
:1023E0008906A381E7049DBF85462286D2854E8556
:1023F000829AE30E65FB050945B7797122D426D28E
:102400004AD04ECE06D652CC56CA5AC8B68983C6D2
:1024100085019307E0063289AA842E841386350449
:102420006380F61E63E2D706930730066382F60ADE
:1024300063EDD700638A061E930780056386F61650
:10244000930A24042301D40469A8930740066386F1
:10245000F60093079006E395F6FE1C40084393F6BA
:10246000070893054500C1C21C410CC363D807008F
:102470001307D002B307F040A301E404973600002D
:102480009386C6E5294765A0930730076382F61A4D
:1024900063EFD7009307F006638FF60493070007F6
:1024A000E390F6FA9C4193E707029CC109A89307C1
:1024B00050076382F60493078007E393F6F89307C7
:1024C0008007A302F40497360000938666E2DDA03D
:1024D0001C43938A2504938647009C4314C323819D
:1024E000F5048547B5A293F607041C410CC3BDDE75
:1024F000C207C187A5BF0C401C4313F8050813850C
:1025000047006305080008C39C4339A093F5050400
:1025100008C3FDD983D707001307F006638AE60CCA
:1025200097360000938686DB2947A30104044C40BC
:102530000CC463C5050008406D9908C099E3B28AD0
:1025400091CDB28AB3F5E702FD1AB69583C50500B1
:102550002380BA00B3D5E70263F2E70AA147631EFE
:10256000F7001C40858B91CB58401C4863C7E7009F
:1025700093070003A38FFAFEFD1A3306564110C8D5
:102580004E87CA867000A285268595337D5A6315CD
:10259000450D7D55B250225492540259F249624A77
:1025A000D24A424B45618280A382D504973600000F
:1025B0009386C6D20C40084313F805081C41110548
:1025C0006300080208C313F7150001C793E505026D
:1025D0000CC04147B9FB0C4093F5F5FD0CC0B1B7F9
:1025E00013F8050408C3E30008FEC207C183E1BF76
:1025F00097360000938686CE214705BFAE8799B7F0
:1026000094411C43CC4913F8060813854700630620
:10261000080008C39C438CC301A808C393F60604B2
:102620009C43F5DA2390B70023280400B28A89BFBF
:102630001C43D04181459386470014C383AA0700F9
:102640005685EFF0BF8E01C53305554148C05C404B
:102650001CC8A30104042DB714485686CA852685D4
:102660008299E30845F31C40898B8DE7B2474844C3
:10267000E352F5F23E8539BF85465686CA852685E2
:102680008299E30865F1050A5C443247998FE34576
:10269000FAFEE9BF014A930A94017D5BF5B71C4637
:1026A000FD171CC663DA0700184E63C5E700A9478B
:1026B0006394F5006FF06FD01C422E8513871700CE
:1026C00018C22380B7008280011122CC26CA4AC8D2
:1026D0004EC652C406CE2A89AE893284B304D600CF
:1026E0007D5A63149400014509A8834504004E8671
:1026F0004A8575370504E31645FFF2406244D2442B
:102700004249B249224A05618280357122CD26CBE9
:102710004AC94EC706CF52C556C35AC1DEDEE2DCF7
:10272000E6DAAA89AE843289368409C51C4D99E35C
:10273000EFE0FFA997370000938707B5639CF40C7F
:1027400083A4490083D7C400A18BFDC79C48EDC773
:1027500093070002A304F1029307000302D22305AA
:10276000F10222C6930B5002973A0000938ACAB531
:10277000054C294B4A848347040099C36391770F22
:10278000B30C2441638D0C00E6864A86A6854E85EF
:10279000253FFD576309F51E9256E69636D28347CC
:1027A00004006382071EFD571309140002C802CEFD
:1027B0003ECA02CCA309010482D483450900154610
:1027C0005685EFF0AFF613041900C24759E913F725
:1027D000070109C713070002A309E10413F78700E3
:1027E00009C71307B002A309E104834609001307D0
:1027F000A0026380E608F2474A84814625460347E3
:10280000040093051400130707FD6379E60AB5CAAF
:102810003ECE85A897370000938707A96395F400FB
:1028200083A4890005B7973700009387E7A3E39B4C
:10283000F4F083A4C90039B7A6854E85EFF0AFC781
:1028400001D97D55FA406A44DA444A49BA492A4ACC
:102850009A4A0A4BF65B665CD65C0D618280050481
:1028600019BF330555413315AC00C98F3EC82289C5
:10287000A9B7324793064700184336C66349070293
:102880003ACE034704009307E002631FF7040347AF
:1028900014009307A002631BF702B24709041387D1
:1028A00047009C433AC663C107023ECA35A83307B6
:1028B000E04093E727003ACE3EC8E1B7B38767030D
:1028C00085462E84BA9725BFFD57C5B7050402CAB1
:1028D00081468147254603470400930514001307EA
:1028E00007FD6378E606F1F2834504000D461735CF
:1028F00000001305E59DEFF06FE311CD9737000061
:102900009387079D1D8D93070004B397A700424549
:1029100005045D8D2AC8834504001946173500005B
:102920001305459B130914002304B102EFF00FE0D7
:102930003DC197D7FEDF9387E76C95E74247B247E3
:102940001377071009CF91073EC69257D2973ED210
:1029500015B5B387670385462E84BA97ADBF9D072B
:10296000E19BA107D5B7780097060000938606D6AD
:1029700026860C084E8597000000E7000000FD57F2
:102980002A8AE314F5FC83D7C40093F70704E39A7B
:1029900007EA125545BD780097060000938606D3D6
:1029A00026860C084E85EFF05FA5D1BF411122C4E9
:1029B0002A842E85B28536869707FF5F23AE07BA35
:1029C00006C6AD2AFD576319F5009707FF5F938789
:1029D000A7BA9C4391C31CC0B240224441018280EB
:1029E000411122C42A842E85B2859707FF5F23A553
:1029F00007B806C6212AFD576319F5009707FF5F40
:102A0000938787B79C4391C31CC0B24022444101C5
:102A10008280411122C42A842E859707FF5F23AD4F
:102A200007B406C6F528FD576319F5009707FF5F41
:102A3000938787B49C4391C31CC0B2402244410198
:102A4000828063F3A504B386C500637FD5029345F6
:102A5000F6FF8147FD176393F50082803387F60008
:102A6000034807003387C7002A9723000701DDB713
:102A70003387F500834607003307F50085072300F9
:102A8000D700E317F6FE82808147E5BF81E5B28576
:102A90006FE0FFAC011122CC06CE26CA4AC84EC652
:102AA000328401EEEFE0BFA00149F24062444A8562
:102AB000D2444249B24905618280AE84AA891D2070
:102AC0002689E37485FEA2854E85EFE05FA92A89F9
:102AD00069DDA6852286EFE0BF87A6854E85EFE0FB
:102AE0001F9DE1B783A7C5FF1385C7FF63D5070007
:102AF000AA959C413E958280411106C6D120B240E4
:102B0000930780051CC17D5541018280411106C695
:102B10004528B240930780FA1CC17D55410182804F
:102B20007D15133515008280411106C65128B2402B
:102B3000930780051CC17D5541018280411106C665
:102B40004120B240930780051CC17D554101828020
:102B5000B737008037370080938787971307871729
:102B6000638CE70093878180944336956375E50015
:102B700088C33685828098C3FD56E5BF411106C6DD
:102B800022C426C285476319F5002E84B384C5008C
:102B9000631E9400014531A02520930780051CC1C8
:102BA0007D55B24022449244410182800345040095
:102BB0000504A124F1BFAA85814601460145F1A87B
:102BC00097E7FE5F938787EC88438280411122C498
:102BD00006C697070000938747152A8499C3814545
:102BE000992297E7FE5F9387A7EA88431C5591C314
:102BF00082972285EF20401241119737000093877A
:102C0000271722C417340000130484161D8C26C213
:102C100006C60984BE8411E4B240224492444101B4
:102C200082807D1493172400A6979C438297E5B772
:102C30004111973700009387E71222C41734000030
:102C4000130444121D8C26C24AC006C6098481445E
:102C50003E8963968402973700009387A710173444
:102C600000001304E4101D8C098481443E89639F95
:102C70008400B240224492440249410182809397E9
:102C80002400CA979C4385048297E1B79397240058
:102C9000CA979C4385048297D9BF97E7FE5F9387C5
:102CA000A7E49C432A8E8DE71707FF5F130707846D
:102CB00097E7FE5F23AAE7E217D5FEDF1305853409
:102CC000BA8719C51C411705FF5F2325F58ABA8706
:102CD000D8437D487D556347E804630E0E0203A880
:102CE00087086301080493182700C29823A0C8002E
:102CF0000323081005463316E6003363C300232080
:102D0000681023A0D80889466317DE008326481080
:102D1000558E2322C810930617000A07D4C3BA970A
:102D20008CC701458280797152CC56CA5AC85EC69A
:102D300006D622D426D24AD04ECE62C42A8B2E8A00
:102D400097EAFE5F938A4ADA854B03A40A0011C80A
:102D50004440832984081389F4FF8A04A294635EA3
:102D60000900B250225492540259F249624AD24A9E
:102D7000424BB24B224C45618280630E0A00639540
:102D800009007D19F114E1BF93172900CE9783A79D
:102D90000708E39847FF5840DC407D176318270376
:102DA00023222401F9DF032C44006388090083A651
:102DB000091033972B01F98E89EE8297584083A72B
:102DC0000A00E31487F9E30EF4FA41B723A20400E2
:102DD000D1BF93162900CE968C4283A64910758FD9
:102DE00001E75A858297D9BF2E858297C1BFAA85F0
:102DF00037150080130585A41DA0411122C406C605
:102E0000A9472A846314F5003545D5372285224425
:102E1000B2404101E9BF1C4103A3070002831C41EA
:102E200003A3470002831C4103A347010283B71792
:102E30000080938747A9370700026383A7000147F3
:102E40008E05BA95116793074700AE977D5588C3E5
:102E5000BA9590C194C3014582807D5582806F00F0
:102E6000507B411106C6732540F1EF103055B2403A
:102E700041016F103054011106CE2EC6DD3719C93D
:102E8000B24505476368B7001C41F24003A3470001
:102E900005610283F2407D55056182800111B717FB
:102EA00000804AC806CE22CC26CA4EC6938747A9C0
:102EB00001496313F5000949444181E82A84B709AF
:102EC0000080639B240185475CC0F2406244D24489
:102ED0004249B249056182808D4591C09D4583A7D5
:102EE000890BA2860146DC4F1385890B85048297E6
:102EF000C9BFA9C5011122CC2EC606CE2A8495379A
:102F0000B7170080938747A9B2456314F402B70747
:102F100000809387870B631EF50093F7B5FF8D46FE
:102F20006399D7001C416244F24003A38702056104
:102F30000283F24062447D55056182807D55828026
:102F4000A9C5011122CC2EC606CE2A84193FB71777
:102F50000080938747A9B2456314F402B707008045
:102F60009387870B631EF50093F7B5FF8D46639932
:102F7000D7001C416244F24003A34702056102836B
:102F8000F24062447D55056182807D558280011149
:102F90002EC632C436C206CE22CC26CAAA84EF0080
:102FA00050672A847D3DB7170080938747A99246D2
:102FB0002246B2456395F400854763F88700F240E6
:102FC0006244D2447D5505618280B70700809387B3
:102FD000870B2A87E315F5FE93F7B5FF0D48E390BD
:102FE00007FF1C436244F240D24403A3C7010561BA
:102FF000028337170080130747A9B707000263034E
:10300000A7008147B1661387C6FFE1163E97B697C2
:10301000144388430C43E39DD5FE8280B71700809C
:10302000938747A901476314F500370700028947D2
:103030006386F50463C8B70085476382F502FD57D0
:103040003E8582808D476384F5049147E399F5FEC0
:1030500081477DD61C428A07BA979C43D5B7FD5756
:1030600065D2411122C406C63284613708C04CC003
:10307000B240224481473E8541018280FD5769D29A
:103080001C428A07BA9723A00700814755BFFD5706
:1030900045DA1C428A07BA97054798C30F00800497
:1030A0009C43E5B7011106CE22CC2A84EF10D03123
:1030B0002AC67000228589459537F2406244056131
:1030C0008280011106CE22CC2A84EF10F02F2AC66E
:1030D000700022858D459937F240624405618280F7
:1030E000AA85F32740F11397270093870182BA97A7
:1030F0008843F32720340DC593F7F73F13874181A9
:103100009387070E631BE500370700808A071307C4
:10311000870BBA9703A3870002838A079C47029014
:10312000828000000000000000000000000000009D
:10313000000000000000000000000000000000008F
:10314000000000000000000000000000000000007F
:10315000000000000000000000000000000000006F
:10316000000000000000000000000000000000005F
:10317000000000000000000000000000000000004F
:10318000397106DE16DC1ADA1ED82AD62ED432D2CF
:1031900036D03ACE3ECC42CA46C872C676C47AC24F
:1031A0007EC0F32740F11397270093870182BA97D7
:1031B000944373262034F3271034F32730347327D5
:1031C00050308DCA938741816389F6048147137516
:1031D000F63F63520606AD4663D5A6001377F703A4
:1031E00031E361473307E502BA9703A7070983A5CF
:1031F00087090297F250E2525253C2533255A255F8
:10320000125682567247E2475248C248324EA24E88
:10321000124F824F216173002030B70700809387DF
:10322000870B75B78946E317D7FC732770301843AF
:1032300083A5C70D7DBF1307050E0A07BA979C47E4
:10324000AA85368582977DB7000000000000000047
:10325000000000000000000000000000000000006E
:10326000000000000000000000000000000000005E
:103270000000000000000000000001458280F325EE
:1032800000B8732500B0F32700B86384F50001454A
:103290008145828011CD938741816306F500014508
:1032A0009355F54182803725F40013050540CDBFC5
:1032B0000145814582800111814701483EC406CE07
:1032C00042C693874181639CA700B707008003A58E
:1032D000471F11C51C4130008545FC438297F240D1
:1032E0002245B2450561828037150080130545A946
:1032F00082801D4582800D458280011106CE2EC63A
:10330000938741816391A702B707008083A747197C
:103310007D5599C7984370008D4578433E85029747
:10332000F240056182807D55E5BF011106CE2EC6B3
:10333000938741816391A702B707008083A747194C
:103340007D5599C798437000894578433E8502971B
:10335000F240056182807D55E5BF011106CE2EC683
:10336000938741816391A702B707008083A747191C
:10337000014599C798437000914578433E8502976F
:10338000F240056182800145E5BF938741816384F6
:10339000A70001458280370500801305850B8280D8
:1033A00083D705000D4711458D8B6383E7000945E1
:1033B0008280732510348280739015340145828099
:1033C00041111305400606C6EF10700041111305A8
:1033D000800C06C6EF10A07F93874181B2862E86AF
:1033E000639CA700B707008003A5471F11C51C41B8
:1033F000814503A3870402837D558280411106C65F
:1034000022C4F32740F101446348F00013972700DA
:1034100093870182BA9780432285713D9307A50067
:1034200033B5A7003306B50022852244B240BE85DD
:1034300041015DB75C41C1EBFD5773B0473073B0DC
:103440004734F326103037270400758F09C773B04F
:10345000373073B027309397D60063D50700FD57F8
:1034600073B00718930705091307053923A0070050
:1034700023A2070023A40700E107E399E7FE3737FB
:103480000120930785389306853B1307073C98C3B3
:103490009107E39EF6FEF3275030B737012093875C
:1034A0000718F19B73905730F327103041671307CB
:1034B0008702F98F99C7F32700300967D98F739076
:1034C000073085475CC18280938741816392A70260
:1034D000AD477D5563CFB70009CEB7070080938510
:1034E000050E9387870B8A05BE9590C5014582809E
:1034F0007D55828037150080130545A9828081EDB6
:10350000F3275030B737012093870718F19B73904A
:1035100057300145828085477D55E39DF5FEF327B1
:103520005030B7570120938707C093E71700C5B7FE
:1035300039712AD61305C01206DE16DC1ADA1ED837
:103540002ED432D236D03ACE3ECC42CA46C872C60B
:1035500076C47AC27EC0EF108067397106DE16DC51
:103560001ADA1ED82AD62ED432D236D03ACE3ECC53
:1035700042CA46C872C676C47AC27EC0F32740F1FA
:103580001397270093870182BA97984319CF93879F
:103590004181631FF702B70700809387870B03A75A
:1035A000870D83A5070E0D450297F250E252525344
:1035B000C2533255A255125682567247E2475248BC
:1035C000C248324EA24E124F824F2161730020300A
:1035D0008327000E0290397106DE16DC1ADA1ED837
:1035E0002AD62ED432D236D03ACE3ECC42CA46C8A3
:1035F00072C676C47AC27EC0F32740F113972700C3
:1036000093870182BA97984319CF93874181631FAB
:10361000F702B70700809387870B03A7871383A55B
:1036200007141D450297F250E2525253C2533255CD
:10363000A255125682567247E2475248C248324E4D
:10364000A24E124F824F2161730020308327001455
:103650000290397106DE16DC1ADA1ED82AD62ED46C
:1036600032D236D03ACE3ECC42CA46C872C676C4B2
:103670007AC27EC0F32740F1139727009387018217
:10368000BA97984319CF93874181631FF702B70711
:1036900000809387870B03A7072183A587214145D6
:1036A0000297F250E2525253C2533255A25512566B
:1036B00082567247E2475248C248324EA24E124FDB
:1036C000824F21617300203083278021029039715D
:1036D00006DE16DC1ADA1ED82AD62ED432D236D01E
:1036E0003ACE3ECC42CA46C872C676C47AC27EC0C2
:1036F000F32740F11397270093870182BA979843E5
:1037000019CF93874181631FF702B7070080938722
:10371000870B03A7872283A5072345450297F2500D
:10372000E2525253C2533255A25512568256724734
:10373000E2475248C248324EA24E124F824F216198
:1037400073002030832700230290397106DE16DCD7
:103750001ADA1ED82AD62ED432D236D03ACE3ECC61
:1037600042CA46C872C676C47AC27EC0F32740F108
:103770001397270093870182BA97984319CF9387AD
:103780004181631FF702B70700809387870B03A768
:10379000072483A5872449450297F250E2525253E9
:1037A000C2533255A255125682567247E2475248CA
:1037B000C248324EA24E124F824F21617300203018
:1037C000832780240290397106DE16DC1ADA1ED8AF
:1037D0002AD62ED432D236D03ACE3ECC42CA46C8B1
:1037E00072C676C47AC27EC0F32740F113972700D1
:1037F00093870182BA97984319CF93874181631FBA
:10380000F702B70700809387870B03A7872583A557
:1038100007264D450297F250E2525253C253325599
:10382000A255125682567247E2475248C248324E5B
:10383000A24E124F824F2161730020308327002651
:103840000290397106DE16DC1ADA1ED82AD62ED47A
:1038500032D236D03ACE3ECC42CA46C872C676C4C0
:103860007AC27EC0F32740F1139727009387018225
:10387000BA97984319CF93874181631FF702B7071F
:1038800000809387870B03A7072783A587275145C8
:103890000297F250E2525253C2533255A255125679
:1038A00082567247E2475248C248324EA24E124FE9
:1038B000824F216173002030832780270290397165
:1038C00006DE16DC1ADA1ED82AD62ED432D236D02C
:1038D0003ACE3ECC42CA46C872C676C47AC27EC0D0
:1038E000F32740F11397270093870182BA979843F3
:1038F00019CF93874181631FF702B7070080938731
:10390000870B03A7872883A5072955450297F250FF
:10391000E2525253C2533255A25512568256724742
:10392000E2475248C248324EA24E124F824F2161A6
:1039300073002030832700290290397106DE16DCDF
:103940001ADA1ED82AD62ED432D236D03ACE3ECC6F
:1039500042CA46C872C676C47AC27EC0F32740F116
:103960001397270093870182BA97984319CF9387BB
:103970004181631FF702B70700809387870B03A776
:10398000072A83A5872A59450297F250E2525253DB
:10399000C2533255A255125682567247E2475248D8
:1039A000C248324EA24E124F824F21617300203026
:1039B0008327802A0290397106DE16DC1ADA1ED8B7
:1039C0002AD62ED432D236D03ACE3ECC42CA46C8BF
:1039D00072C676C47AC27EC0F32740F113972700DF
:1039E00093870182BA97984319CF93874181631FC8
:1039F000F702B70700809387870B03A7872B83A560
:103A0000072C5D450297F250E2525253C253325591
:103A1000A255125682567247E2475248C248324E69
:103A2000A24E124F824F2161730020308327002C59
:103A30000290397106DE16DC1ADA1ED82AD62ED488
:103A400032D236D03ACE3ECC42CA46C872C676C4CE
:103A50007AC27EC0F32740F1139727009387018233
:103A6000BA97984319CF93874181631FF702B7072D
:103A700000809387870B03A7072D83A5872D6145BA
:103A80000297F250E2525253C2533255A255125687
:103A900082567247E2475248C248324EA24E124FF7
:103AA000824F2161730020308327802D029039716D
:103AB00006DE16DC1ADA1ED82AD62ED432D236D03A
:103AC0003ACE3ECC42CA46C872C676C47AC27EC0DE
:103AD000F32740F11397270093870182BA97984301
:103AE00019CF93874181631FF702B707008093873F
:103AF000870B03A7872E83A5072F65450297F250F2
:103B0000E2525253C2533255A25512568256724750
:103B1000E2475248C248324EA24E124F824F2161B4
:103B2000730020308327002F0290397106DE16DCE7
:103B30001ADA1ED82AD62ED432D236D03ACE3ECC7D
:103B400042CA46C872C676C47AC27EC0F32740F124
:103B50001397270093870182BA97984319CF9387C9
:103B60004181631FF702B70700809387870B03A784
:103B7000073083A5873069450297F250E2525253CD
:103B8000C2533255A255125682567247E2475248E6
:103B9000C248324EA24E124F824F21617300203034
:103BA000832780300290397106DE16DC1ADA1ED8BF
:103BB0002AD62ED432D236D03ACE3ECC42CA46C8CD
:103BC00072C676C47AC27EC0F32740F113972700ED
:103BD00093870182BA97984319CF93874181631FD6
:103BE000F702B70700809387870B03A7873183A568
:103BF00007326D450297F250E2525253C25332558A
:103C0000A255125682567247E2475248C248324E77
:103C1000A24E124F824F2161730020308327003261
:103C20000290397106DE16DC1ADA1ED82AD62ED496
:103C300032D236D03ACE3ECC42CA46C872C676C4DC
:103C40007AC27EC0F32740F1139727009387018241
:103C5000BA97984319CF93874181631FF702B7073B
:103C600000809387870B03A7073383A587337145AC
:103C70000297F250E2525253C2533255A255125695
:103C800082567247E2475248C248324EA24E124F05
:103C9000824F216173002030832780330290397175
:103CA00006DE16DC1ADA1ED82AD62ED432D236D048
:103CB0003ACE3ECC42CA46C872C676C47AC27EC0EC
:103CC000F32740F11397270093870182BA9798430F
:103CD00019CF93874181631FF702B707008093874D
:103CE000870B03A7873483A5073575450297F250E4
:103CF000E2525253C2533255A2551256825672475F
:103D0000E2475248C248324EA24E124F824F2161C2
:103D100073002030832700350290397106DE16DCEF
:103D20001ADA1ED82AD62ED432D236D03ACE3ECC8B
:103D300042CA46C872C676C47AC27EC0F32740F132
:103D40001397270093870182BA97984319CF9387D7
:103D50004181631FF702B70700809387870B03A792
:103D6000073683A5873679450297F250E2525253BF
:103D7000C2533255A255125682567247E2475248F4
:103D8000C248324EA24E124F824F21617300203042
:103D9000832780360290397106DE16DC1ADA1ED8C7
:103DA0002AD62ED432D236D03ACE3ECC42CA46C8DB
:103DB00072C676C47AC27EC0F32740F113972700FB
:103DC00093870182BA97984319CF93874181631FE4
:103DD000F702B70700809387870B03A7873783A570
:103DE00007387D450297F250E2525253C253325582
:103DF000A255125682567247E2475248C248324E86
:103E0000A24E124F824F2161730020308327003869
:103E10000290F327503093F7F703FD170947014548
:103E20006367F70013874182BA9703C50700828052
:103E3000CDB7FD4763ECA70085473395A700C5774D
:103E4000938787887D8D3335A000828001458280ED
:103E5000011122CC2A842E8526CA06CEAE8432C613
:103E600036C4C13F59C13246A24619CEE145B3849A
:103E7000B40226942328C408232CD4080145F24018
:103E80006244D24405618280AD47638AF40263C212
:103E900097028D476382F4049D475155E391F4FEE8
:103EA000B73701209387C73F232CF412232ED41257
:103EB000F1B7938704FF3D475155E362F7FCE145B5
:103EC000B384B402B73701209387C73C26942328D4
:103ED000F408232AD4085DB7B73701209387070E6B
:103EE000232CF40C232ED40C51BF555549BF11C9B6
:103EF0009D47638AF50463E8B7009DC58D47638FCE
:103F0000F5027D5615A8AD476382F504E3EBF5FE97
:103F1000938705FF3D47E366F7FE8547B395B700F6
:103F20000DCEF3A5453029A0A14709C6F3A7073058
:103F3000014619A0F3B7073032858280A14719CA1C
:103F4000F3A74730F5B793070008D5BF8567938778
:103F50000780F5B7F3B74730C5B7F3B54530E9BFCC
:103F6000054671B7014661B7370700801307074759
:103F7000B707000C6303A700814737072000BA97F3
:103F80008CC301458280B707008093870747638809
:103F9000A700814737072000BA9788438280B70778
:103FA000000CCDBFB707008093870747639DA7002C
:103FB00099477D5563EAC700B707000C8A05BE958F
:103FC00090C1014582807D558280B707008093872C
:103FD00007476387A70081478A05BE95884182808D
:103FE000B707000CD5BF41111305C01206C6EF007C
:103FF000103E0111B707008022CC06CE26CA4AC85F
:104000004EC652C4938707472A8401476314F500BC
:10401000130750037D5563D5E502B689328AAE8415
:104020001399250015C622850946AD3FE145B384A5
:10403000B40222992324490126942328340F0145F0
:10404000F2406244D2444249B249224A0561828028
:1040500022850546813FE145B384B402B74701207C
:104060002299938767FE2324F90026942326340F90
:10407000F9B7B7070080938707476389A70081478F
:10408000370720001107BA9788438280B707000CD2
:10409000C5BF3707008013070747B707000C630346
:1040A000A7008147370720001107BA978CC3828089
:1040B00041112E8522C426C206C62E845D3FB70755
:1040C000008093870747AA846312F4029307400392
:1040D00063EEA70093172500A297984701CBE1470D
:1040E000B307F502A29783A5070F02972285224402
:1040F000B240A6859244410169BF3707008013078B
:104100000747B706000C6303A700814693D75540C5
:1041100009678A07BA97B69794430547B315B7005E
:1041200001C6D58D8CC3828093C5F5FFF58DDDBFAB
:1041300001114AC80329450006CE22CC26CA4EC624
:1041400052C456C25AC0630F0902F2406244D244BC
:104150004249B249224A924A024B05618280CA858D
:1041600001462285593FCA8501462285EFF09FE32B
:1041700023A00A0023A0090023A209000509910A2F
:10418000E1090DA8B707008093870747130B500379
:104190006303F500014BB704008083A7840B2A84D6
:1041A0001385840B9C43930A84009309C40E829761
:1041B000138A840BE31569FB81452285EFF0DFDA72
:1041C00083270A00A2860146DC4FAD451385840B88
:1041D000829783270A0037460120A286DC4F130608
:1041E000060BAD451385840B829783270A00AD45E6
:1041F0001385840BDC53829785475CC0B9B7B7073A
:1042000000809387074701476314F50013075003A5
:10421000FD5763DBE5004111054606C6F93DB24096
:1042200081473E85410182803E858280B7070080BC
:104230009387074701476314F50013075003FD57A1
:1042400063DBE5004111014606C6453DB2408147AA
:104250003E85410182803E85828083A78183411112
:1042600022C406C681451385C18182972A8493178B
:1042700014007D5563DF0700635D0400370500808F
:10428000130585071374F403EF00900F05043355ED
:104290008502B240224441018280C1B783A7818355
:1042A000411106C691451385C18182979317150068
:1042B00063DC0700635A0500B24037050080130530
:1042C000050641016F00D00BB2407D55410182804F
:1042D000F1B71385C181828021458280411122C4BA
:1042E0002A84484106C6EF007006B7870010984739
:1042F0009316F70063C706009847C176FD16758FC1
:1043000098C7378700101C47B7060200B725F4008E
:10431000D58F1CC71C40228593850540DC438297BE
:1043200008442244B24041016F005002011106CE00
:1043300022CC26CA2A844D372AC62285593F83A417
:104340008183B24582942A84B1451385C1818294C8
:104350009317F40063CC07006244F240D24437055F
:1043600000801305450805616F0090019317E40074
:10437000AA8463C507063705008013054508EF00CA
:1043800030009317D40063C6070493574400856632
:10439000938606C093F7F703137774008507758C2F
:1043A0009306F03F0507860763FF86023345E50263
:1043B00029803305F50285473394870093F704106D
:1043C0003345850299E793F4F40385048604335555
:1043D0009502F2406244D244056182803705008034
:1043E0001305C50669BF7D55EDB7411122C426C22C
:1043F0004AC006C6AA842E8937840010EFF0DFED8C
:104400002A941C401397F700635707001C4041771C
:104410007D17F98F1CC01C401397E700634C0702FF
:104420003705008013054508A12F0D473307E50226
:1044300091463347D7026344E9029547B307F50233
:10444000B3C7D70263CD27011C4037070400D98FBB
:104450001CC0EDA0370500801305C506F1B737670E
:10446000012037080080130747CAFD561348F8FF9C
:1044700013063004FD551C47636AF5025C4763E789
:10448000A7021C4383284700B307F502B3D71703DD
:10449000638EB700B387274193D8F741B3C7F800BD
:1044A000B387174163D407013E88B2867D16011792
:1044B000E313B6FC1C40E38AC6F8E19B1CC0B75767
:1044C0000120960693874744B697984B10401D8B62
:1044D000518F18C018401377F7C018C0D84B14403C
:1044E00012071377073F558F18C01840FD76938643
:1044F000F63F758F18C0984F104085662A0793863F
:1045000006C0758F518F18C0D84FB78700106353FE
:104510000704D84713670710D8C7D847137707FC95
:10452000D8C7D84713671700D8C71C403707FCFF08
:104530007D17F98F1CC01C40E3DF07FE1C4041675C
:10454000B240D98F1CC022440249268592444101C1
:104550006FF0DFDDD4471377F70393F6F6EFD4C798
:10456000D44793F606FCD4C7D447558F75BFB78799
:104570000010BE9588418280B7870010BE9590C11B
:104580003285828013878181B72701106303A700DA
:104590008147D8430145D98DCCC38280138781815F
:1045A000B72701106303A7008147D84393C5F5FFE0
:1045B0000145F98DCCC38280938781816385A700F3
:1045C000814788438280B7270110E5BF93878181A7
:1045D0006385A7008147C8478280B7270110E5BFE0
:1045E00013878181B72701106303A700814798478C
:1045F00093C5F5FF0145F98D8CC7828013878181B2
:10460000B72701106303A700814798470145D98D5B
:104610008CC7828013878181B72701106303A700AD
:104620008147D8470145D98DCCC7828013878181C6
:10463000B72701106303A7008147D84793C5F5FF4B
:104640000145F98DCCC7828013878181B72701107E
:104650006303A7008147D8470145B98DCCC7828045
:1046600013878181B72701106303A7008147D85FB3
:1046700093C5F5FF0145F98DCCDF985F598E90DF2A
:10468000828013878181B72701106303A7008147C8
:10469000985F93C5F5FF0145F98D8CDF8280138704
:1046A0008181B72701106303A70081471D47636C11
:1046B000C70237670120130747CC0A063A9618420B
:1046C0000287984F93C5F5FF6D8F98CF98536D8FE4
:1046D00098D398576D8F98D7985BF98D8CDB21A074
:1046E000984FD98D8CCF01458280984F4D8F98CFB0
:1046F0009853D98D8CD3C5BF9857D98D8CD7E5B732
:10470000984F4D8F98CF98534D8F98D398574D8F82
:1047100098D7985BD98DD9B713878181B7270110B6
:104720006303A70081477D161947636DC70037678C
:104730000120130747CE0A063A9618420287D84F3F
:10474000D98DCCCF01458280D84F4D8FD8CFD8534B
:10475000D98DCCD3C5BFD857D98DCCD7E5B7D84FD5
:104760004D8FD8CFD8534D8FD8D3D8574D8FD8D75A
:10477000D85BD98DCCDBF9B7938781816384A7009F
:1047800001458280370500801305054782809387A5
:1047900081816398A71021456386051085472545CB
:1047A0006382F51089472945638EF50E8D472D45A7
:1047B000638AF50E914731456386F50E9547354579
:1047C0006382F50E99473945638EF50C9D473D454B
:1047D000638AF50CA14741456386F50CA54745451D
:1047E0006382F50CA9474945638EF50AAD474D45EF
:1047F000638AF50AB14751456386F50AB5475545C1
:104800006382F50AB9475945638EF508BD475D4592
:10481000638AF508C14761456386F508C547654564
:104820006382F508C9476945638EF506CD476D4536
:10483000638AF506D14771456386F506D547754508
:104840006382F506D9477945638EF504DD477D45DA
:10485000638AF504E147130500026385F504E54723
:10486000130510026380F504E94713052002638BEA
:10487000F502ED47130530026386F502F147130593
:1048800040026381F502F5476D45638DF500F947F8
:1048900071456389F500FD4701456395F500754550
:1048A000828001458280B7170080938787A4638444
:1048B000A7000145828037050080130505478280E7
:1048C000B7170080938787A4630DF5003717008022
:1048D000130787A691476303E50081471385070205
:1048E00082808D47E5BF484182800111B717008063
:1048F00026CA06CE22CC938787A4AA84630FF50428
:10490000B7170080938787A66300F50681470145A6
:104910009847B706F9FFFD16758F98C79847C16687
:1049200013868700558F98C7D84B058B75DF1C41C0
:1049300000429C43098813341400829725043305F0
:10494000A402C04002C633558502B24763C1A70224
:10495000F2406244D24405618280B73701103705C6
:104960000080130505096DB7B7370210CDBF0100F0
:10497000B24785073EC6D1BF4C416FE0CFCA37175B
:104980000080130787A4B7370110630BE5003717C2
:104990000080130787A6B73702106303E50081473D
:1049A000D843FD57634407009377F70F9CC1014537
:1049B00082804111B717008006C622C426C29387A1
:1049C00087A4630CF500B7170080938787A6B734D8
:1049D00002106306F5004CC10DA8B73401104CC19C
:1049E0003705008083270509130505092E849C439C
:1049F0008297334585027D1588CC9C4493E7170048
:104A00009CC4DC4493E71700DCC4B24022449244C7
:104A100001454101828001114AC83719008022CC2A
:104A20004EC606CE26CA130989A42A84AE89630914
:104A30002501B7170080938787A68144631EF5027E
:104A4000B704008093840409C840B75701209387B6
:104A5000A78E1CC49305840040C43922C8C0B75730
:104A600001208844938787975CC800CC9305440154
:104A7000E52888C493848181CE852285EFE0AFBA92
:104A8000B1C4B7050300630B2401B71700809387F7
:104A900087A6B70584006303F40081453706030049
:104AA000630B2401B7170080938787A6370684001D
:104AB0006303F40001469C406244F2404249B2491B
:104AC00003A347022685D24405610283F240624473
:104AD000D2444249B24905618280B717008093876A
:104AE00087A46300F50237170080130787A6B7373E
:104AF00002106303E500814788431345F5FF7D817C
:104B00008280B7370110CDBF0111B717008022CCCA
:104B100026CA06CE938787A4AA8437340110630B74
:104B2000F500B7170080938787A637340210630318
:104B3000F500014426852EC64D37B24565DD0CC013
:104B4000F2406244D244014505618280411122C491
:104B500006C62A8409E4B2402244410182801C40F6
:104B6000484082970044FDB723A40500AA8701E5C9
:104B70002E858280BA87984775FF8CC7AA85CDBFDE
:104B80001C4103A307000283011122CC2A8448415F
:104B900006CE26CA2EC65D3F1C40B2452285DC43A8
:104BA0008297AA8408445D37F24062442685D24445
:104BB000056182801C4103A3C702028301E503A5AE
:104BC0000184828001458280732540F1828001004A
:104BD000FDBF000000000000000000000000000019
:104BE00000000000000000000000000000000000C5
:104BF00000000000000000000000000000000000B5
:104C00006FE01F936FE0DF926FE09F926FE0FF9481
:104C10006FE01F926FE0DF916FE09F916FE0BF9BAD
:104C20006FE01F916FE0DF906FE09F906FE05F900B
:104C30006FE01F906FE0DF8F6FE09F8F6FE05F8FFF
:104C40006FE03FA16FE0BFA86FE03FB06FE0BFB77C
:104C50006FE03FBF6FE0BFC66FE03FCE6FE0BFD5F4
:104C60006FE03FDD6FE0BFE46FE03FEC6FE0BFF36C
:104C70006FE03FFB6FF0AF826FF02F8A6FF0AF9164
:104C8000B7070080938707066308F502B70700801F
:104C9000938787076307F502370700801307C70963
:104CA000A1676309E500370700801307870A6303DC
:104CB000E50081473E858280B727F400938707404F
:104CC000D5BFB7A74A0493870720EDB7B707008081
:104CD000938707066308F502B70700809387870765
:104CE0006307F502370700801307C709A167630947
:104CF000E500370700801307870A6303E500814753
:104D00003E858280B727F40093870740D5BFB7A7B9
:104D10004A0493870720EDB7411106C6EFF03FEB39
:104D2000430000004552524F520000005B2B5D20B3
:104D30007370695F786665725F73656E645F6865DE
:104D4000616465723A2073656E64696E673A202506
:104D500030327820253032782025303278202530C6
:104D600032780D0A00000000207C207370695F72A9
:104D7000656376206C656E6774683A2025752C2013
:104D800025630D0A000000002B535953464C415334
:104D9000483A00004950442C30000000302C434F6A
:104DA0004E4E4543540000004154000041542B43F3
:104DB000495053454E440D0A000000002B2B2B0D8B
:104DC0000A000000207C207370695F786665725F5E
:104DD000726563765F6865616465723A2073656EBB
:104DE00064696E673A202530327820253032782089
:104DF0002530327820253032780D0A00207C20734F
:104E000070695F73656E64206C656E6774683A20C4
:104E100073656E64696E673A2028257529202530F0
:104E200032782025303278202530327820253032F3
:104E3000780D0A00820E0120AC0E0120BC0E01206C
:104E4000C60E0120D80E0120E20E0120EC0E01203A
:104E5000F60E0120FC0E0120020F0120080F012098
:104E6000120F012041542B535953464C4153483D96
:104E70005F2C22626C655F64617461222C5F5F5FEE
:104E80005F2C36340D0A000041542B535953464CC5
:104E90004153483D302C22626C655F64617461222D
:104EA0002C302C343039360D0A000000436F6D7001
:104EB0007574696E672E2E2E0D0A000041542B4327
:104EC000495053454E443D302C25640D0A000000E6
:104ED0004C6F6E67657220796F64656C73206172C8
:104EE00065206D6F72652066756E0D0A000000000A
:104EF000436F7272656374212053617665206B6520
:104F00007920666F72207265706F72740D0A0000EE
:104F10006F6F2D0064656C2D000000006C612D002A
:104F2000796F2D00686F2D0065652D0068652D0077
:104F30006F682D00726F2D006465652D0000000004
:104F40006C61792D000000007472612D000000007A
:104F50006C65652D000000000D0A456E74657220B9
:104F60006120737472696E6720746F20796F646555
:104F70006C3A0D0A0000000041542B5253540D0AA4
:104F8000000000002F2A2A2A2A2A2A2A2A2A2A2A24
:104F90002A2A2A2A2A2A2A2A2A2A2A2A2A2A2A2A71
:104FA0002A2A2A2A2A2A2A2A2A2A2A2A2A2A2A2A61
:104FB0002A2A2A2A2A2A2A2A2A2A2A2A2A2A2A2A51
:104FC0002A2A2A2A2A2A2A2A2A2A2A2A2A2A2A2A41
:104FD0002A2A2A2A2A2A2A2A2A2A2A2A2A2A2A2A31
:104FE0002A2A2A2A2A2A2A2A2A2F0D002F2A20573B
:104FF000656C636F6D6520746F204553432D3230AF
:1050000032300D002F2A20446576656C6F70656420
:105010002061742074686520556E697665727369C5
:105020007479206F662044656C61776172650D004C
:105030002F2A202020627920436861726C657320DA
:10504000476F756572742C2044696D697472697359
:10505000204D6F7572697320616E64204C617273AC
:1050600020466F6C6B6572747320756E6465722078
:105070007468652067756964616E6365206F66207A
:1050800044722E204E656B746172696F7320547385
:105090006F7574736F730D002F2A2A2A2A2A2A2A01
:1050A0002A2A2A2A2A2A2A2A2A2A2A2A2A2A2A2A60
:1050B0002A2A2A2A2A2A2A2A2A2A2A2A2A2A2A2A50
:1050C0002A2A2A2A2A2A2A2A2A2A2A2A2A2A2A2A40
:1050D0002A2A2A2A2A2A2A2A2A2A2A2A2A2A2A2A30
:1050E0002A2A2A2A2A2A2A2A2A2A2A2A2A2A2A2A20
:1050F0002A2A2A2A2A2A2A2A2A2A2A2A2A2A2F0D28
:1051000000000000496E697469616C697A696E67B4
:105110002061636365737320706F696E742E2E2E29
:105120000D00000041542B43574D4F44453D320D77
:105130000A00000041542B43575341503D22455330
:10514000432D32303230222C22222C312C302C3183
:105150002C300D0A0000000041542B4349504150AF
:105160003D223139322E3136382E342E37220D0A77
:105170000000000041542B4349504D55583D310D1E
:105180000A00000041542B434950534552564552A2
:105190003D312C35303230300D0A000041636365FB
:1051A000737320706F696E7420696E697469616CC5
:1051B000697A65642E0D0000546F20636F6E6E6512
:1051C00063743A206E63203139322E3136382E34F2
:1051D0002E372035303230300D00000057656C63BB
:1051E0006F6D6520746F20416D6E6573696121205C
:1051F000416C70696E652045646974696F6E212128
:105200000D0A20456E746572206120737472696E98
:105210006720746F20796F64656C3A0D0A00000096
:105220003A000000496E7075743A20257300000042
:10523000496E636F7272656374210D0A000000008D
:10524000436F7272656374212120596F7520776FE7
:105250006E2025336420706F696E747321210D0AEE
:105260000A00000000000000000000000000000034
:10527000000000000000000000000000000000002E
:10528000000000000000000000000000000000001E
:10529000000000000000000000000000000000000E
:1052A00000000000000000000000000000000000FE
:1052B00000000000000000000000000000000000EE
:1052C00000000000232D302B20000000686C4C00F3
:1052D000656667454647000030313233343536372E
:1052E00038394142434445460000000030313233F2
:1052F0003435363738396162636465660000000012
:1053000008530120000000006C6962676C6F7373C2
:10531000000000009C2E0120762E01205E2E012030
:105320000000000000000000A4300120C230012075
:105330008E2F01205A2E0120402F0120F22E012015
:10534000000000000000000000000000000000005D
:1053500000000000000000001C3001202E2E012063
:105360007E32012094320120B6320120D833012050
:10537000E8320120F2320120F4340120F63201201B
:10538000FA3201202A3301205A3301208A330120C6
:10539000C8340120A0330120B2330120B8330120EA
:1053A00034340120FE340120303E01200000000092
:1053B000000000000000000000000000503E01203E
:1053C00000000000603F0120643F01200000000059
:1053D00000000000000000000000000000000000CD
:1053E000000000007A32012000000000304101205E
:1053F00000000000000000000000000000000000AD
:105400000000000000000000F23F0120000000004A
:10541000FE4101202C42012000000000000000009D
:10542000863F0120683F0120CA3F0120A43F0120A0
:105430000000000000000000DC4201202C4301209D
:10544000EA4301200100000020000000001BB7001B
:1054500000366E01010000001F0000000300000084
:105460003F000000010000002000000000366E0137
:10547000006CDC02030000001F00000002000000BE
:105480003F0000000100000010000000808D5B0064
:10549000001BB700000000001F0000000300000018
:1054A0003F0000000100000010000000001BB700DA
:1054B00000366E01010000001F0000000200000025
:1054C0003F000000010000001000000000366E01E7
:1054D000006CDC02030000001F000000020000005E
:1054E0001F0000000100000008000000808D5B002C
:1054F000001BB700000000001F00000003000000B8
:105500001F0000000100000008000000001BB700A1
:1055100000366E01010000001F00000002000000C4
:105520001F000000010000000800000000366E01AE
:10553000006CDC02030000001F00000002000000FD
:105540000F0000000100000004000000808D5B00DF
:10555000001BB700000000001F0000000300000057
:105560000F0000000100000004000000001BB70055
:1055700000366E01010000001F0000000200000064
:105580000F000000010000000400000000366E0162
:10559000006CDC02030000001F000000020000009D
:1055A000070000000100000002000000808D5B0089
:1055B000001BB700000000001F00000002000000F8
:1055C0000F0000000100000002000000001BB700F7
:1055D00000366E01010000001F0000000100000005
:1055E0000F000000010000000200000000366E0104
:1055F000006CDC02030000001F000000010000003E
:10560000070000000200000001000000808D5B0028
:10561000001BB700000000001F0000000100000098
:10562000070000000200000001000000001BB7009E
:1056300000366E01010000001F00000001000000A4
:1056400003000000020000000100000000366E01AF
:10565000006CDC02030000001F00000003000000DB
:10566000FFFFFFFF0400000001000000808D5B00D1
:10567000001BB700000000001F0000000300000036
:10568000000000000400000001000000001BB70043
:1056900000366E01010000001F0000000300000042
:1056A000FFFFFFFF040000000100000000366E0154
:1056B000006CDC02030000001F000000020000007C
:1056C000FFFFFFFF0600000001000000808D5B006F
:1056D000AAC2A20000000000230000000100000098
:1056E000020000000600000001000000AAC2A200A3
:1056F000001BB700000000001700000003000000BE
:10570000FFFFFFFF0600000001000000001BB700C4
:105710000024F400010000002F000000030000003E
:10572000FFFFFFFF06000000010000000024F4005E
:1057300080A8120101000000170000000200000014
:10574000FFFFFFFF060000000100000080A812011B
:105750005585450102000000230000000200000002
:10576000FFFFFFFF0800000001000000808D5B00CC
:10577000001BB700000000001F0000000300000035
:10578000FFFFFFFF0800000001000000001BB70042
:1057900000366E01010000001F0000000200000042
:1057A000FFFFFFFF080000000100000000366E014F
:1057B000006CDC02030000001F000000010000007C
:1057C000FFFFFFFF0A00000001000000808D5B006A
:1057D000007C920000000000270000000300000091
:1057E000FFFFFFFF0A00000001000000007C9200A4
:1057F000001BB700000000001300000002000000C2
:10580000FFFFFFFF0A00000001000000001BB700BF
:1058100000F8240101000000270000000200000041
:10582000FFFFFFFF0A0000000100000000F8240154
:1058300000366E01010000001300000001000000AE
:10584000FFFFFFFF0A0000000100000000366E01AC
:1058500000F04902030000002700000001000000E2
:10586000FFFFFFFF0C00000001000000808D5B00C7
:1058700000127A00000000002F000000030000006A
:10588000FFFFFFFF0C0000000100000000127A0083
:10589000001BB7000000000017000000020000001D
:1058A000FFFFFFFF0C00000001000000001BB7001D
:1058B0000024F400010000002F000000020000009E
:1058C000FFFFFFFF0C000000010000000024F400B7
:1058D00000366E010100000017000000010000000A
:1058E000FFFFFFFF0C0000000100000000366E010A
:1058F00080C3C901030000002F0000000100000068
:10590000FFFFFFFF0C0000000100000080C3C90181
:105910000048E801030000002F0000000100000023
:10592000FFFFFFFF0E00000001000000808D5B0004
:10593000B6A168000000000037000000030000006E
:10594000FFFFFFFF0E00000001000000B7A168008C
:10595000001BB700000000001B0000000200000058
:10596000FFFFFFFF0E00000001000000001BB7005A
:105970006D43D1000100000037000000020000006C
:10598000FFFFFFFF0E000000010000006E43D1008A
:1059900000366E01010000001B0000000100000045
:1059A000FFFFFFFF0E0000000100000000366E0147
:1059B000DB86A201030000003700000001000000A8
:1059C000FFFFFFFF1000000001000000808D5B0062
:1059D000001BB700000000001F00000002000000D4
:1059E000FFFFFFFF1000000001000000001BB700D8
:1059F00000366E01010000001F00000001000000E1
:105A0000FFFFFFFF1200000001000000808D5B001F
:105A1000AAC2A20000000000230000000200000053
:105A2000FFFFFFFF1200000001000000ABC2A20058
:105A3000001BB70000000000110000000100000082
:105A4000FFFFFFFF1200000001000000001BB70075
:105A50005585450101000000230000000100000001
:105A6000FFFFFFFF1400000001000000808D5B00BD
:105A7000007C9200000000002700000002000000EF
:105A8000FFFFFFFF1400000001000000007C9200F7
:105A9000001BB70000000000130000000100000020
:105AA000FFFFFFFF1400000001000000001BB70013
:105AB00000F82401010000002700000001000000A0
:105AC000FFFFFFFF1600000001000000808D5B005B
:105AD000E82A8500000000002B0000000200000002
:105AE000FFFFFFFF1600000001000000E92A85000B
:105AF000001BB700000000001500000001000000BE
:105B0000FFFFFFFF1600000001000000001BB700B0
:105B1000D1550A01010000002B0000000100000027
:105B2000FFFFFFFF1800000001000000808D5B00F8
:105B300000127A00000000002F00000002000000A8
:105B4000FFFFFFFF180000000100000000127A00B4
