:020000042001D9
:100000009711FF5F938181289702000093828205F8
:100010007390523093020000638402007350107C8E
:100020001701FFDF130101FE9700FFDF938080FDC2
:10003000638300008290732540F1814501461528B5
:100040009700FFDF938000FC63830000829097029B
:1000500000009382C2007390523003230000F5BF6A
:10006000F322203473231034F3233034D5BF82803D
:10007000828006849711FF5F938141211731FF5FD2
:10008000130101848142130300406385A2001A9189
:100090008502E5BF137101FF930200006319550843
:1000A00097820000938202491703FF5F130383F5D1
:1000B00093830188638C6200635A730003A5020076
:1000C00091022320A3001103E34A73FE97820000EC
:1000D000938242461703FFE71303C3F29703FFE738
:1000E000938343F2638C6200635A730003A502009A
:1000F00091022320A3001103E34A73FE0F100000B6
:10010000138301889723FF5F9383833B63577300B7
:10011000232003001103E34D73FE11C2029617451D
:10012000000013056524EF404020EF402027893769
:10013000F32710303707010013078702F98F89CBA7
:10014000F32700300967D98F739007307350300060
:100150000545978500009385E58517860000130601
:10016000A6853120EF40801DA280828082804111CF
:1001700006C2F32240F1130300006385620073009E
:0C0180005010F5BFB5289240410182806C
:1002000079713705680006D622D44AD052CC26D25E
:100210004ECE56CA5AC85EC662C466C26AC0192E9D
:10022000370520001126EF00807671651305052043
:1002300037343101012E130504D0EF00E073370588
:100240002000CD2C516513050588A12E377501209E
:100250001305452CC126130504D0EF00E0713705C6
:100260002000D924377501201305052DEF104024F7
:100270003775012013058533EF1080233775012072
:1002800013050535EF10C022377501201305C5375A
:10029000EF100022377501201305453EEF10402175
:1002A0003775012013050545EF10802037750120B3
:1002B000130505478526130504D0EF00E06B3705CD
:1002C00020008D2C3775012013050548A126371A0B
:1002D000008085651305CA31F129130504D0EF00AC
:1002E000A069370520008924377501201305454A88
:1002F0001526130504D0EF002068370520001D2CBB
:10030000377501201305054C3126130504D0EF0085
:10031000A06637052000392C377501201305054DDF
:10032000D52C130504D0EF00206537052000ED2AF9
:10033000130504D0EF00406437052000E52A1305BB
:1003400004D0EF00606337052000F92A130504D0BC
:10035000EF00806237052000F12A130504D0EF007A
:10036000A06137052000C922377501201305854E8D
:10037000EF1000143775012013054550EF1040139E
:10038000130404D03779012085651305CA311D2176
:10039000AA842285EF00405E9305C9212685EF10CF
:1003A00000417DD137052000712237050800371440
:1003B00000809D2A0569B7790120FD461386895280
:1003C000930509801305C4B1EF1040121305C4B1A1
:1003D0009124B77501209385C5531305C4B1EF105F
:1003E000A0351305C4B13D249306600313868952DA
:1003F000930509801305C4B1EF10400F1305C4B174
:10040000112CB77501209385C5551305C4B1EF10A4
:10041000A0321305C4B1B734310137696202DD2A55
:10042000938404D0377C0120377B0120B77C0120E6
:10043000B77B0120377D0120130909A026852D2BCC
:1004400085651305CA31BD2693054C1AAA8AEF109B
:10045000C01C01E54A850D23D5B703C70A009307E1
:100460003004E309F7FE93054B595685EF108037AA
:1004700093054B590145EF10E036AA85AA8A1385EA
:100480008C59EF00107156850D2BFD576319F5023D
:10049000856593850580B146138689521305C4B1DD
:1004A000EF10C0041305C4B1B52293054D5A1305CE
:1004B000C4B1EF1060281305C4B1A92A41B785471C
:1004C000E31EF5F6856A1386895293850A809306A2
:1004D00010021305C4B1EF1060011305C4B11D2A49
:1004E0009306600413864B5B93850A801305C4B1A1
:1004F000EF00D07FC9B7F1653715008093850520DF
:10050000130585A46F40105D3705008013050509AC
:100510006F602026B725F4003705008093850540DD
:10052000130505096F601030372701101C475D8DDA
:1005300008C78280B727011098471345F5FF798DCA
:1005400088C78280411122C426C206C6B72701107F
:1005500023AE0702985FB706030037340110558FAA
:1005600098DF2324040023260400AA84192133558C
:1005700095028547B24092447D1508CC1CC45CC4EA
:10058000224441018280374702109307F00F6847E9
:10059000E3EFA7FE1375F50F82800965130505715A
:1005A000E1AE411122C4372401101C5C06C626C2EC
:1005B0004AC093F7F7BF1CDC5C4037490210AA849D
:1005C00093E707405CC023200906B70708002320F3
:1005D000F904FD57232AF900232C09008947232811
:1005E000F900412E8604B354950213054006FD140C
:1005F00023209900512613054006232E0402AD2E18
:100600001C5CB240924493E787231CDC22440249DD
:1006100041018280B775012039711306001093855E
:1006200085224AD806DE22DC26DA4ED652D456D2AD
:100630005AD05ECE2A89EF10601201E54A85EF009C
:1006400050554A85EF10601003A7018889472A8A10
:10065000138401886314F70023200400B775012078
:100660009385C5224A85EF00507B631B05108547A3
:100670001CC03775012089470147814601468945DD
:10068000130545243EC68144EF00B050B74902101F
:10069000130BF00F914A83A78904E36EFBFE7C00E5
:1006A000A69783C70700850423A4F904E93DE394D2
:1006B00054FFE53583A701838847EF00C07A3727C9
:1006C00001101C4393F70740EDDF93567A00A30611
:1006D000D100916793F6F60F1376FA079387071008
:1006E00093957600377501202317F1000147930792
:1006F0001004B2951305C5272306C1008149EF00F8
:100700005049B74A0210930BF00F114B83A78A048C
:10071000E3EEFBFE7C00CE9783C70700850923A488
:10072000FA049535E39469FF8D3D83A701838847DB
:10073000EF006073372701101C4393F70740EDDF8C
:100740008149B74A0210130BF00F63183A05B1350F
:100750001C4081EF83A701838847EF00C0703727D3
:1007600001101C4393F70740EDDFF2506254D2545E
:100770004259B259225A925A025BF24B216182804D
:10078000B77501209385C5234A85EF001069E312F0
:1007900005EE89471CC00D4AE9BD03A78A04E36E34
:1007A000EBFE3307390103470700850923A4EA0458
:1007B000D93B61BF397122DC4AD84ED652D456D2C9
:1007C0005AD05ECE62CC06DE26DA66CA6AC82A84B1
:1007D000AE8923140100A3050100054BB77B01205E
:1007E00037490210377C0120B77A01200147814642
:1007F000014685451385CB1A5AC68144EF007039EE
:10080000130DF00F914C83278904E36EFDFE7C00ED
:10081000A69783C7070085042324F904AD33E39426
:1008200094FFA53B83A701838847352D3727011007
:100830001C4393F70740EDDF8144130DF00F914CFB
:1008400083278904E36EFDFE232409042D3B3C002D
:10085000A6972380A7008504E39494FF0347B10083
:10086000930720046306F704B72701109C4393F70E
:100870000740ADFFB77401209385041A2285EF006D
:10088000D0596305050EB775012093854521228552
:10089000EF00F07145E1B77501209385C5212285F0
:1008A000EF00F07041E9377401201304441A59A095
:1008B00083449100834781009E04BE94F939130656
:1008C0002004A68513058C1EEF00B02C83A701839E
:1008D0008847512B372701101C4393F70740EDDF62
:1008E000814C130DF00F63849C0063943C0763FC00
:1008F0003403B3079400238007008D4763F5970204
:1009000081473546930500022945F9143307F40061
:10091000834607006384C6006394A6002300B700E3
:100920008507E3E597FE953993858A202285EF00B8
:1009300010681DD92285F2506254D2544259B259DE
:10094000225A925A025BF24B624CD24C424D2161C8
:10095000828003278904E36EEDFE232409042531F8
:10096000B30794012380A700850CB5BF1384041A34
:10097000D1B737D512138280411102C6B24763E462
:10098000A70041018280B24785073EC6C5BF41111D
:10099000B707020022C406C6378400109387176782
:1009A0001CC41305803EC93F1C441C444167B2402F
:1009B000D98F1CC4224441018280011106CE22CC71
:1009C0002A84EF009058AA8522851922B775012044
:1009D0002A8441469385452B0A85F92D8147C146D6
:1009E0003307F40010433307F1001843631AE6009D
:1009F0009107E397D7FE0545F24062440561828086
:100A00007D55DDBF58451C454841B98F7D8D398DD9
:100A1000828018455C414845B98F7D8D398D828033
:100A20005C4118454845B98F3D8D82805C455841F1
:100A3000084593C7F7FFD98F3D8D82800111B777A5
:100A4000012052C456C203AA875D83AAC75D4AC863
:100A50003709008022CC26CA4EC65AC006CEAA89C3
:100A6000AA8401441349F9FF130B000405042285ED
:100A7000EF206023EF20802D2A87B3F725015286CF
:100A8000D6863A85BE85EF101059EF20001C88C02D
:100A90009104E31D64FDF24062444E85D244424914
:100AA000B249224A924A024B056182800547930768
:100AB00000023317B7008D8F9306F7FFB357F50089
:100AC0003307E0403315B500F58F798D5D8D828059
:100AD00031714ED783A7418852D556D306DF22DD28
:100AE00026DB4AD95AD15ECF62CD66CB6AC96EC7C2
:100AF000AA8A2E8A9389418881EB372500801305C5
:100B0000C5322D3F23A0A900B724008037274567B1
:100B10009387C4311307173098C337B7CDEF130746
:100B200097B8D8C337E7BA981307E7CF98C73757AE
:100B3000321013076747D8C713048A0093070004CD
:100B40003344F402138CC4310504131B64005A852A
:100B5000912B5286D6852A898523B307490113072D
:100B600000F82380E70013051A00634465050E0AA8
:100B70006115D2C011468C004A953D2B814B138ADA
:100B80000182938A8182414B63CB8B024A85052384
:100B9000FA506A541385C4314A59DA54BA592A5A58
:100BA0009A5A0A5BFA4B6A4CDA4C4A4DBA4D2961A3
:100BB0008280B307A9002380070005057DB79395C0
:100BC0006B0013060004CA958800FD2183270C00E2
:100BD00081463ED883274C003EDA83278C003EDCDA
:100BE0008327CC003EDEB7770120138E075EB777F0
:100BF00001201383075FB307DA00039D0700B38763
:100C0000DA0083970700032F0E00832D03003EC8F0
:100C1000939736003EC64147814CD25EC25572D48E
:100C20001AD236D076CE7ACA3AD62ECC0818029F7F
:100C3000B3079D034247E24593F23C0086022E959E
:100C4000EE92BA97B3E7670318018A07BA9783A5AC
:100C500007FCB2472E95B385970183A709008A0543
:100C6000850CAE979C43839502003E958135F257E3
:100C7000F24E32573ED8E25776957D173EDED25778
:100C80002ADA524F3EDC82561253225EA14F51F7B0
:100C90008906110E1103E390F6F7E28714183386E4
:100CA000E6001042944311079107B29623AED7FE97
:100CB000E31667FF850BC9BD83D7C500011122CCA0
:100CC00026CA06CE4AC84EC613F78700AA842E84C9
:100CD00065E7D8416347E000B8416344E00001455F
:100CE000C1A058546DDF03A904009396370123A0D7
:100CF000040063DE060668488357C400918B99C7D9
:100D00005C401D8D5C5899C33C401D8D5C540C505B
:100D10002A86814626858297FD570357C400631DA6
:100D2000F5009440F54763E4D708B70740208507EE
:100D3000B3D7D700858BA5CF1C48232204001CC045
:100D40009317370163D80700FD576314F5009C40E3
:100D500091E368C84C5823A02401D1D193074404DF
:100D60006384F50026854529232A04028DBF0C5093
:100D70008546014626850297FD57E31FF5F69C4000
:100D8000A5DF75476385E70059476395E70023A012
:100D90002401B1B78357C40093E707042316F40076
:100DA000F2406244D2444249B249056182801367ED
:100DB00007042316E400EDB783A90501E38109F2D6
:100DC00003A905008D8B23A0350133093941014763
:100DD00091E3D84918C4E35420F11C540C50CA863E
:100DE0004E8626858297634AA0008357C4007D55AE
:100DF00093E707042316F40065B7AA993309A940BD
:100E0000D9BF9C49B9CF011122CC06CE2A8411C585
:100E10001C4D81E72EC60D22B245977700009387BF
:100E20006780639BF5004C408397C50095C722857A
:100E30006244F240056149B5977700009387878047
:100E40006394F5000C44CDB7976700009387877BC8
:100E5000E39CF5FC4C44C9BFF24062440145056186
:100E6000828001458280AA8509E99387418388436E
:100E700097050000938525F9C1A2938701838843D4
:100E800049B7411122C406C62A842316B500231788
:100E9000C50023200500232205002324050023226A
:100EA000050623280500232A0500232C05002146DA
:100EB00081451305C505652C970700009387676A70
:100EC0005CD0970700009387E76C1CD4970700005D
:100ED000938727715CD4970700009387E77300D04E
:100EE0001CD8B240224441018280970500009385BE
:100EF00085F199A2411126C2130680069384F5FF5D
:100F0000B384C4024AC02E8922C406C6938544070E
:100F10007D262A8419C923200500232225013105B5
:100F200008C413868406814599242285B240224450
:100F300092440249410182801C4DADE3411106C635
:100F400022C497070000938787FA1CD593874183B3
:100F50009C43232405042326050423280504631445
:100F6000F50085471CCD2A841D2848C02285052808
:100F700008C422852D2048C44840014691451137B8
:100F800008440546A545F53D48440946C945D53DB3
:100F900085471CCCB24022444101828082804111AD
:100FA0009387418326C284434AC006C69C4C22C410
:100FB0002A8999E326854937938484048044DC4058
:100FC000FD1763D607009C40B1CF8440C5BF03170F
:100FD000C40031E7C17785072322040623200400DB
:100FE00023220400232404005CC423280400232AB1
:100FF0000400232C0400214681451305C405852ADD
:10100000232A0402232C0402232404042326040498
:101010002285B24022449244024941018280130455
:10102000840679BF91454A85F13588C02A8451FDEF
:10103000B1472320F900E9BF797122D44AD052CCBC
:1010400056CA5AC85EC606D626D24ECE2A8AAE8A5E
:10105000130485040149054BFD5B09ECB250225491
:101060004A8592540259F249624AD24A424BB24BE3
:1010700045618280044483294400FD1963D409003A
:101080000040E1BF83D7C400637BFB008397E4008B
:1010900063877701A6855285829A3369A900938474
:1010A0008406E1BF93870183AA85884309AC9387AF
:1010B0000183AA85884385A2B3C7A5008D8B33071A
:1010C000C50081E78D4763EEC700AA876370E50A14
:1010D00083C6050085078505A38FD7FEE3EAE7FEF3
:1010E000828093763500AA8791CA83C6050085075A
:1010F0008505A38FD7FE93F63700FDB79376C7FF1C
:10110000138606FE63F0C70683A3050083A245008D
:1011100083AF850003AFC50083AE050103AE450173
:1011200003A3850183A8C5019385450223A0770009
:1011300003A8C5FF23A2570023A4F70123A6E701B4
:1011400023A8D70123AAC70123AC670023AE170148
:101150009387470223AE07FF75B79041910791052A
:1011600023AEC7FEE3EBD7FEE3E4E7F682803D4320
:101170002A876373C3029377F700BDEFADE59376DB
:1011800006FF3D8ABA960CC34CC30CC74CC7410737
:10119000E36BD7FE11E28280B306C3408A06970252
:1011A000000096966780A6002307B700A306B70045
:1011B0002306B700A305B7002305B700A304B700B3
:1011C0002304B700A303B7002303B700A302B700AB
:1011D0002302B700A301B7002301B700A300B700A3
:1011E0002300B700828093F5F50F93968500D58D87
:1011F00093960501D58D61B793962700970200005D
:1012000096968682E78086FA9680C1171D8F3E9655
:10121000E374C3F8A5B7DDC183A7C5FF411122C49C
:1012200006C626C21384C5FF63D307003E94AA8472
:10123000EF005025938781889C4381EF232204008F
:1012400023A481882244B2402685924441016F0044
:101250009023637EF40014403307D4006396E700C4
:101260009843DC43369718C05CC0D9BFBA87D843CF
:1012700019C3E37DE4FE94433386D700631F8600E1
:101280001040B29694C33386D700E31DC7FA1043CB
:101290005843B29694C3D8C375B76375C400B147B9
:1012A0009CC04DB71040B306C4006316D70014436A
:1012B0005843B29614C058C0C0C369B782800111A8
:1012C00026CA93843500F19806CE22CC4AC84EC671
:1012D000A104B14763F3F404B14463E2B4042A897E
:1012E000EF00501A9387818898433A8439E09387B6
:1012F000C1889C4391E781454A85C12223A6A188E4
:10130000A6854A855D2AFD5963193507B147232013
:10131000F9004A85EF00301729A0E3D004FCB1475B
:101320001CC10145F2406244D2444249B2490561C0
:1013300082801C40858F63CF0702AD4663F6F600BE
:101340001CC03E9404C031A05C406313870223A4F8
:10135000F1884A85EF0030131305B4009307440069
:1013600061993307F5405DDF3A94898F1CC05DBFFA
:101370005CC3C5B72287404095BF13043500719800
:10138000E30285FCB305A4404A85052AE31C35FB2E
:10139000B5BF39713EDA2ED232D436D63AD842DCD5
:1013A00046DE9387018322CC804326CA06CEAA84D8
:1013B00009C41C4C99E3228541360C4454102686FE
:1013C000228536C6EF106004F2406244D2442161A7
:1013D0008280011126CA4AC806CE22CC4EC652C40B
:1013E000AA842E8909C51C4D99E3EFF0FFB49C4CEB
:1013F000804481E72685EFF03FB49767000093872C
:101400006722631CF402C0408357C400A18BB1C79C
:101410001C48A1C7FD59294A1C4483450900FD17F2
:10142000B1E91CC463DE07062286A9452685412949
:10143000FD576308F502294535A09767000093879B
:1014400067206314F4008044C1B797670000938756
:10145000671BE31BF4FAC04445BFA2852685B12B68
:1014600055D97D55F2406244D2444249B249224A9C
:10147000056182801CC4050963D70700184C63CB43
:10148000E700638945011C401387170018C02380BB
:10149000B70059B7228626851D21E31F35F7D1B73E
:1014A0001C401387170018C029472380E70061B745
:1014B00093870183AA85884329BF411122C42A84C6
:1014C0002E859717FF5F23AB07FE06C6EF20705FE0
:1014D000FD576319F5009717FF5F938727FE9C431D
:1014E00091C31CC0B24022444101828035713ECB81
:1014F000A6DA36C73AC942CD46CF9387018386DE46
:10150000A2DCCAD8844363DC05009307B0089CC002
:101510007D55F6506654D65446590D618280930726
:101520008020231AF1002AC42ACC814799C19387CD
:10153000F5FF7D592E8474012C0026853EC83ECED1
:10154000231B210136C2EF001003635525019307C9
:10155000B0089CC05DDCA247238007005DBF41113D
:1015600022C42E848395E50006C6EF10201463493B
:1015700005007C48AA977CC8B24022444101828081
:101580008357C4007D777D17F98F2316F400EDB7DC
:1015900083D7C500011122CC26CA4AC84EC606CE42
:1015A00093F70710AA842E843289B68991C7839550
:1015B000E5008946014699238357C4007D777D174E
:1015C000F98F2316F4008315E4006244F240CE86BE
:1015D0004A86B24942492685D244056165A6411131
:1015E00022C42E848395E50006C6092BFD570357B8
:1015F000C400631BF500FD77FD17F98F2316F40077
:10160000B2402244410182808567D98F2316F400BD
:1016100068C8FDB78395E5004DA93367B500FD5354
:101620000D8B79E7B7877F7F9387F7F71041944158
:10163000B372F6003363F600BE92B3E262006397C2
:10164000720C6318D6065041D441B372F60033636E
:10165000F600BE92B3E262006398720A631BD6047E
:1016600010459445B372F6003363F600BE92B3E2C0
:1016700062006391720A631ED6025045D445B3726C
:10168000F6003363F600BE92B3E26200639A72081A
:101690006311D60210499449B372F6003363F60021
:1016A000BE92B3E26200639372085105D105E30F65
:1016B000D6F61317060193970601631CF70013571C
:1016C000060193D706013305F7409375F50F91E9AD
:1016D00082804183C1833305F7409375F50F91E113
:1016E00082801377F70F93F7F70F3305F740828067
:1016F0000346050083C60500050585056313D6006E
:1017000065FA3305D640828011059105E312D6FEB5
:10171000014582802105A105E31CD6FC014582809C
:101720003105B105E316D6FC014582804105C105AE
:10173000E310D6FC01458280AA8703C70500850710
:101740008505A38FE7FE75FB8280AA87850703C7FF
:10175000F7FF6DFF3385A7407D15828041114AC098
:101760002E8926C2B285AA844A8522C406C632843E
:10177000EF003077AA86636F8500B307A90083C79F
:10178000070089CB01442285B24022449244024999
:1017900041018280A2854A86268575212A847DD1D1
:1017A0003306954081452685512169FDE9BF03C770
:1017B000050005E782806311F7028547B386F500CF
:1017C00083C6060091E282803306F50003460600D8
:1017D0006314D6008507DDB7050583470500E1FFE3
:1017E0000145828001119387018322CC804326CA60
:1017F00006CE3C4CAA84B1EF130500052EC6EFF0CF
:101800007F8AB24528CC232005002322050023240B
:1018100005002326050023280500232A0500232C84
:101820000500232405022326050223280502232A76
:101830000502232C0502232E050223200504232262
:1018400005042324050423260504230E0500232272
:101850000502304C6244F2402685D244854605613B
:1018600009A009E5084219E182803E859307150029
:1018700003C8F7FF2E8705078348F7FF6398080022
:10188000631008022320060001458280E31518FF3B
:10189000E9FE1CC2230005008280814739A889E641
:1018A000850703C8F7FF2E8705078346F7FFE31870
:1018B000D8FEE30408FEA38F07FE1CC2828001113C
:1018C00022CC26CA4AC806CE4EC6AA842E893284A5
:1018D00009C51C4D99E3EFF02FE697670000938749
:1018E00067D4631BF406C0401C4C1CC48357C4005F
:1018F000A18BD9C31C48C9C31C4808409379F90F70
:101900001379F90F1D8D5C486347F500A285268584
:10191000EFF02FCF35E51C440505FD171CC41C4016
:101920001387170018C0238037015C486389A7001C
:101930008357C400858B89CBA9476317F900A2851B
:101940002685EFF00FCC0DEDF24062444A85D2447B
:101950004249B2490561828097670000938787CE2C
:101960006314F400804449B797670000938787C9E0
:10197000E31CF4F6C0448DBFA28526853D282DDDED
:101980007D59D9B7411122C42A842E85B285368665
:101990009717FF5F23A407B206C6EF205015FD5727
:1019A0006319F5009717FF5F938747B19C4391C375
:1019B0001CC0B240224441018280411193870183BF
:1019C00026C2844322C44AC006C62A892E8491C4F2
:1019D0009C4C81E72685EFF02FD697670000938710
:1019E00067C4631CF402C0400317C40093170701C7
:1019F000C18393F68700BDEE93F607019DEEA547E0
:101A00002320F900136707042316E4007D55B24034
:101A100022449244024941018280976700009387E3
:101A200067C26314F4008044C1B7976700009387CE
:101A300067BDE31BF4FAC04445BF918B95C74C5872
:101A400091C9930744046385F5004A85EFF0AFFC24
:101A5000232A04028357C4002322040093F7B7FD0E
:101A60002316F4001C481CC08357C40093E787006A
:101A70002316F4001C4881EF8357C400130700208D
:101A800093F707286385E700A2854A8501228357DB
:101A9000C40013F7170005C75C4823240400B307EC
:101AA000F0401CCC1C480145BDF38317C40013F75C
:101AB000070831DF93E707042316F40081BF898B01
:101AC000014791E3584818C4F1BF411122C42A8448
:101AD0002E859717FF5F23A3079E06C6EF20E078A9
:101AE000FD576319F5009717FF5F9387279D9C4368
:101AF00091C31CC0B240224441018280411122C4E2
:101B00002A842E85B28536869717FF5F23A8079A09
:101B100006C6EF208078FD576319F5009717FF5F21
:101B20009387C7999C4391C31CC0B2402244410192
:101B300082801971A6DAAE848395E500A2DC86DE88
:101B4000328463DC050083D7C40023A0060093F72A
:101B5000070885E7930700401DA0300836C6EF0050
:101B6000D039B246E34105FE7247BD67F98F7977F8
:101B7000BA9793B717009CC2F1BF930700041CC02B
:101B8000F6506654D65401450961828083D7C5005A
:101B9000011122CC06CE26CA4AC8898B2E8489CF51
:101BA000930774041CC01CC885475CC8F24062449B
:101BB000D24442490561828074003000AA84953F76
:101BC000A2452A892685EFF08FEF01ED8317C40027
:101BD00013F7072061FFF19B93E727002316F4001A
:101BE000C1B797F7FFFF938787309CD48357C40012
:101BF00008C008C893E707082316F400A2475CC88A
:101C0000B24791CF8315E4002685EF00503201C919
:101C10008357C400F19B93E717002316F400835702
:101C2000C4003369F9002316240149B793F5F50F71
:101C30002A966314C5000145828083470500E38D21
:101C4000B7FE0505FDB781CA83480600958DAA95A4
:101C500063F4A50001458280834705006392170362
:101C60009387F6FF91E382803308F5003307F6008F
:101C700003480800034707006314E800FD17DDB7B9
:101C80000505F9B78280828001114AC803A9850041
:101C900022CC52C45AC006CE26CA4EC656C22E8484
:101CA000328B368A63EE260983D7C50013F70748BF
:101CB00051C704408C495848AA8AB389B4408D441E
:101CC000B384E4020947B3C4E402138716004E97B5
:101CD00063F3E400BA8493F70740D9C3A685568519
:101CE000EFF0EFDD2A890DE5B14723A0FA00835715
:101CF000C4007D5593E707042316F400F2406244C4
:101D0000D2444249B249224A924A024B056182803A
:101D10000C484E86EFF04FBA8357C40093F7F7B7DD
:101D200093E707082316F4002328240144C84E999A
:101D3000B38434412320240104C4528963732A01EB
:101D4000528908404A86DA85EF0090211C440145FB
:101D5000B38727411CC41C403E992320240179BF2E
:101D600026865685EF0070242A895DFD0C4856852D
:101D7000EFF06FCA95BF83D7C500717126D34AD1E2
:101D80004ECF06D722D552CD56CB5AC95EC762C5B3
:101D900066C393F70708AA892E89B284B9C39C4900
:101DA000A9E39305000436C6EFF06FD12320A90004
:101DB0002328A900B24615E1B14723A0F9007D55BB
:101DC000BA502A549A540A59FA496A4ADA4A4A4B8A
:101DD000BA4B2A4C9A4C4D61828093070004232A07
:101DE000F90093070002A30CF1029307000302DA43
:101DF000230DF10236CE930B5002976A0000938AAE
:101E00006A86054C294B26848347040099C3639B4B
:101E10007709B30C9440638D0C00E6862686CA854C
:101E20004E859D35FD576301F51AD256E69636DA92
:101E300083470400638A0718FD579304140002D0F7
:101E400002D63ED202D4A301010682DC83C504007F
:101E500015465685E13B13841400825731E513F78C
:101E6000070109C713070002A301E10613F7870062
:101E700009C71307B002A301E10683C604001307D4
:101E8000A002638BE602B2572684814625460347AB
:101E9000040093051400130707FD6374E6068DC65E
:101EA0003ED61DA005048DB7330555413315AC0052
:101EB000C98F3ED0A28459BF72479306470018438A
:101EC00036CE634907023AD6034704009307E0027F
:101ED000631FF704034714009307A002631BF70274
:101EE000F2470904138747009C433ACE63C10702B7
:101EF0003ED235A83307E04093E727003AD63ED0DC
:101F0000E1B7B387670385462E84BA9749B7FD5773
:101F1000C5B7050402D28146814725460347040020
:101F200093051400130707FD6376E606F1F2834577
:101F300004000D461755000013054573C53911CD32
:101F400097570000938787721D8D93070004B397FE
:101F5000A700025505045D8D2AD08345040019466B
:101F6000175500001305C57093041400230CB1022B
:101F7000753925C597E7FEDF9387C70895E70257B0
:101F8000F2471377071009CF91073ECED257D29769
:101F90003EDA95BDB387670385462E84BA97BDBFE9
:101FA0009D07E19BA107D5B77808970600009386A7
:101FB000E6CD4A860C104E8597000000E700000031
:101FC000FD572A8AE314F5FC8357C9007D5593F722
:101FD0000704E39707DE5255E5B37808970600003B
:101FE0009386C6CA4A860C104E85012AD1BF7971E4
:101FF00056CA9C49BA8A984522D426D24ECE52CC93
:1020000006D64AD05AC85EC6AA892E84B284368AB9
:1020100063D3E700BA879CC00347340419C385071C
:102020009CC01C4093F7070281C79C4089079CC055
:102030000329040013796900631A0900130B940142
:10204000FD5B5C449840998F634CF9041C408346C7
:10205000340493F70702B336D000A5EB130634041B
:10206000D2854E85829AFD576303F5041C401146C4
:102070009840998B544481446397C700B384E640E9
:1020800063D3040081441C4418486354F700998FBB
:10209000BE94014969047D5B63982405014509A844
:1020A00085465A86D2854E85829A631E75017D5576
:1020B000B250225492540259F249624AD24A424BD7
:1020C000B24B456182800509ADBF3307D4001306CA
:1020D0000003A301C7040347540493871600A29783
:1020E0008906A381E7049DBF85462286D2854E8559
:1020F000829AE30E65FB050945B7797122D426D291
:102100004AD04ECE06D652CC56CA5AC8B68983C6D5
:1021100085019307E0063289AA842E84138635044C
:102120006380F61E63E2D706930730066382F60AE1
:1021300063EDD700638A061E930780056386F61653
:10214000930A24042301D40469A8930740066386F4
:10215000F60093079006E395F6FE1C40084393F6BD
:10216000070893054500C1C21C410CC363D8070092
:102170001307D002B307F040A301E4049756000010
:102180009386864F294765A0930730076382F61A26
:1021900063EFD7009307F006638FF60493070007F9
:1021A000E390F6FA9C4193E707029CC109A89307C4
:1021B00050076382F60493078007E393F6F89307CA
:1021C0008007A302F404975600009386264CDDA0F6
:1021D0001C43938A2504938647009C4314C32381A0
:1021E000F5048547B5A293F607041C410CC3BDDE78
:1021F000C207C187A5BF0C401C4313F8050813850F
:1022000047006305080008C39C4339A093F5050403
:1022100008C3FDD983D707001307F006638AE60CCD
:1022200097560000938646452947A30104044C4075
:102230000CC463C5050008406D9908C099E3B28AD3
:1022400091CDB28AB3F5E702FD1AB69583C50500B4
:102250002380BA00B3D5E70263F2E70AA147631E01
:10226000F7001C40858B91CB58401C4863C7E700A2
:1022700093070003A38FFAFEFD1A3306564110C8D8
:102280004E87CA867000A285268595337D5A6315D0
:10229000450D7D55B250225492540259F249624A7A
:1022A000D24A424B45618280A382D50497560000F2
:1022B0009386863C0C40084313F805081C41110521
:1022C0006300080208C313F7150001C793E5050270
:1022D0000CC04147B9FB0C4093F5F5FD0CC0B1B7FC
:1022E00013F8050408C3E30008FEC207C183E1BF79
:1022F0009756000093864638214705BFAE8799B7A9
:1023000094411C43CC4913F8060813854700630623
:10231000080008C39C438CC301A808C393F60604B5
:102320009C43F5DA2390B70023280400B28A89BFC2
:102330001C43D04181459386470014C383AA0700FC
:102340005685EFF0BF8E01C53305554148C05C404E
:102350001CC8A30104042DB714485686CA852685D7
:102360008299E30845F31C40898B8DE7B2474844C6
:10237000E352F5F23E8539BF85465686CA852685E5
:102380008299E30865F1050A5C443247998FE34579
:10239000FAFEE9BF014A930A94017D5BF5B71C463A
:1023A000FD171CC663DA0700184E63C5E700A9478E
:1023B0006394F5006FF0AFD01C422E851387170091
:1023C00018C22380B7008280011122CC26CA4AC8D5
:1023D0004EC652C406CE2A89AE893284B304D600D2
:1023E0007D5A63149400014509A8834504004E8674
:1023F0004A8575370504E31645FFF2406244D2442E
:102400004249B249224A05618280357122CD26CBEC
:102410004AC94EC706CF52C556C35AC1DEDEE2DCFA
:10242000E6DAAA89AE843289368409C51C4D99E35F
:10243000EFE09FB0975700009387C71E639CF40C92
:1024400083A4490083D7C400A18BFDC79C48EDC776
:1024500093070002A304F1029307000302D22305AD
:10246000F10222C6930B5002975A0000938A8A1FEA
:10247000054C294B4A848347040099C36391770F25
:10248000B30C2441638D0C00E6864A86A6854E85F2
:10249000253FFD576309F51E9256E69636D28347CF
:1024A00004006382071EFD571309140002C802CE00
:1024B0003ECA02CCA309010482D483450900154613
:1024C0005685EFF0AFF613041900C24759E913F728
:1024D000070109C713070002A309E10413F78700E6
:1024E00009C71307B002A309E104834609001307D3
:1024F000A0026380E608F2474A84814625460347E6
:10250000040093051400130707FD6379E60AB5CAB2
:102510003ECE85A8975700009387C7126395F400B5
:1025200083A4890005B7975700009387A70DE39B05
:10253000F4F083A4C90039B7A6854E85EFF0EFC744
:1025400001D97D55FA406A44DA444A49BA492A4ACF
:102550009A4A0A4BF65B665CD65C0D618280050484
:1025600019BF330555413315AC00C98F3EC82289C8
:10257000A9B7324793064700184336C66349070296
:102580003ACE034704009307E002631FF7040347B2
:1025900014009307A002631BF702B24709041387D4
:1025A00047009C433AC663C107023ECA35A83307B9
:1025B000E04093E727003ACE3EC8E1B7B387670310
:1025C00085462E84BA9725BFFD57C5B7050402CAB4
:1025D00081468147254603470400930514001307ED
:1025E00007FD6378E606F1F2834504000D461755B2
:1025F00000001305A507EFF06FE311CD975700001A
:102600009387C7061D8D93070004B397A700424523
:1026100005045D8D2AC8834504001946175500003E
:1026200013050505130914002304B102EFF00FE0B0
:102630003DC197E7FEDF9387E79C95E74247B247A6
:102640001377071009CF91073EC69257D2973ED213
:1026500015B5B387670385462E84BA97ADBF9D072E
:10266000E19BA107D5B7780097060000938606D6B0
:1026700026860C084E8597000000E7000000FD57F5
:102680002A8AE314F5FC83D7C40093F70704E39A7E
:1026900007EA125545BD780097060000938606D3D9
:1026A00026860C084E85EFF05FA5D1BF411122C4EC
:1026B0002A842E85B28536869707FF5F23A007E020
:1026C00006C6EF10D03EFD576319F5009707FF5F70
:1026D0009387C7DE9C4391C31CC0B2402244410192
:1026E0008280AA95AA876385B70003C7070001E720
:1026F0003385A74082808507FDB7411122C42A8413
:102700002E85B2859707FF5F23AA07DA06C6EF106A
:102710001037FD576319F5009707FF5F938707DAB6
:102720009C4391C31CC0B2402244410182804111AC
:1027300022C42A842E859707FF5F23A107D806C6E7
:10274000EF103035FD576319F5009707FF5F93874A
:10275000E7D69C4391C31CC0B24022444101828011
:1027600063F3A504B386C500637FD5029345F6FFE6
:102770008147FD176393F50082803387F600034895
:1027800007003387C7002A9723000701DDB7338787
:10279000F500834607003307F50085072300D700BF
:1027A000E317F6FE82808147E5BF81E5B2856FE0E1
:1027B0001FB1011122CC06CE26CA4AC84EC63284A9
:1027C00001EEEFE05FA50149F24062444A85D24440
:1027D0004249B24905618280AE84AA891D202689BA
:1027E000E37485FEA2854E85EFE07FAD2A8969DD21
:1027F000A6852286EFE05F8CA6854E85EFE0BFA11F
:10280000E1B783A7C5FF1385C7FF63D50700AA9566
:102810009C413E95828079714ECE93D9450122D458
:1028200026D252CC56CA5AC89394C50006D64AD06E
:102830005EC693F9F97F2A84328BB68AB18013DAA7
:10284000F501638109089307F07F6383F90C9357BF
:10285000D5018E04DD8CB7078000DD8C131935009F
:10286000938919C0814B13D54A011394CA0013757B
:10287000F57F318093DAFA0155CD9307F07F63013C
:10288000F5109357DB010E045D8CB70780005D8C5B
:10289000130515C093173B00014793962B00D98E63
:1028A0004E95FD16B94533465A011308150063EAE3
:1028B000D50E975500009385A5DE8A06AE96944204
:1028C000AE96828633E9A400630D090485C8268587
:1028D0008121130755FFF14763C6E702F547130946
:1028E00085FF998FB3942401B357F400DD8C33191D
:1028F00024019309D0C0B389A940ADB711291305AC
:102900000502C1BF930485FDB31494000149D5B7F6
:1029100033E9A400630B09002A899309F07F8D4BEA
:1029200099B781448149854B3DBF81449309F07F2C
:10293000894B15BFB3676401A1CF05C82285C92E95
:10294000930655FFF14763C7D7027547930785FF85
:10295000158F3314F4003357EB00598CB317FB0079
:102960001307D0C03305A74005BF5A855526130568
:102970000502F9B7130485FD33148B008147CDB7E9
:10298000B367640191CBDA871305F07F0D4731B748
:1029900001440145054711B701441305F07F09477C
:1029A000EDBD416F930EFFFF1357090193D8070147
:1029B0003379D901B3F7D701B3852803B386270349
:1029C000B30FF7023383F50193D506019A95330EC1
:1029D000170363F3F5017A9E93D30501B3F5D5018F
:1029E000B3F6D601135F0401B372D401C205B695E4
:1029F000B30E5702B386220333092F033303D901E1
:102A000013D906011A993307E7036374D9014163A7
:102A10001A97935E0901C169BA9E1387F9FF33794A
:102A2000E900F98E13D404014209F98C36993387F1
:102A30009702CA933303F402B3869802B3878802DD
:102A4000B388660093560701C69663F36600CE9777
:102A500093D80601C169B38FF8009387F9FFFD8E03
:102A60007D8FB3889202C206BA96B3075402B304AC
:102A70009F0233038F02BE9413D40801A29463F320
:102A8000F4004E93C167FD1733F7F400B3F8F80074
:102A900042071E9E469733392E017697330427014D
:102AA000369EB336DE00B308F401338FD8003337D7
:102AB000D70133342401598CC180B3B8F801B3363F
:102AC000DF002694B3E6D80036941A9493577F011A
:102AD00026045D8C93179E00CD8FB337F000135EF4
:102AE0007E0113179F00B3E7C701D98F1317740036
:102AF0006358070A13D71700858BD98F1317F40172
:102B0000D98F05809306F83F635ED00813F77700EE
:102B100001CF13F7F70091456308B700138747000B
:102B2000B337F7003E94BA87131774006358070051
:102B3000370700FF7D17798C930608401307E07F65
:102B4000634CD70E13D737009317D401D98F0D805C
:102B5000320413F7F67F52073180598C7E063367B3
:102B6000C400B250225492540259F249624AD24AE5
:102B7000424BB24B3E85BA8545618280528626849F
:102B8000CA875E8789466309D70A8D46630FD708CF
:102B90008546E319D7F6014481479DA05686DDB7E7
:102BA0002A888DB78545958D13078003E345B7FEC9
:102BB0007D476349B7041308E84133170401B3D6CE
:102BC000B700B3970701558FB337F000D98F33544F
:102BD000B40013F7770001CF13F7F70091466308AD
:102BE000D70013874700B337F7003E94BA8713170F
:102BF0008400634807041317D4018D83D98F0D8097
:102C00008146B9B70557158F130500023357E40005
:102C100081466386A5001308E843B3160401D58FE7
:102C2000B337F000D98F01446DB7370408008147EE
:102C30009306F07F014629BF014481479306F07F48
:102C400001BF01448147854621B713D74501B70627
:102C500010002A869387F6FF1377F77F1305E03F6E
:102C6000ED8FFD81635FE502014591E59305E0414C
:102C70007D5563D3E5008280D58F93063043998ECE
:102C8000FD4563CAD5001307D7BEB397E700335598
:102C9000D6005D8D828013053041198D33D5A70094
:102CA000828001458280411106C622C426C231CDF0
:102CB0009357F54133C4A7001D8C9354F501228529
:102CC00081281307E041A947098F63CAA702AD47CE
:102CD000898F5505B357F4003314A4002685B20735
:102CE0001377F77F5207B1837E05D98F33E7A700AB
:102CF000B240228522449244BA8541018280551512
:102D0000B317A40026850144D9BF01478147E5BF19
:102D1000C1676376F5029307F00FB3B7A7008E077C
:102D2000130700021D8FB357F50017550000130558
:102D3000E59AAA9703C507003305A74082803707A5
:102D40000001C147E36EE5FCE147D9BF011122CC88
:102D5000370400809347F4FF3727E93F06CEED8F15
:102D60001307B71F635FF7023707F07F63CAE700F7
:102D7000AE862A86EF10B06DF24062440561828013
:102D80000A86A1280D8985476306F50289472246F0
:102D9000B246630DF5020DC5024592457129A18D1C
:102DA000E1BF014701468146EF10A009F2406244AD
:102DB000056182802246B24602459245B5296DBF23
:102DC000024592450547EF10C0077DB70245924581
:102DD0000547EF100007A18D45B75971A2D43727D9
:102DE000E93F1394150086D6A6D2CAD0CECED2CC57
:102DF000D6CADAC8DEC6E2C4E6C2EAC06EDE058024
:102E00001307B71F6359871437E702401307B797B3
:102E1000B289634F8706975700009387A75F904357
:102E2000D4436353B03AEF109062B727F93F9387CA
:102E3000B71F2A8AAE8A6306F414175400001304DD
:102E4000E45D104054408544EF1070602A86AE86E1
:102E500023A0A90023A2B9005285D685EF10305FC8
:102E600010405440EF10B05E23A4A90023A6B9007F
:102E7000B6502654268506599654F649664AD64ACF
:102E8000464BB64B264C964C064DF25D65618280F2
:102E9000372739411307B71F2E8963568710370725
:102EA000F07F6352E40C135A4441130AAABE9317ED
:102EB0004A011D8CA285AA84EF200039ED332A87B0
:102EC000AE873A86BE862685A2853ACC3ECE9754FA
:102ED000000093842458EF1090579040D440EFF0B6
:102EE0009F93AE8B2A8BEF2020362A846D3B2A8756
:102EF000AE872A86AE865A85DE853AD03ED2EF105E
:102F000010559040D440EFF01F91814601462AD4DD
:102F10002ED6EF10F042B3368000850663160522E8
:102F2000975700009387879309475286CE852808D4
:102F3000C123AA84E35E09F203A7490083A7C9005D
:102F4000B7060080358FB58F23A2E90023A6F900CC
:102F5000B304A04031BF08C24CC22324060023267C
:102F60000600814431B72A86AE86EF10504E23A466
:102F7000A90023A6B90023A0A90023A2B900814477
:102F8000C5BD975700009387E7499043D443175432
:102F900000001304A4498544EF10704B2A8AAE8ABE
:102FA0001040544055B5EF10E0029757000093874A
:102FB00067489043D4432A8AAE8AEFF0DF8597575B
:102FC00000009387A7479043D443EF104058EF2069
:102FD000A027AA84C939975700009387A743904335
:102FE000D4432A8BAE8BEFF01F832A86AE865285A0
:102FF000D685EF10D045975700009387274290431E
:10300000D4432A8DAE8C5A85DE85EFF0DF802A8A84
:10301000AE8AFD476A85E6855286D68663C79702E3
:10302000EF10F0429387F4FF1397270097470000B3
:103030009387C77ABA979C43AA8D2E8C638B87009F
:1030400023A0A90023A2B90025A0EF105040AA8D0B
:103050002E8C93574C011358444193F7F77FB307D5
:10306000F840C14663C6F60423A0B90123A2890132
:103070006E86E2866A85E685EF10703D5286D686BA
:10308000EF10F03C23A4A90023A6B900E35209DE07
:10309000B707008033CC8701BD8D23A0B90123A2DF
:1030A000890123A4A90023A6B900B3049040C9B3A1
:1030B00097570000938707379043D4435A85DE859E
:1030C00042C4EFF04FF52A8AAE8A2A86AE866A8518
:1030D000E685EF10D0372E8C2A86AE862A842EC63F
:1030E0006A85E685EF10B0365286D686EF10303608
:1030F00097570000938787339043D4432A8AAE8A38
:103100005A85DE85EFF02FF15286D686EF103034E7
:103110002A86AE862A8AAE8A2285E285EF1030336F
:10312000224893D7450193F7F77F3308F840930778
:103130001003E28CAA8D2E8C63CA070123A0A9007C
:1031400023A2B900228D2DB78D46D9BB9757000019
:103150009387472F9043D4435A85DE85EFF0AFEB3A
:10316000324C2A8AAE8A2A86AE862285E285EF1004
:10317000102E2A86AE862A8DAE8C2285E285EF102F
:10318000102D5286D686EF10902C9757000093870B
:10319000E72B9043D4432A8AAE8A5A85DE85EFF026
:1031A0008FE75286D686EF10902A2A86AE862A8A24
:1031B000AE8A6A85E685EF109029AA8D2E8C23A011
:1031C000A90023A2B9006DB5EF106038B727F93F09
:1031D0009387B71F2A8AAE8A630EF4021754000041
:1031E0001304C42310405440FD54EF1040362A8687
:1031F000AE8623A0A90023A2B9005285D685EF1080
:10320000102510405440EF10803423A4A90023A6B9
:10321000B900B9B9975700009387C7209043D443AA
:103220001754000013048420FD54EF1040322A8A02
:10323000AE8A1040544055BF39715AD0139B1500C7
:103240004AD84ED662CC66CA06DE22DC26DA52D4D2
:1032500056D25ECE6AC86EC6135B1B00B707403EEF
:103260002E8CAA8C3289B6896355FB10EF10D07D65
:10327000630905266686E2866685E285EFF0AFD9AA
:10328000975700009387071F9043D4432A84AE8446
:10329000EFF06FD8975700009387471E9043D443B1
:1032A000EF10E02A2286A686EFF0EFD697570000AF
:1032B0009387471D9043D443EF1070192286A6864A
:1032C000EFF06FD5975700009387471C9043D44386
:1032D000EF10E0272286A686EFF0EFD39757000085
:1032E0009387471B9043D443EF1070162286A6861F
:1032F000EFF06FD2975700009387471A9043D4435B
:10330000EF10E0242286A686EFF0EFD02A8AAE8A5C
:1033100097570000938787129043D4432285A68550
:10332000EFF06FCF2A8BAE8B5286D6862285A6858C
:10333000EFF06FCE2A84AE844A86CE866685E2851B
:10334000EFF06FCD2A86AE862285A685EF1030106D
:103350002A86AE865A85DE85EF10700F97570000DB
:103360009387C7102A86AE868843CC43EF10300E71
:103370000DAA2A86AE86EFF00FCA975700009387F2
:10338000670F9043D4432A84AE84EFF0CFC8975799
:1033900000009387A70E9043D443EF10401B228672
:1033A000A686EFF04FC7975700009387A70D90436D
:1033B000D443EF10D0092286A686EFF0CFC59757E9
:1033C00000009387A70C9043D443EF104018228647
:1033D000A686EFF04FC4975700009387A70B904342
:1033E000D443EF10D0062286A686EFF0CFC29757BF
:1033F00000009387A70A9043D443EF10401522861C
:10340000A686EFF04FC1B737D33F938727332A8A79
:10341000AE8AE3DF67EFB707E93F63C3670B175770
:1034200000001307A704B707E0FF08434C433E9B87
:103430008147DA863E863E8DEF107001DA8DAE8BC5
:103440002A8B97570000938767FF9043D4432285C8
:10345000A685EFF04FBC6A86EE86EF10407F2A8D7E
:10346000AE8D5286D6862285A685EFF0CFBA2A8405
:10347000AE844A86CE866685E285EFF0CFB92A868D
:10348000AE862285A685EF10807C2A86AE866A8568
:10349000EE85EF10C07B2A86AE865A85DE85EF105A
:1034A000007BF2506254D2544259B259225A925A75
:1034B000025BF24B624CD24C424DB24D2161828094
:1034C00097570000938787F903AB070083AB47004A
:1034D00097570000938707F903AD070083AD4700B6
:1034E0008DB797570000938767F88843CC4355BF43
:1034F000130101D5232E3129B689131827003ADC90
:103500003ED4174700001307E7459387F9FF232EA2
:10351000B12742972326112A2324812A2322912A84
:103520002320212B232C4129232A512923286129B7
:103530002326712923248129232291292320A129AB
:10354000B1562AD22EDA3EC8832D0700E344D600B6
:103550001307D6FFE147B347F7023ED0850713971D
:103560002700998F8E0782559386F9FF3387DD00F8
:10357000B2973384D540130917003ECA0409229933
:1035800063430702225A93172400D29701458145CD
:10359000634504008843EFF00FF188C0CCC00504F8
:1035A000A104E31224FF63C40D06C24B125D1C0983
:1035B00013993B0013048900139A3D003E99BC0BFC
:1035C000840B3E9A6A944A8BEA8A014C814C63C808
:1035D0000B0203260B0083264B0003A50A0083A5DC
:1035E0004A00A10A611BEFF00FA32A86AE8662850E
:1035F000E685EF00D0752A8CAE8CE39C8AFC23A074
:10360000840123A29401A1042109E39E44FB1397A2
:103610002D007018930687FF330CE600980036974C
:103620003AD81257139439009387FDFF3A9437071D
:1036300000207D173ACC370780007D178A073ADED5
:10364000981CBA97EE84130D011D3ED66ECE93974B
:103650003400981CBA9703AA07F683AA47F6635664
:103660009008E247930901043389F400975700005A
:103670009387C7E303A847009C430E0942C23EC09C
:1036800097570000938707DD03A847009C436A997A
:1036900042C63EC411A03E89024692465285D68556
:1036A000EFF06F97EF10503AEFF0EFDF2246B2469F
:1036B0002A8BAE8BEFF02F962A86AE865285D68562
:1036C000EF10E058EF105038032609008326490018
:1036D00023A0A900DE855A85EF0070672A8AAE8A8A
:1036E000930789FF9109E3182DFB524BD68552852C
:1036F0005A86EF009023975700009387A7DB9043EB
:10370000D4432A89AE89EFF00F91EF00100D97573F
:1037100000009387A7DA9043D443EFF0CF8F2A8637
:10372000AE864A85CE85EF108052AE892A89EF1089
:10373000B031AA8AEFF02FD72A86AE864A85CE8589
:10374000EF10E0502A89AE89635760139387F4FF26
:10375000981C8A07BA9703AA07DD614733076741B8
:10376000B356EA403397E6003307EA405D4A330A2E
:103770006A4123A8E7DC335A4741B69A634B4011AC
:10378000014681464A85CE85EF10803B6318051AB5
:10379000F2471386F4FF634FF600939724009800D6
:1037A000F117BA9701479443F117558FE39D87FFAF
:1037B000631D0728B25783A707DD63930728C25705
:1037C0000547F117D4430507EDDE93871400BE8A41
:1037D000BA944247925D62C03309F7000257330A38
:1037E000F70062478E070A0A3A9922570E09B30971
:1037F000FD001C093A9A3E9903250A00EFF0AFCA72
:10380000C2472324A9002326B90063C90704CA8B31
:103810006E8B014C814C31A003A50B0083A54B009E
:10382000E11B03260B0083264B00210BEFE0BFFEBC
:103830002A86AE866285E685EF0070512A8CAE8CB2
:10384000E31C8BFC23A0890123A29901850A110A9C
:10385000A1092109E3D254FB024CD5BB014C814C98
:1038600023A0890123A29901850A110AA10921092E
:10387000E3D454F9D5B7D247639807189387F4FF78
:103880008A07981CBA9703AA07DD135A7A41E359AD
:1038900040EF850A6354904C06488547631508122B
:1038A000638EF400D400054703A8060093071700B1
:1038B0009106631B08103E87E398F4FE524763535A
:1038C000E0028547630CF7468947631DF70093873D
:1038D000F4FF981C8A07BA9703A707DD2A072983F4
:1038E00023A8E7DC8947E31DFAE897570000938790
:1038F000E7B78843CC434A86CE8642C0EF102035D6
:1039000002482A89AE89E30D08E69757000093879D
:10391000E7B58843CC435246EF0030012A86AE8695
:103920004A85CE85EF10A0322A89AE8901468146AC
:103930004A85CE85EF10C020E30C05E4524D4A8540
:10394000CE853306A041F24DEF00207E9757000050
:10395000938747B003A9070083A947002A8C4A86AA
:10396000CE86AE8CEF1060246347054617570000E3
:103970001307C7B3104354436285E685EFE0BFE900
:10398000EF10900C9C1C139424003E94AA8BEFF033
:103990008FB14A86CE86EFE01FE82A86AE86628522
:1039A000E685EF10C02AEF10300A138B1400981C24
:1039B00093172B00BA972328A4DC13078D013ACA6A
:1039C00023A877DD55A801470A0737060001941C94
:1039D000369733080641232807DD63D597028A0707
:1039E0003387F6008C0093962400032707DDAE97FB
:1039F000AE967D1611A098433307E64098C3910711
:103A0000E39BD7FE05485DBD97570000938707A34A
:103A10009043D443014AEF104019E34305D6850A89
:103A2000094AE34B90E697570000938727A4884301
:103A3000CC434A86CE86EF1080212A89AE8989B38D
:103A400093871400BE8ABE8469B3981C931726001E
:103A5000BA97524783A707DDF24D21173ACA328B36
:103A600081EF93972400E1179400B697F117D443A0
:103A70007D1B2117E5DE3ACA975700009387079F01
:103A80008843CC435246EF00406A2A84AE846347A1
:103A90000B3893173B003E87940BB38BE6003EC474
:103AA00017570000130787A093172B009400B38CBF
:103AB000F6005E8C032907008329470011A0BE8C05
:103AC00003A50C00611CEFF00F9E2286A686EFE096
:103AD0009FD42324AC002326BC002285A6854A86D9
:103AE000CE86EFE05FD398002A84AE849387CCFF24
:103AF000E31797FD1C1A3EC0EE8CBE84014463C8D8
:103B00000C06975700009387E799174C0000130C99
:103B10006CE6DE898843CC43014D814D014909A8FB
:103B2000210CA1096347240303250C0083254C00C5
:103B300003A6090083A649000509EFE0DFCD2A8628
:103B4000AE866A85EE85EF0090202A8DAE8DE3D992
:103B50002CFD23A0A40123A2B401980B0504A10409
:103B600093878BFF63027703BE8BE3DC0CF8014D78
:103B7000814D23A0A40123A2B401980B0504A10444
:103B800093878BFFE31277FF6257894763C7E70884
:103B90006348E01C21E7A247024401458145B30C7C
:103BA000F40003A60C0083A64C00EF00501A938784
:103BB0008CFF630D9401BE8C03A60C0083A64C0001
:103BC000EF00F01893878CFFE31794FF63050A005A
:103BD000B7070080BD8DD25688C2CCC28320C12ACF
:103BE0000324812A13F57A008324412A0329012A18
:103BF0008329C129032A8129832A4129032B0129E9
:103C0000832BC128032C8128832C4128032D0128D4
:103C1000832DC1271301012B828062578D47E31F3B
:103C2000F7FA635D6021931B3B009C1CDE979309B0
:103C3000011313848BFF4EC083AD07EC03AD47EC3B
:103C40004E9411A03E84032C0400832C44006E8605
:103C5000EA866285E685EF00900F2A89AE842A867F
:103C6000AE866285E685EF00907E6E86EA86EF007E
:103C7000100E08C44CC42320240144C0930784FFC1
:103C8000CA8D268DE39089FC854763D9671B131481
:103C90003B00024B9C1CBE9B611403AD0BECB304B8
:103CA0008B0083AB4BEC11A0BE8403AC040083AC4F
:103CB00044006A86DE866285E685EF005009AA899F
:103CC0002E892A86AE866285E685EF0050786A8660
:103CD000DE86EF00D00788C4CCC423A0340123A221
:103CE0002401938784FF4E8DCA8BE31FFBFA824722
:103CF0002104014533898700814503260900832675
:103D000049006119EF00B004E39924FF032801136F
:103D100003274113032681138327C11363190A0C58
:103D2000BE88D2574283328823A06700D8C323A419
:103D3000070123A6170188CBCCCB4DB59387F4FFA1
:103D4000981C8A07BA9703A707DDF256758F23A838
:103D5000E7DC49BEA15702D06FF0FF800148B9BE31
:103D60000247A24701448144B30CF700A2873A847A
:103D700011A0BA8C03A60C0083A64C002685BE8534
:103D8000EF00E07C13878CFFAA84AE87E31394FFD7
:103D90002E8403250113832541132686A286EF0076
:103DA000106B63140A06D25684C2C0C2635160030A
:103DB000241A05449040D4400504A104EF00207962
:103DC000E35A8BFE63050A00B7070080BD8DD2560B
:103DD00088C6CCC621B59C1C139424006285E68558
:103DE0003E94EF1060462328A4DC268B71B1B70601
:103DF0000080358FB58FAD8ED25523A00501D8C177
:103E000090C5DCC588C9D4C9D1BBB70700803D8C3B
:103E1000D25784C3C0C3E34D60F97DB76257894769
:103E2000E3CDE7DE6349E00001458145E31807DAA9
:103E3000E3030ADA71BB81440144A1BF0145814516
:103E4000F1B539719397150022DC26DA52D456D297
:103E500062CC06DE4AD84ED65AD05ECE66CA6AC852
:103E60006EC685833708403E2E84AA84328AB68A7D
:103E70003A8C63D70701EF10203D2687A28761C1E6
:103E80002686A2862685A285EFE0FF982A89AE893C
:103E90002A86AE862685A285EFE0FF979747000029
:103EA000938747629043D4432A8BAE8B4A85CE8555
:103EB000EFE07F9697470000938747619043D44394
:103EC000EF00F0584A86CE86EFE0FF949747000057
:103ED000938747609043D4439D2D4A86CE86EFE07A
:103EE0009F93974700009387675F9043D443EF0009
:103EF00010564A86CE86EFE01F92974700009387C0
:103F0000675E9043D443A1252A8DAE8D631A0C04BD
:103F10002A86AE864A85CE85EFE0FF8F9747000060
:103F20009387C75C9043D443EF0070525A86DE8675
:103F3000EFE07F8E2686A286192D2A87AE87F25063
:103F40006254D2544259B259225A925A025BF24BED
:103F5000624CD24C424DB24D3A85BE852161828081
:103F6000974700009387874D9043D4435285D68569
:103F7000EFE07F8A2A8CAE8C6A86EE865A85DE85D3
:103F8000EFE07F892A86AE866285E685EF00304CB9
:103F90004A86CE86EFE03F885286D686EF00304BC9
:103FA00097470000938787549043D4432A89AE896A
:103FB0005A85DE85EFE03F862A86AE864A85CE8525
:103FC00079232A86AE862685A285EF0050482A8767
:103FD000AE87B5B786058581828093D745410111AB
:103FE00093F7F77F22CC26CA4AC84EC652C406CEE3
:103FF00056C25AC0938417C04D472E84AA892E8971
:104000002A8A6348970863C40406370B1000930A92
:10401000FBFFB3DA9A40B3F7BA00C98FAA862E879E
:104020009DCB974700009387E74C9043D4430523EB
:1040300001468146EF007037635DA00063560400BF
:10404000B3549B403389840093CAFAFF33795901F2
:10405000014AD2864A87F2406244D2444249B24978
:10406000224A924A024B3685BA850561828097477B
:104070000000938727489043D443D12901468146C5
:10408000EF00B032E357A0FC63430406014A014944
:10409000C9B713073003635E970093070040AA86F1
:1040A0002E87E39AF4FAAE862A865521AA862E87B1
:1040B0005DB79387D7BEFD5AB3DAFA00B3F7AA000B
:1040C000AA862E87C9DB974700009387A7429043B3
:1040D000D443B52901468146EF00302DE35BA0F6BD
:1040E0006340040293C7FAFF337AFA009DB70604CF
:1040F000058033643401014A29DC3709F0BF91BFE0
:10410000D147638FF40093074003858F8544B394B0
:10411000F400A69963F94901130914004E8AD9B72E
:1041200013091400C1B74E8A75BF411193D7454199
:1041300022C406C693F7F77F3284B5EF9397150034
:104140008583C98FADC7974700009387273B90436E
:10415000D443EFE04FECD177938707CB2E876341B1
:10416000F40E93D7454193F7F77F9387A7FCA29767
:104170009306E07F63CDF6046349F00A9306B0FC32
:1041800063D0D708B1679387073563C28704974721
:1041900000009387273703A8070083A8470063CD53
:1041A000050A9043D4434285C685EFE0CFE6B2408E
:1041B0002244410182809306F07F2E87E399D7FA4B
:1041C0002A86AE866926B240224441018280974702
:1041D00000009387273203A8070083A84700E3D293
:1041E00005FC1747000013076732032807008328E0
:1041F00047009043D4434285C685EFE0CFE145BFF9
:10420000B7051080FD15938767036D8FD207D98F8F
:10421000174700001307873010435443BE85EFE073
:104220008FDFB240224441018280B2402244B70570
:104230001080FD156D8F93954701D98D41018280C6
:10424000974600009386062C9042D442EFE0AFDC04
:10425000B240224441018280174700001307872B98
:1042600003280700832847002DBF411106C6D92027
:10427000B240930780051CC17D55410182804111E8
:1042800006C64D28B240930780FA1CC17D554101F6
:1042900082807D15133515008280411106C659288C
:1042A000B240930780051CC17D55410182804111B8
:1042B00006C64920B240930780051CC17D554101C7
:1042C0008280B7370080373700809387C78B13070A
:1042D000C70B638CE700938781839443369563759E
:1042E000E50088C33685828098C3FD56E5BF41113D
:1042F00006C622C426C285476319F5002E84B384FE
:10430000C500631E9400014531A02D209307800550
:104310001CC17D55B2402244924441018280034534
:1043200004000504EF005079E9BFAA8581460146E3
:104330000145D1A89387018388438280411122C41B
:1043400006C697070000938787142A8499C381457E
:104350002D2A9387418388431C5591C382972285D8
:10436000EF2090634111974700009387671C22C498
:10437000174400001304C41B1D8C26C206C6098402
:10438000BE8411E4B24022449244410182807D14F3
:1043900093172400A6979C438297E5B7411197474E
:1043A00000009387271822C41744000013048417C1
:1043B0001D8C26C24AC006C6098481443E89639684
:1043C0008402974700009387E71517440000130401
:1043D00024161D8C098481443E89639F8400B24069
:1043E0002244924402494101828093972400CA9753
:1043F0009C4385048297E1B793972400CA979C4316
:1044000085048297D9BF938701899C432A8E9DE3B7
:1044100017E7FE5F1307C70123A8E18817C5FEDF72
:10442000130545BEBA8719C51C4117E5FE5F232554
:10443000F508BA87D8437D487D556347E804630E85
:104440000E0203A887086301080493182700C29886
:1044500023A0C8000323081005463316E600336383
:10446000C3002320681023A0D80889466317DE0004
:1044700083264810558E2322C810930617000A077A
:10448000D4C3BA978CC701458280797152CC56CA81
:104490005AC85EC606D622D426D24AD04ECE62C4B0
:1044A0002A8B2E8A938A0189854B03A40A0011C89E
:1044B0004440832984081389F4FF8A04A294635E2C
:1044C0000900B250225492540259F249624AD24A27
:1044D000424BB24B224C45618280630E0A006395C9
:1044E00009007D19F114E1BF93172900CE9783A726
:1044F0000708E39847FF5840DC407D1763182703FF
:1045000023222401F9DF032C44006388090083A6D9
:10451000091033972B01F98E89EE8297584083A7B3
:104520000A00E31487F9E30EF4FA41B723A204006A
:10453000D1BF93162900CE968C4283A64910758F61
:1045400001E75A858297D9BF2E858297C1BF370868
:1045500010007D18B378B8008E089357D50101116B
:1045600013D745013378D800B3E7170193D8460134
:104570000E0826CA4AC89374F77F93F8F87F13573A
:10458000D60106CE22CC4EC613D9F501FD82336783
:1045900007010E050E06338814416316D9226351B4
:1045A000000F63980802B366C70063870656930539
:1045B000F8FF89E92A963335A600BA97AA9732857B
:1045C0008544B1A89306F07F631DD8009304F07F63
:1045D00079AA9306F07F638CD418B7068000558FB4
:1045E000C2859306800363C9B608FD4663C0B6065C
:1045F000130800023308B840B3160701B358B600D9
:1046000033160601B3E616013336C000558E335714
:10461000B7002A963E97B337A600BA97328513970C
:1046200087006356071485041307F07F6385E44809
:10463000B70680FFFD16FD8E9355150005899397EB
:10464000F6014D8D5D8D93D7160015A2938605FE5C
:1046500093080002B356D700014863881501130878
:104660000004B305B8403318B7003366C8003336CA
:10467000C000558E014771BF598E3336C000DDBF73
:10468000630B080AB38598408DE4B3E6A700638BFB
:1046900006409386F5FF99E63295BA973336C50002
:1046A000B29739BF1308F07F639D0501BA87328541
:1046B00031BF9306F07FE38BD8FEB7068000D58F1D
:1046C000AE869305800363C4D506FD4563CBD50252
:1046D000130800023308D8403353D500B3950701BF
:1046E00033150501B3E565003335A0004D8DB3D614
:1046F000D7003295B387E6003336C500B297C6843B
:1047000039BF938506FE13030002B3D5B7000148F5
:104710006388660013080004B306D8403398D700B6
:104720003365A8003335A0004D8D8146D9B75D8D26
:104730003335A000DDBF9386140093F5E67FBDE11D
:10474000B3E6A700A9E463830636B366C70085C253
:104750002A96BA973335A600AA9713978700328511
:1047600063570700370780FF7D17F98F854413775C
:104770007500630407341377F5009146630FD73251
:104780009306450033B5A600AA9736853DA699DE67
:10479000598EE30D06E20149B70740000145930435
:1047A000F07F21AE9305F07F6385B6302A963E9761
:1047B000B337A6003E971315F7010582518D935725
:1047C0001700B6846DB76356000D63910808B36691
:1047D000C700638306349305F8FF91E93306C540AB
:1047E0003335C500998F898F32858544B1A09306F2
:1047F000F07FE30DD8DC9306800363C8B608FD465E
:1048000063CFB604130800023308B840B31607019B
:10481000B358B60033160601B3E616013336C000AE
:10482000558E3357B7003306C5403387E740B3375B
:10483000C500B307F740328513978700E35907F2A5
:10484000370480007D147D8CAA8975A29306F07FC1
:10485000E38FD4F0B7068000558FC28569BF938679
:1048600005FE93080002B356D7000148638815017E
:1048700013080004B305B8403318B7003366C80006
:104880003336C000558E014779BF598E3336C0008C
:10489000DDBF6304080C3388984095E8B3E5A700B2
:1048A000638E05269305F8FF91E93305A640B3070B
:1048B000F7403336A600918F368905BF1303F07F8A
:1048C000631F6800BA8732859304F07F7DA093054B
:1048D000F07FE389B8FEB7058000CD8FC28513084D
:1048E00080036348B8067D48634EB8021303000294
:1048F0003303B340335EB50033986700331565006A
:104900003368C8013335A0003365A800B3D5B700BC
:104910003305A640B307B7403336A600918FC6844F
:10492000368919BF138805FE130E000233D807011C
:1049300001436388C50113030004B305B3403393F7
:10494000B7003365A3003335A0003365A800814567
:10495000C1B75D8D3335A000DDBF9385140093F59D
:10496000E57FB5E533E8A700B365C700B1E4631898
:1049700008006389051ABA8732853689CDBBE3887A
:1049800005DE3308C540B385E740B3380501B3857C
:10499000154113948500635A04003305A640B307FC
:1049A000F7403336A600918FC9BF3365B800630F57
:1049B0000516AE87428565BB63180800638A051635
:1049C000BA873285368919B1E38205C0E9B3B309E4
:1049D000C540B33535013384E7400D8C9315840011
:1049E00063D70506B309A640B307F740333636014F
:1049F0003384C740368935C02285EFE06FB1130795
:104A000085FFFD4763C1E70693070002998F3314C2
:104A1000E400B3D7F9005D8C3395E900634E970647
:104A2000058F93071700FD4663C5F60413070002C0
:104A30001D8F3356F500B316E4003315E500D18E13
:104A40003335A000558DB357F40081440DB333E5E1
:104A5000890055F181478144C1A84E85EFE04FABF5
:104A60001305050269BF130485FD339489000145D0
:104A700075B70517130600023357E40081466387B4
:104A8000C700930600049D8EB316D400558D3335B0
:104A9000A000598D814755BFB70780FFFD17998C3E
:104AA000E18FF1B1BA873285AE84D1B1BA87328550
:104AB0007DB99304F07F8147014513978700635BBD
:104AC000070085041307F07F6389E406370780FF3A
:104AD0007D17F98F1397D7010D81598D1307F07F3B
:104AE0008D836399E4005D8D814709C5B707080090
:104AF0000145014913F7F47FB2075207F2406244BF
:104B0000B1839315F901D98F33E7B700D2444249F5
:104B1000B249BA8505618280C28491B9BA8732856B
:104B2000C284A1BD81470145014941BF8147EDBF15
:104B300001450149B70740009DB18147014559BF73
:104B400013D74501B7071000FD1713D846012A8374
:104B5000AA8E1377F77F1305F07FB3F8B700328F73
:104B6000F58FFD811378F87FFD82631AA70033EE7D
:104B70006800054563140E006305E8008280631534
:104B8000A8005D8E05457DFA0545E31907FFE3970B
:104B9000F8FEE395EEFF6388D5006DF333E568001A
:104BA0003335A00082800145828013D84501B707C4
:104BB0001000FD1713D746011378F87F930EF07F8E
:104BC000B3F8B7002A83F58FFD81328E1377F77F14
:104BD000FD826318D801B3EEA80063850E06F9556F
:104BE0000DA86316D701B3EEC700E39A0EFE631D4E
:104BF000080433E5A8001335150019E35D8E15CEC2
:104C000011E5638AD50085C9FD5521A0FD5591C2E6
:104C1000B6852E858280E34807FF6354E800F5F9E6
:104C2000E5B7E3E217FF639CF800E36E6EFCE36810
:104C3000C3FF8145F9BF8545E9BF65FDE9B7E3E0FD
:104C4000F8FEC5BFE30107FB4DFF014545BF37082F
:104C500010007D18B378B8008E089357D501011164
:104C600013D745013378D800B3E7170193D846012D
:104C700026CA4AC89374F77F13D9F5011357D60192
:104C80000E0806CE22CC4EC693F8F87F9305F07F2F
:104C90000E05FD82336707010E066395B800B36504
:104CA000C70099E193C61600338814416393262305
:104CB000635C000F63950804B366C7008DC2138858
:104CC000F4FF631A08002A963335A600BA97AA970C
:104CD0003285854495A89306F07F6399D4021377B3
:104CE00075006302074E1377F5009146630DD74CAC
:104CF0009306450033B5A600AA973685E9A1930629
:104D0000F07FE38ED4FCB7068000558F93068003B6
:104D100063C80609FD4663C0060793050002B38514
:104D20000541B316B700B35806013316B600B3E613
:104D300016013336C000558E335707012A963E9729
:104D4000B337A600BA97328513978700E35907F85F
:104D500085041307F07F6386E446B70680FFFD16DF
:104D6000FD8E9355150005899397F6014D8D5D8D48
:104D700093D71600ADB7930608FE93080002B3560A
:104D8000D700814563081801930500043388054165
:104D9000B31507014D8E3336C000558E014779BFDC
:104DA000598E3336C000DDBF630B080AB3859840C7
:104DB0008DE4B3E6A700638D063E9386F5FF99E682
:104DC0003295BA973336C500B29721B71308F07FF2
:104DD000639D0501BA873285E5AC9306F07FE38BCE
:104DE000D8FEB7068000D58FAE869305800363C4D6
:104DF000D506FD4563CBD502130800023308D84021
:104E00003353D500B395070133150501B3E56500AC
:104E10003335A0004D8DB3D6D7003295B387E60069
:104E20003336C500B297C68405B7938506FE1303D3
:104E30000002B3D5B7000148638866001308000478
:104E4000B306D8403398D7003365A8003335A000A7
:104E50004D8D8146D9B75D8D3335A000DDBF93867A
:104E6000140093F5E67FA9E5B3E6A7009DE463850A
:104E70000634B366C700E38406E62A96BA9733354C
:104E8000A600AA97139787003285E35A07E43707ED
:104E900080FF7D17F98F854499B58DDE598E6309A2
:104EA00006220149B707400001459304F07F21AE77
:104EB0009305F07F6385B6302A963E97B337A600F8
:104EC0003E971315F7010582518D93571700B6844D
:104ED00039B56355000D63920808B366C700E380D7
:104EE00006E01388F4FF631B08003306C540333522
:104EF000C500998F898F32858544B1A09306F07FD4
:104F0000E38FD4DC9306800363C60609FD4663CEB7
:104F1000060593050002B3850541B316B700B358E3
:104F200006013316B600B3E616013336C000558EBF
:104F3000335707013306C5403387E740B337C50011
:104F4000B307F740328513978700E35A07D8370431
:104F500080007D147D8CAA896DA29306F07FE3808A
:104F6000D4D8B7068000558F71BF930608FE93080A
:104F70000002B356D7008145630818019305000469
:104F800033880541B31507014D8E3336C000558E69
:104F900001474DB7598E3336C000DDBF6304080C9E
:104FA0003388984095E8B3E5A700638D05269305FF
:104FB000F8FF91E93305A640B307F7403336A60062
:104FC000918F368915BF1303F07F631F6800BA877E
:104FD00032859304F07F7DA09305F07FE389B8FECE
:104FE000B7058000CD8FC285130880036348B806DB
:104FF0007D48634EB802130300023303B340335EAF
:10500000B50033986700331565003368C801333540
:10501000A0003365A800B3D5B7003305A640B30799
:10502000B7403336A600918FC684368929BF1388CE
:1050300005FE130E000233D8070101436388C50142
:1050400013030004B305B3403393B7003365A300E3
:105050003335A0003365A8008145C1B75D8D333578
:10506000A000DDBF9385140093F5E57FBDE533E82F
:10507000A700B365C700B1E4631808006388051A88
:10508000BA8732853689A1B9E38B05C43308C54098
:10509000B385E740B3380501B38515411394850006
:1050A000635A04003305A640B307F7403336A60021
:1050B000918FC9BF3365B800630E0516AE87428570
:1050C00039B9631A080063890516BA8732853689AB
:1050D0009304F07F29B1EDDDE9B3B309C540B335E1
:1050E00035013384E7400D8C9315840063D70506A2
:1050F000B309A640B307F740333636013384C740BF
:10510000368935C02285EFD0BFC0130785FFFD4724
:1051100063C1E70693070002998F3314E400B3D705
:10512000F9005D8C3395E900634E9706058F930770
:105130001700FD4663C5F604130700021D8F3356A2
:10514000F500B316E4003315E500D18E3335A00029
:10515000558DB357F400814459B633E5890055F1B4
:1051600081478144F1A04E85EFD09FBA1305050217
:1051700069BF130485FD33948900014575B7051790
:10518000130600023357E40081466387C700930685
:1051900000049D8EB316D400558D3335A000598D73
:1051A000814755BFB70780FFFD17998CE18F05BE7A
:1051B000BA873285AE8425B6BA8732850DB6930498
:1051C000F07F8147014513978700635B07008504E3
:1051D0001307F07F6387E406370780FF7D17F98F99
:1051E0001397D7010D81598D1307F07F8D83639934
:1051F000E4005D8D814709C5B707080001450149F5
:1052000013F7F47FB2075207F2406244B18393155B
:10521000F901D98F33E7B700D2444249B249BA8580
:1052200005618280BA873285C284A9BD8147014564
:10523000014951BF8147EDBF01450149B707400012
:10524000ADB18147014569BF13D74501B7061000CD
:105250009387F6FF1377F77F1306E03FED8FFD810D
:105260006354E6041306D0416358E6003705008016
:105270001345F5FF2E958280D58F93063043998E86
:105280007D46634DD6001307D7BEB397E70033556D
:10529000D5005D8D99C93305A0408280130530414A
:1052A000198D33D5A700FDB701458280AA85371532
:1052B0000080130585A41DA0411122C406C6A9477C
:1052C0002A846314F5003545D53722852244B2403F
:1052D0004101E9BF1C4103A3070002831C4103A352
:1052E000470002831C4103A3470102839387C183C4
:1052F000370700026383A70001478E05BA9511673F
:1053000093074700AE977D5588C3BA9590C194C363
:10531000014582807D5582806F007077411106C6FD
:10532000732540F1EF109053B24041016F1090523D
:10533000011106CE2EC6DD3719C9B245054763688F
:10534000B7001C41F24003A3470005610283F2400D
:105350007D550561828001114AC806CE22CC26CA3D
:105360004EC69387C18301496313F500094944413F
:1053700081E82A84B7090080639B240185475CC0CB
:10538000F2406244D2444249B249056182808D456F
:1053900091C09D4583A7890BA2860146DC4F1385EA
:1053A000890B85048297C9BFA1C5011122CC2EC6E5
:1053B00006CE2A84EFF09FF69387C183B24563142B
:1053C000F402B70700809387870B631EF50093F7FD
:1053D000B5FF8D466399D7001C416244F24003A398
:1053E000870205610283F24062447D550561828037
:1053F0007D558280A1C5011122CC2EC606CE2A84FD
:10540000EFF0DFF19387C183B2456314F402B7076D
:1054100000809387870B631EF50093F7B5FF8D46D9
:105420006399D7001C416244F24003A3470205611F
:105430000283F24062447D55056182807D55828001
:1054400001112EC632C436C206CE22CC26CAAA8488
:10545000EF00F0632A84EFF07FEC9387C1839246DC
:105460002246B2456395F400854763F88700F24011
:105470006244D2447D5505618280B70700809387DE
:10548000870B2A87E315F5FE93F7B5FF0D48E390E8
:1054900007FF1C436244F240D24403A3C7010561E5
:1054A00002831387C183B70700026303A700814704
:1054B000B1661387C6FFE1163E97B697144388433B
:1054C0000C43E39DD5FE82809387C183014763141B
:1054D000F5003707000289476387F50463C8B70002
:1054E00085476382F502FD573E8582808D4763853F
:1054F000F5049147E399F5FE81477DD61C428A0762
:10550000BA979C43D5B7FD5765D2411122C406C650
:105510003284EFF01FF908C04CC0B24022448147EA
:105520003E8541018280FD5761D21C428A07BA97AD
:1055300023A0070081474DBFFD575DD61C428A0757
:10554000BA97054798C30F0080049C43E5B7011143
:1055500006CE22CC2A84EF1030312AC67000228574
:105560008945EFF07FF6F2406244056182800111C7
:1055700006CE22CC2A84EF10302F2AC67000228556
:105580008D45EFF07FF4F240624405618280AA8588
:10559000F32740F11397270093870185BA97884333
:1055A000F32720340DC593F7F73F13874184938782
:1055B000070E631BE500370700808A071307870B78
:1055C000BA9703A3870002838A079C4702908280D0
:1055D00000000000000000000000000000000000CB
:1055E00000000000000000000000000000000000BB
:1055F00000000000000000000000000000000000AB
:10560000397106DE16DC1ADA1ED82AD62ED432D22A
:1056100036D03ACE3ECC42CA46C872C676C47AC2AA
:105620007EC0F32740F11397270093870185BA972F
:10563000944373262034F3271034F3273034732730
:1056400050308DCA938741846389F604814713756E
:10565000F63F63520606AD4663D5A6001377F703FF
:1056600031E361473307E502BA9703A7070983A52A
:1056700087090297F250E2525253C2533255A25553
:10568000125682567247E2475248C248324EA24EE4
:10569000124F824F216173002030B707008093873B
:1056A000870B75B78946E317D7FC7327703018430B
:1056B00083A5C70D7DBF1307050E0A07BA979C4740
:1056C000AA85368582977DB70000000000000000A3
:1056D00000000000000000000000000000000000CA
:1056E00000000000000000000000000000000000BA
:1056F0000000000000000000000001458280F3254A
:1057000000B8732500B0F32700B86384F5000145A5
:105710008145828011CD938741846306F500014560
:105720009355F54182803725F40013050540CDBF20
:105730000145814582800111814701483EC406CE62
:1057400042C693874184639CA700B707008003A5E6
:10575000471F11C51C4130008545FC438297F2402C
:105760002245B245056182801385C18382801D4533
:1057700082800D458280011106CE2EC6938741841A
:105780006391A702B707008083A747197D5599C782
:10579000984370008D4578433E850297F24005613D
:1057A00082807D55E5BF011106CE2EC693874184C8
:1057B0006391A702B707008083A747197D5599C752
:1057C00098437000894578433E850297F240056111
:1057D00082807D55E5BF011106CE2EC69387418498
:1057E0006391A702B707008083A74719014599C7AE
:1057F00098437000914578433E850297F2400561D9
:1058000082800145E5BF938741846384A7000145F9
:105810008280370500801305850B828083D70500C1
:105820000D4711458D8B6383E70009458280732501
:105830001034828073901534014582804111130524
:10584000400606C6EF10B00241111305800C06C6D3
:10585000EF10F00193874184B2862E86639CA700E7
:10586000B707008003A5471F11C51C41814503A34D
:10587000870402837D558280411106C622C4F32726
:1058800040F101446348F000139727009387018596
:10589000BA9780432285EFF01FEA9307A50033B53E
:1058A000A7003306B50022852244B240BE854101DF
:1058B0006FF05FFA5C41C1EBFD5773B0473073B0D6
:1058C0004734F326103037270400758F09C773B0AB
:1058D000373073B027309397D60063D50700FD5754
:1058E00073B00718930705091307053923A00700AC
:1058F00023A2070023A40700E107E399E7FE376727
:105900000120930785389306853B1307C78398C307
:105910009107E39EF6FEF3275030B7570120938797
:105920000760F19B73905730F327103041671307DE
:105930008702F98F99C7F32700300967D98F7390D1
:10594000073085475CC18280938741846392A702B8
:10595000AD477D5563CFB70009CEB707008093856B
:10596000050E9387870B8A05BE9590C501458280F9
:105970007D5582801385C183828081EDF32750306D
:10598000B757012093870760F19B7390573001450B
:10599000828085477D55E39DF5FEF3275030B7772C
:1059A00001209387070893E71700C5B739712AD6F6
:1059B0001305C01206DE16DC1ADA1ED82ED432D237
:1059C00036D03ACE3ECC42CA46C872C676C47AC2F7
:1059D0007EC0EF10C069397106DE16DC1ADA1ED8F7
:1059E0002AD62ED432D236D03ACE3ECC42CA46C87F
:1059F00072C676C47AC27EC0F32740F1139727009F
:105A000093870185BA97984319CF93874184631F81
:105A1000F702B70700809387870B03A7870D83A53D
:105A2000070E0D450297F250E2525253C2533255BF
:105A3000A255125682567247E2475248C248324E29
:105A4000A24E124F824F2161730020308327000E37
:105A50000290397106DE16DC1ADA1ED82AD62ED448
:105A600032D236D03ACE3ECC42CA46C872C676C48E
:105A70007AC27EC0F32740F11397270093870185F0
:105A8000BA97984319CF93874184631FF702B707EA
:105A900000809387870B03A7871383A507141D45F1
:105AA0000297F250E2525253C2533255A255125647
:105AB00082567247E2475248C248324EA24E124FB7
:105AC000824F2161730020308327001402903971C6
:105AD00006DE16DC1ADA1ED82AD62ED432D236D0FA
:105AE0003ACE3ECC42CA46C872C676C47AC27EC09E
:105AF000F32740F11397270093870185BA979843BE
:105B000019CF93874184631FF702B70700809387FB
:105B1000870B03A7072183A5872141450297F250F0
:105B2000E2525253C2533255A25512568256724710
:105B3000E2475248C248324EA24E124F824F216174
:105B400073002030832780210290397106DE16DC35
